:100000000C945C000C9479000C9479000C947900A9
:100010000C9479000C9479000C9479000C9479007C
:100020000C9479000C9479000C9479000C9479006C
:100030000C9479000C9479000C9479000C9479005C
:100040000C9425010C946F010C9479000C947900A8
:100050000C9479000C9479000C9479000C9479003C
:100060000C9479000C947900000000080002010053
:100070000003040700000000000000000000000072
:10008000250028002B0000000000240027002A0083
:10009000040404040404040402020202020203032E
:1000A0000303030301020408102040800102040836
:1000B000102001020408102011241FBECFEFD8E049
:1000C000DEBFCDBF11E0A0E0B1E0EEEFF4E002C092
:1000D00005900D92A63BB107D9F721E0A6EBB1E060
:1000E00001C01D92A83CB207E1F70E949F010C9449
:1000F0007D020C94000090E0FC01EC55FF4F249130
:10010000FC01E057FF4F8491882399F090E0880F1D
:10011000991FFC01EA57FF4FA591B491FC01E458E7
:10012000FF4F859194918FB7F894EC91E22BEC936B
:100130008FBF089590E0FC01E859FF4F3491FC0116
:10014000EC55FF4F2491FC01E057FF4FE491EE2363
:1001500009F43BC0332339F1333091F038F43130B6
:10016000A9F0323001F584B58F7D12C0373091F09F
:100170003830A1F03430B9F4809180008F7D03C015
:10018000809180008F77809380000DC084B58F7739
:1001900084BD09C08091B0008F7703C08091B0000A
:1001A0008F7D8093B000F0E0EE0FFF1FE458FF4F0B
:1001B000A591B4918FB7F894EC91611103C020958B
:1001C0002E2301C02E2B2C938FBF08953FB7F89498
:1001D0008091BB019091BC01A091BD01B091BE0185
:1001E00026B5A89B05C02F3F19F00196A11DB11D92
:1001F0003FBFBA2FA92F982F8827820F911DA11DCD
:10020000B11DBC01CD0142E0660F771F881F991F09
:100210004A95D1F70895CF92DF92EF92FF920E9414
:10022000E6006B017C010E94E600DC01CB018C1929
:100230009D09AE09BF09883E9340A105B10598F319
:10024000FF90EF90DF90CF9008951F920F920FB61E
:100250000F9211242F933F938F939F93AF93BF934C
:100260008091B7019091B801A091B901B091BA0104
:100270003091B60123E0230F2D3720F40196A11D04
:10028000B11D05C026E8230F0296A11DB11D2093C4
:10029000B6018093B7019093B801A093B901B093D0
:1002A000BA018091BB019091BC01A091BD01B091B8
:1002B000BE010196A11DB11D8093BB019093BC01AD
:1002C000A093BD01B093BE01BF91AF919F918F915B
:1002D0003F912F910F900FBE0F901F9018951F9276
:1002E0000F920FB60F9211248F939F93AF93EF93BA
:1002F000FF938EB58D3079F41092BF018091C301C8
:100300009091C401A091C5018093C0019093C10157
:10031000A093C2010AC0E091BF0191E09E0F9093AB
:10032000BF01F0E0ED53FE4F8083FF91EF91AF915D
:100330009F918F910F900FBE0F901F9018957894FA
:1003400084B5826084BD84B5816084BD85B58260DA
:1003500085BD85B5816085BD80916E00816080938B
:100360006E001092810080918100826080938100F4
:100370008091810081608093810080918000816004
:10038000809380008091B10084608093B10080915F
:10039000B00081608093B00080917A008460809387
:1003A0007A0080917A00826080937A0080917A004E
:1003B000816080937A0080917A00806880937A00CF
:1003C0001092C10087E00E947B0061E087E00E94FC
:1003D0009A0083E00E947B0061E083E00E949A0023
:1003E00088E00E947B0061E088E00E949A00C6EAF3
:1003F000D1E018812296812F0E947B0060E0812F3E
:100400000E949A0021E0C63BD20799F78CE00E9437
:100410007B008CB580648CBD1092BF018CB5806868
:100420008CBD20E0E22E20E0F22E8091C6018823D0
:1004300009F443C000EA11E0C0E0D0E086EA882E6B
:1004400081E0982EA12CB12CCE0180549E4F6C01DE
:10045000F4018081F2E08F0E911CF6019081F5018C
:1004600028E09202E00DF11D1124EE0FFF1FE05075
:10047000FF4F60810E949A008FEFA81AB80A98E097
:10048000A916B10429F7C130D10521F461E08EE04D
:100490000E949A00F801D0800E5F1F4F60E08D2D02
:1004A0000E949A000E940B0161E08D2D0E949A002B
:1004B0002196C330D10511F619C0C6EAD1E0888172
:1004C000229660E00E949A0091E0C43BD907B9F7F8
:1004D00061E08EE00E949A0060E088E00E949A004D
:1004E0000E940B0161E088E00E949A00E114F1048F
:0E04F00009F49BCF0E94000098CFF894FFCF34
:1004FE0001000100010001000100010000000000E8
:10050E0000000100010000000000000000000000DB
:10051E0001000100000001000100000001000000C8
:10052E0001000100010001000000000001000000B8
:10053E0000000100010000000000010001000000A9
:10054E000100000001000100000001000100000098
:10055E000100000001000100010001000100000087
:10056E00010001000100000000000000000000007A
:10057E000100010001000100010001000100000066
:10058E000100010001000100000001000100000057
:10059E000700030008000F0011000600050004000C
:0605AE00100002000E0027
:00000001FF
