:100000000C9462000C94A3050C947C050C948A005B
:100010000C948A000C948A000C948A000C948A0038
:100020000C948A000C948A000C948A000C948A0028
:100030000C948A000C948A000C948A000C948A0018
:100040000C9432050C948A000C949C0C0C94760C45
:100050000C948A000C948A000C948A000C948A00F8
:100060000C94CA050C948A000000000025002800AA
:100070002B000000000023002600290000000008DB
:10008000000201000003040700000000000000005F
:1000900000000000240027002A00010204081020AC
:1000A000408001020408102001020408102004040A
:1000B0000404040404040202020202020303030310
:1000C0000303E50C11241FBECFEFD8E0DEBFCDBF88
:1000D00014E0A0E0B1E0EEE2F7E202C005900D927C
:1000E000AC3DB107D9F726E0ACEDB4E001C01D92FC
:1000F000A23EB207E1F710E0C2E6D0E004C02197CB
:10010000FE010E948A13C136D107C9F70E941E0D55
:100110000C9495130C94000080E090E0892B29F05A
:100120000E94D80A81110C9400000895833081F058
:1001300028F4813099F08230A1F008958730A9F039
:100140008830B9F08430D1F4809180008F7D03C075
:10015000809180008F7780938000089584B58F7799
:1001600002C084B58F7D84BD08958091B0008F77E3
:1001700003C08091B0008F7D8093B00008953FB799
:10018000F8948091880590918905A0918A05B09195
:100190008B0526B5A89B05C02F3F19F00196A11D20
:1001A000B11D3FBFBA2FA92F982F8827820F911D0D
:1001B000A11DB11DBC01CD0142E0660F771F881F54
:1001C000991F4A95D1F70895089585ED8093BC0055
:1001D0008091BC0084FDFCCF10928E050895409163
:1001E0003C05262F30E0240F311D21323105DCF48F
:1001F00020918E052430C9F4FC0180E090E0861740
:1002000058F430913C052191DC01A45EBA4FA30F54
:10021000B11D2C930196F3CF80913C05680F60933C
:100220003C0580E0089581E0089582E00895E09122
:100230009905F0919A05309729F010929005109247
:100240008F0509940895CF93DF93AC01E091970552
:10025000F09198053097F1F0909192058091910579
:100260009817C0F090E0292F30E02617370754F494
:10027000D901A450BB4FEA01C20FD31F88818C93D0
:100280009F5FF1CF1092920560939105CB01DF91B2
:10029000CF910994DF91CF9108950895E09192054F
:1002A00080919105E81730F4F0E0E450FB4F808135
:1002B00090E008958FEF9FEF0895909192058091BF
:1002C0009105981750F4E92FF0E0E450FB4F20819E
:1002D00030E09F5F9093920502C02FEF3FEFC9017E
:1002E00008958091910590E020919205821B9109DB
:1002F0000895CF93DF9300D0CDB7DEB7CB01642F45
:1003000049835A830E94EF004981842F5A81952F97
:100310000F900F90DF91CF910895CF93DF931F92AD
:10032000CDB7DEB7698361E0CE0101960E94EF0090
:1003300081E090E00F90DF91CF9108958F929F928E
:10034000AF92BF92EF92FF920F931F93CF93DF93E1
:10035000E12CF12CC0E0D0E0812C912C54018701DC
:10036000000F111F000F111F00501F4FF801608177
:1003700071818281938120E030E04CE652E40E945A
:10038000921187FF0EC0F801608171818281938193
:1003900020E030E040E151EC0E94F11218160CF41C
:1003A00085C0FFEFEF1AFF0A85E0E816F104B9F601
:1003B0002097D1F0BE01DD0F880B990B0E944112EE
:1003C0009B01AC01C501B4010E9497118B01D82F8C
:1003D000C92F5B01E82EF92E20E030E0A9010E9430
:1003E000F11287FF05C00DC0A12CB12CE12CF12C1E
:1003F00020E030E040E05FE3B501C7010E94261134
:1004000009C020E030E040E05FE3B8018D2F9C2F71
:100410000E9425110E940912D62F60911901709136
:100420001A0180911B0190911C0120E030E0A9018C
:100430000E94F11287FD0FC06091190170911A019D
:1004400080911B0190911C0120E030E040E05FE3CF
:100450000E9426110EC06091190170911A018091BD
:100460001B0190911C0120E030E040E05FE30E941E
:1004700025110E940912C62F6D2F8AEC96E00E946A
:100480008D016C2F8AEC96E00E948D016091A3058E
:100490008AEC96E0DF91CF911F910F91FF90EF9042
:1004A000BF90AF909F908F900C948D01F8012081A8
:1004B000318142815381C501B4010E9426114B0153
:1004C0005C0121966ECF8EBD00000DB407FEFDCFFE
:1004D0008EB50895F89489B18C708093E004809172
:1004E000E0048C3021F48091DF04811109C08091F7
:1004F000E004883019F481E08093DE047894089554
:100500008091A3059091A405892BB1F18BE491E032
:100510000E94180B6091190170911A0180911B01C2
:1005200090911C0120E030E040E05FE30E94261142
:100530006093190170931A0180931B0190931C0121
:100540006091190170911A0180911B0190911C0119
:1005500020E030E044E352E40E94F112181664F403
:1005600080E090E0A4E3B2E48093190190931A0133
:10057000A0931B01B0931C011092DF041092DE04C3
:10058000BDCFF89489B18C708093E0048091E00431
:100590008C3021F48091DE04811109C08091E00447
:1005A000843019F481E08093DF0478940895809179
:1005B000A3059091A405892BB1F185E591E00E94F6
:1005C000180B6091190170911A0180911B01909193
:1005D0001C0120E030E040E05FE30E9425116093C1
:1005E000190170931A0180931B0190931C01609173
:1005F000190170911A0180911B0190911C0120E05A
:1006000030E040E251E40E94921187FF0CC080E08C
:1006100090E0A0E2B1E48093190190931A01A093B5
:100620001B01B0931C011092DF041092DE04BDCFB9
:10063000FC01258D820F911D820F911DDC01A256B8
:10064000BF4F2D913C91858D90E001968F73992736
:10065000858FA289B3898C9130FF02C0816001C06F
:100660008E7F8C93A689B7892C93A089B1898C91B0
:1006700080648C93948D858D981306C00288F389CD
:10068000E02D80818F7D80830895EF92FF920F93FC
:100690001F93CF93DF93EC0181E0888F9C8D8D8D2C
:1006A000981305C0E889F989808185FD2AC0F62E56
:1006B0000C8D10E00F5F1F4F0F731127E02E8D8DF3
:1006C000E8120CC00FB607FCFACFE889F9898081DF
:1006D00085FFF5CFCE010E941803F1CF2C8DCE01FE
:1006E000820F911D820F911DFC01E256FF4F6F2D6D
:1006F00070E0718360830C8FEA89FB89808180625E
:100700000CC0EA89FB8980818E7F8083EE89FF8916
:100710006083E889F98980818064808381E090E04A
:10072000DF91CF911F910F91FF90EF900895CF939C
:10073000DF93282F30E0F901E458FF4F8491F9014D
:10074000E656FF4FD491F901E255FF4FC491CC23F7
:1007500091F081110E949600EC2FF0E0EE0FFF1F48
:10076000EE58FF4FA591B491EC91ED2381E090E01C
:1007700021F480E002C080E090E0DF91CF91089505
:100780001F93CF93DF93282F30E0F901E458FF4FF8
:100790008491F901E656FF4FD491F901E255FF4FDC
:1007A000C491CC23C9F0162F81110E949600EC2F22
:1007B000F0E0EE0FFF1FE859FF4FA591B4918FB7FE
:1007C000F894111105C09C91ED2FE095E92302C02A
:1007D000EC91ED2BEC938FBFDF91CF911F9108959A
:1007E000CF92DF92EF92FF920F931F93CF93DF93FD
:1007F000029709F0ACC08AEC96E00E945D01EC0122
:100800008AEC96E00E945D019093DD048093DC0405
:100810008230910540F08091DC049091DD040397D3
:1008200009F095C03BC09093A4058093A3058FE584
:1008300091E00E94260BC090A305D090A4050D2C3A
:10084000000CEE08FF08F7FE0CC08DE20E94280B9A
:1008500066277727CB016C197D098E099F094AE02D
:1008600003C04AE0C701B6010E94330B84E791E060
:100870000E94060B8091A3059091A405892B59F63F
:1008800001E211E0F80180810E5F1F4F60E00E94DD
:10089000C003F1E00B321F07A9F7BDCFBE01DD0F8A
:1008A000880B990B0E9441126093190170931A01F1
:1008B00080931B0190931C0187E791E00E94260B17
:1008C0006091190170911A0180911B0190911C0196
:1008D00040E00E94740B84E791E00E94060B609157
:1008E000190170911A0180911B0190911C0120E067
:1008F00030E044E352E40E94F112181664F480E000
:1009000090E0A4E3B2E48093190190931A01A093BC
:100910001B01B0931C016091190170911A01809123
:100920001B0190911C0120E030E040E251E40E9464
:10093000921187FF0CC080E090E0A0E2B1E48093C8
:10094000190190931A01A0931B01B0931C01DF9130
:10095000CF911F910F91FF90EF90DF90CF9008956E
:10096000CF93DF9390E0FC01E656FF4F2491FC010A
:10097000E255FF4F8491882361F190E0880F991F21
:10098000FC01E057FF4FC591D491FC01E859FF4F9E
:10099000A591B491611109C09FB7F8948881209501
:1009A00082238883EC912E230BC0623061F49FB7C1
:1009B000F8943881822F809583238883EC912E2BA5
:1009C0002C939FBF06C08FB7F894E8812E2B288305
:1009D0008FBFDF91CF9108958F929F92AF92BF9278
:1009E000CF92DF92EF92FF926B017C010E94BF00D9
:1009F0004B015C01C114D104E104F104F1F00E9447
:100A0000BF00DC01CB0188199909AA09BB09883EFE
:100A10009340A105B10570F321E0C21AD108E108A5
:100A2000F10888EE880E83E0981EA11CB11CC11449
:100A3000D104E104F10419F7DDCFFF90EF90DF90CE
:100A4000CF90BF90AF909F908F9008952FB7F8945C
:100A50006091840570918505809186059091870548
:100A60002FBF08951F920F920FB60F9211242F934C
:100A70003F938F939F93AF93BF9380918405909101
:100A80008505A0918605B09187053091830523E007
:100A9000230F2D3720F40196A11DB11D05C026E8B6
:100AA000230F0296A11DB11D209383058093840519
:100AB00090938505A0938605B0938705809188055E
:100AC00090918905A0918A05B0918B050196A11D91
:100AD000B11D8093880590938905A0938A05B093F2
:100AE0008B05BF91AF919F918F913F912F910F9067
:100AF0000FBE0F901F9018951F920F920FB60F9276
:100B000011242F933F934F935F936F937F938F9312
:100B10009F93AF93BF93EF93FF93E0911601F091F2
:100B200017010995FF91EF91BF91AF919F918F911F
:100B30007F916F915F914F913F912F910F900FBED9
:100B40000F901F9018951F920F920FB60F921124BD
:100B50002F933F934F935F936F937F938F939F93C5
:100B6000AF93BF93EF93FF93E0911401F0911501C0
:100B70000995FF91EF91BF91AF919F918F917F91D7
:100B80006F915F914F913F912F910F900FBE0F90FA
:100B90001F9018951F920F920FB60F9211242F934A
:100BA0003F934F935F936F937F938F939F93AF93F5
:100BB000BF93EF93FF938091B900887F803609F44B
:100BC0009CC068F5883209F45BC090F4803109F468
:100BD00054C038F4882309F4F6C0883009F44DC0B5
:100BE000F6C0883109F44CC0803209F45DC0EFC012
:100BF000803409F468C048F4803309F455C0883360
:100C000009F0E5C080935F05D8C0803509F44FC076
:100C1000883509F45DC0883409F0D9C0D6C0883958
:100C200009F4C7C0A8F4883709F467C038F48836D7
:100C300009F463C0803709F460C0C9C0883809F47A
:100C4000B8C0803909F45FC0803809F0C0C05BC00B
:100C5000803B09F486C038F4803A09F466C0883ACB
:100C600009F47FC0B4C0803C09F4A7C0883C09F4F3
:100C7000A4C0883B09F48AC0AAC08091820510C034
:100C80009091810580918005981770F5E09181051C
:100C900081E08E0F80938105F0E0E05AFA4F808169
:100CA0008093BB0085EC86C080935F058EC0E09189
:100CB000810581E08E0F809381058091BB00F0E07B
:100CC000E05AFA4F808390918105809180056EC033
:100CD000E091810581E08E0F809381058091BB00BA
:100CE000F0E0E05AFA4F808380918D0581116DC04C
:100CF00081E080938C0584EA61C083E080938E0557
:100D000010925E05CFCF80915E05803208F051C011
:100D1000E0915E0581E08E0F80935E058091BB00BF
:100D2000F0E0E25CFA4F8083BDCF85EC8093BC009D
:100D300010928E0580915E05803230F4E0915E0560
:100D4000F0E0E25CFA4F108260915E0570E0E091A5
:100D50009305F09194058EE395E0099510925E0558
:100D600036C084E080938E0510923D0510923C05BC
:100D7000E0919505F0919605099580913C058111CA
:100D800005C081E080933C0510921C05E0913D0573
:100D900081E08E0F80933D05F0E0E45EFA4F8081A4
:100DA0008093BB0090913D0580913C05981708F415
:100DB00079CF85E88093BC000AC085EC8093BC00A5
:100DC00010928E0504C010925F050E94E500FF910D
:100DD000EF91BF91AF919F918F917F916F915F91B3
:100DE0004F913F912F910F900FBE0F901F9018952C
:100DF0002F923F924F925F926F927F928F929F922B
:100E0000AF92BF92CF92DF92EF92FF920F931F9318
:100E1000CF93DF93CDB7DEB764970FB6F894DEBFFC
:100E20000FBECDBF60E08FE00E94C0038091A3059C
:100E30000E94630283E290E00197F1F78E010F5F59
:100E40001F4F7E0185E1E80EF11C43E2C42ED12C38
:100E50008091A3050E946302F6013197F1F7F80132
:100E600081938F01EE15FF0599F761E08FE00E94F5
:100E7000C00361E070E080E090E00E94EC04FE01BD
:100E8000349680E090E0DF0113972C912093F804D2
:100E900011962C912093F90411962C912093FA0429
:100EA00020812093FB044091F8045091F904609153
:100EB000FA047091FB04DC01AA0FBB1FAA0FBB1F31
:100EC000A050BF4F4D935D936D937C931397019604
:100ED000349685309105B9F68091A3059091A405CB
:100EE000892B09F446C121E2A22E21E0B22EC12CA9
:100EF000D12C7601EE0CFF1CEE0CFF1CC7018050BC
:100F00009F4F4C01FC01608171818281938120900F
:100F1000190130901A0140901B0150901C0120E0F3
:100F200030E040E251E40E94F6120E9409123B01B7
:100F300020E030E040E05FE3C201B1010E942611F1
:100F400020E030E040E251E40E94F6120E940912D3
:100F50008601000F111F66167706D4F4F401608134
:100F600071818281938120E030E04CE652E40E945E
:100F7000F11287FF0DC0F40160817181828193813C
:100F800020E030E040E251EC0E9492111816ECF1A2
:100F9000F5019080892D0E949703892BB1F10251B0
:100FA0001B4FF801208131812F5F3F4F3183208318
:100FB00080819181039709F0DCC060E0892D0E9457
:100FC000C003F801118210828091AB058111D1C05C
:100FD00089E891E00E94260BC60101960E94480C08
:100FE0008FE891E00E94260BF701E050FF4F6081EF
:100FF00071818281938141E00E94740B87E991E0C5
:101000000E94260B85EB94E085C0C70180509F4F5E
:101010007C01FC0160817181828193814090190182
:1010200050901A0160901B0170901C0120E030E08C
:1010300040E251E40E94F6120E9409124B0120E0A6
:1010400030E040E05FE3C301B2010E94251120E0DF
:1010500030E040E251E40E94F6120E940912681545
:1010600079050CF471C0F7016081718182819381EF
:1010700020E030E040E251EC0E94F11218160CF032
:1010800063C0F5019080892D0E949703892B09F098
:101090005BC0F701608171818281938120E030E043
:1010A00040E351EC0E94F11218160CF04DC00C51A7
:1010B0001B4FF801208131812F5F3F4F3183208307
:1010C00080819181039709F054C061E0892D0E94CD
:1010D000C003F801118210828091AB05811149C0D3
:1010E00089E891E00E94260BC60101960E94480CF7
:1010F0008FE891E00E94260BF70160817181828167
:10110000938141E00E94740B87E991E00E94260BD5
:1011100083EA94E064960FB6F894DEBF0FBECDBFAD
:10112000DF91CF911F910F91FF90EF90DF90CF90C3
:10113000BF90AF909F908F907F906F905F904F90F7
:101140003F902F900C94180BF801E251FB4F118245
:101150001082F801EC51FB4F11821082FFEFCF1A81
:10116000DF0A82E0A80EB11C95E0C916D10409F08F
:10117000C0CE64960FB6F894DEBF0FBECDBFDF9130
:10118000CF911F910F91FF90EF90DF90CF90BF9084
:10119000AF909F908F907F906F905F904F903F9017
:1011A0002F9008954F925F926F927F928F929F92AD
:1011B000AF92BF92CF92DF92EF92FF92CF93DF93E5
:1011C0000E94260560939F057093A0058093A1055A
:1011D0009093A205109218016091A7057091A8053F
:1011E0008091A9059091AA052091190130911A01C9
:1011F00040911B0150911C010E949211882329F0FB
:101200008091AB05882309F4D9C02091A5053091C0
:10121000A6058091A3059091A40528173907A9F088
:101220008091AB05811111C083EA91E00E94260BE9
:101230008091A3059091A405892B19F084EA94E08C
:1012400002C086EB94E00E94180B809119019091E6
:101250001A01A0911B01B0911C018093A7059093E6
:10126000A805A093A905B093AA058091A305909124
:10127000A4059093A6058093A5056091190170912E
:101280001A0180911B0190911C0120E030E040E2A6
:1012900051E40E9497110E9409124B015C01609376
:1012A000E104C0901901D0901A01E0901B01F09068
:1012B0001C01CB0199272AE0289FB001299F700DBE
:1012C0001124072E000C880B990B0E9441122B0150
:1012D0003C019B01AC01C701B6010E9425110E948F
:1012E00009126B017C016093E20460911901709115
:1012F0001A0180911B0190911C01A30192010E948F
:1013000025112B013C01B6017727072E000C880B15
:10131000990B0E9441129B01AC01C301B2010E94D2
:10132000251120E030E040E251E40E94F6120E94D4
:101330000912762E6093E30460E08AE00E94C00305
:1013400061E070E080E090E00E94EC04882D0E9453
:101350006302C3E2D0E0CE010197F1F78C2D0E9429
:101360006302CE010197F1F7872D0E946302CE013F
:101370000197F1F78091A3050E946302CE010197C6
:10138000F1F78DE00E9463022197F1F761E08AE0B6
:101390000E94C00361E070E080E090E0DF91CF91B7
:1013A000FF90EF90DF90CF90BF90AF909F908F9085
:1013B0007F906F905F904F900C94EC0486EB91E0DF
:1013C0000E94260B6091190170911A0180911B01F6
:1013D00090911C0141E00E94740B84E791E00E940F
:1013E000060B13CFCF93DF9381EC91E00E94180B93
:1013F0008091A3059091A405892B19F084EA94E0CB
:1014000002C086EB94E00E94260B85E092E00E94E9
:10141000260B6091190170911A0180911B01909126
:101420001C0141E00E94740BC0E0D0E085E092E036
:101430000E94260BFE01EE0FFF1FEE0FFF1FE05074
:10144000FF4F608171818281938141E00E94740B22
:101450002196C530D10551F784E791E00E94060B33
:1014600085E00E949703892B19F088EE91E002C075
:1014700087EF91E00E94260B86E00E949703892B5C
:1014800019F083EF91E002C082E092E00E94260B07
:1014900087E00E949703892B19F083EF91E002C047
:1014A00082E092E00E94260B88E00E949703892B3D
:1014B00019F083EF91E002C082E092E00E94260BD7
:1014C00089E00E949703892B19F083EF91E002C015
:1014D00082E092E00E94180B0E94260560939B0513
:1014E00070939C0580939D0590939E05DF91CF910D
:1014F0000895CF92DF92EF92FF920F931F93CF93B5
:10150000DF936C017A018B01C0E0D0E0CE15DF05DE
:1015100089F0D8016D918D01D601ED91FC9101907A
:10152000F081E02DC6010995892B11F47E0102C0DE
:101530002196ECCFC701DF91CF911F910F91FF90C2
:10154000EF90DF90CF900895FC01928D838D9817D6
:1015500081F0838DDF01A80FB11DA80FB11D5E962C
:101560008C915E975F969C91238D2F5F2F73238FB5
:1015700008958FEF9FEF0895FC01928D838D98174A
:1015800041F0838DE80FF11DE80FF11D868D978DD9
:1015900008958FEF9FEF0895FC01928D238D892F81
:1015A00090E0805C9F4F821B91098F73992708956B
:1015B0008CEA95E00E94CC0A21E0892B09F420E016
:1015C000822F08950E949013CF93DF93EC01888DB2
:1015D0008823C9F0EA89FB89808185FD05C0A88937
:1015E000B9898C9186FD0FC00FB607FCF5CF8081BD
:1015F00085FFF2CFA889B9898C9185FFEDCFCE0107
:101600000E941803E7CFDF91CF910895009769F00A
:10161000FC0101900020E9F73197AF01481B590BFD
:10162000BC018CEA95E00C94790A80E090E0089582
:10163000CF93DF930E94060BEC0184E791E00E94B8
:10164000060B8C0F9D1FDF91CF9108950C94060B14
:10165000E091AC05F091AD050190F081E02D682F8F
:101660008CEA95E009948F929F92AF92BF920F936C
:101670001F93CF93DF93CDB7DEB7A1970FB6F89442
:10168000DEBF0FBECDBF19A2423008F44AE08E0182
:101690000F5D1F4F842E912CA12CB12CA50194011C
:1016A0000E946813E62FB901CA0101501109EA30FE
:1016B00014F4E05D01C0E95CD801EC93232B242BEA
:1016C000252B61F7C8010E94060BA1960FB6F8946E
:1016D000DEBF0FBECDBFDF91CF911F910F91BF90A5
:1016E000AF909F908F9008954F925F926F927F92EC
:1016F0008F929F92AF92BF92CF92DF92EF92FF9222
:101700006B017C01B42E9B01AC010E946313882302
:1017100019F087E092E027C026013701E89477F8B6
:101720002FEF3FEF4FE75FE7C301B2010E94631362
:1017300081110DC02FEF3FEF4FE75FE7C301B2010B
:101740000E94921118161CF48BE092E00CC02FEF4F
:101750003FEF4FE75FE4C701B6010E94F112181690
:1017600084F48FE092E0FF90EF90DF90CF90BF90F5
:10177000AF909F908F907F906F905F904F900C9460
:10178000060B2FEF3FEF4FE75FECC701B6010E945A
:10179000921187FDE6CF20E030E0A901C701B60134
:1017A0000E94921187FF09C08DE20E94280B4C0114
:1017B000F7FAF094F7F8F09402C0812C912CA12C48
:1017C00060E070E080E09FE3AB1441F020E030E0A7
:1017D00040E251E40E949711A394F6CF9B01AC0123
:1017E000C701B6010E9426112B013C010E94101274
:1017F0006B017C010E943F129B01AC01C301B2014D
:101800000E9425112B013C014AE0C701B6010E944C
:10181000330B7C01E80CF91CBB2029F08EE20E94FE
:10182000280BE80EF91EDB2CDD2021F120E030E052
:1018300040E251E4C301B2010E94F6122B013C01C7
:101840000E9410124B01A12CB12C4AE0C501B40139
:101850000E94330BE80EF91EC501B4010E943F122D
:101860009B01AC01C301B2010E9425112B013C0177
:10187000DA94DACFC701FF90EF90DF90CF90BF905E
:10188000AF909F908F907F906F905F904F90089552
:10189000CF92DF92EF92FF92CF93DF936C01990F7B
:1018A000EE08FF08F7FE17C08DE20E94280BEC013E
:1018B00066277727CB016C197D098E099F094AE0BD
:1018C0000E94330B8C0F9D1FDF91CF91FF90EF9003
:1018D000DF90CF9008954AE0C701B601DF91CF9124
:1018E000FF90EF90DF90CF900C94330B1F920F92EC
:1018F0000FB60F9211242F933F934F935F936F93E3
:101900007F938F939F93AF93BF93EF93FF938CEA53
:1019100095E00E941803FF91EF91BF91AF919F91C5
:101920008F917F916F915F914F913F912F910F9088
:101930000FBE0F901F9018951F920F920FB60F9227
:1019400011242F933F938F939F93AF93BF93EF9364
:10195000FF93E091BC05F091BD058081A091BE058B
:10196000B091BF05E091C205F091C30582FD1EC094
:101970008C9130812091C6052F5F2F739091C70500
:101980002917B1F0E091C605827090E09695982FE6
:10199000882797958795F0E0EE0FFF1FE653FA4FE3
:1019A000832B918380832093C60502C08C91808114
:1019B000FF91EF91BF91AF919F918F913F912F91A7
:1019C0000F900FBE0F901F901895ECEAF5E0138270
:1019D000128288EE93E0A0E0B0E084839583A68332
:1019E000B7832FE231E03183208325EC30E0358767
:1019F000248724EC30E03787268720EC30E0318BD9
:101A0000208B21EC30E0338B228B22EC30E0358BC5
:101A1000248B26EC30E0378B268B128E138E148E9F
:101A2000158EEAECF6E01382128284839583A683F6
:101A3000B7838FE391E0918380830895789484B590
:101A4000826084BD84B5816084BD85B5826085BDBA
:101A500085B5816085BD80916E00816080936E0048
:101A6000109281008091810082608093810080913A
:101A700081008160809381008091800081608093EB
:101A800080008091B10084608093B1008091B000AB
:101A900081608093B00080917A00846080937A00A6
:101AA00080917A00826080937A0080917A008160D0
:101AB00080937A0080917A00806880937A001092F7
:101AC000C100E091BC05F091BD0582E08083E0910A
:101AD000B805F091B9051082E091BA05F091BB0507
:101AE0008FEC80831092C405E091C005F091C10590
:101AF00086E08083E091BE05F091BF058081806122
:101B00008083E091BE05F091BF058081886080836D
:101B1000E091BE05F091BF05808180688083E091EF
:101B2000BE05F091BF0580818F7D80831092C50531
:101B3000E091BE05F091BF0580818B7F808383E1BA
:101B400092E00E94180B8FE692E00E94180B8BEC3B
:101B500092E00E94180B87E293E00E94180B83E149
:101B600092E00E94180B86E092E00E94180B83E836
:101B700093E00E94180B8AEA93E00E94180B81EC14
:101B800093E00E94180B87ED93E00E94180B84EFFE
:101B900093E00E94180B86E092E00E94180B8BE104
:101BA00094E00E94180B60ED77E080E090E00E94E6
:101BB000EC0460E080E10E94B00462E08EE00E94EC
:101BC000B00461E081E10E94B00461E085E00E9420
:101BD000B00461E086E00E94B00461E087E00E940A
:101BE000B00461E088E00E94B00461E089E00E94F6
:101BF000B00462E082E00E94B00462E083E00E94F0
:101C0000B00481EC92E090931501809314018091CF
:101C10006900836080936900E89A8AE692E0909375
:101C2000170180931601809169008C608093690090
:101C3000E99A61E08AE00E94B00461E08AE00E94D3
:101C4000C00361E08FE00E94B00461E08FE00E9479
:101C5000C003CFB7F8948091D606811127C0E8EB76
:101C6000F0E08491E4EAF0E09491E82FF0E0EE0FE8
:101C7000FF1FE057FF4FA591B491EC91E92321F4A8
:101C800061E08AE00E94C00361E08AE00E94B00443
:101C90008CB580618CBD8CB580648CBD61E08DE0BD
:101CA0000E94B00461E08BE00E94B0048091D606EF
:101CB0008F5F8093D606CFBF8CB58C7F81608CBD43
:101CC0008DB581608DBD80E090E00E940F11D82F0E
:101CD00081E090E00E940F11C82F6D2F70E080E02E
:101CE00090E00E9441126B017C016C2F70E080E05B
:101CF00090E00E9441122DEC3CEC4CEC5DE30E9424
:101D0000F6129B01AC01C701B6010E942611609337
:101D1000190170931A0180931B0190931C0160912B
:101D2000190170911A0180911B0190911C0120E012
:101D300030E044E352E40E94F112181664F480E0AB
:101D400090E0A4E3B2E48093190190931A01A09368
:101D50001B01B0931C016091190170911A018091CF
:101D60001B0190911C0120E030E040E251E40E9410
:101D7000921187FF0CC080E090E0A0E2B1E4809374
:101D8000190190931A01A0931B01B0931C0182E0EA
:101D900090E00E940F1190E09093A4058093A3051A
:101DA00085E494E00E94180B0E94D208C1E0C09321
:101DB00018010E94F8060E94F20986E68093BA0094
:101DC00087E191E0909396058093950583E291E0F9
:101DD000909394058093930510929205109291052B
:101DE0001092900510928F0510928E05C0938D056C
:101DF00010928C0561E082E10E94C00361E083E102
:101E00000E94C0038091B9008E7F8093B9008091B9
:101E1000B9008D7F8093B90088E48093B80085E491
:101E20008093BC0080EF93E0909398058093970592
:101E30008EE991E090939A058093990511E002E470
:101E40006AE070E080E090E00E94EC048CEA95E0AB
:101E50000E94CC0A892BF1F08CEA95E00E94A40A3A
:101E6000813339F487EC93E00E94180B1093AB0593
:101E700011C0803339F480EB93E00E94180B10926C
:101E8000AB0508C0823331F48091AB05811102C0EB
:101E90000E94F209F8948EE00E9497032091E106D7
:101EA000892BC1F5211139C08091D7069091D806B0
:101EB00001969093D8068093D7068091D70690918B
:101EC000D806819750F181E02091A3053091A405B7
:101ED000232B09F080E0282F30E03093A4052093D5
:101EE000A305882359F01092D8061092D7061093B4
:101EF000E10683E694E00E94180B0FC0C1E2D1E036
:101F00008881229660E00E94C00321E0CB32D20794
:101F1000B9F7E9CF21111092E1066091A705709100
:101F2000A8058091A9059091AA05209119013091E9
:101F30001A0140911B0150911C010E9492118111C4
:101F4000ECC02091A5053091A6058091A305909144
:101F5000A4052817390709F0E0C00E942605C090A3
:101F60009F05D090A005E090A105F090A2056C150A
:101F70007D058E059F0540F410929F051092A005E7
:101F80001092A1051092A2050E942605C0909F05FF
:101F9000D090A005E090A105F090A205DC01CB0156
:101FA0008C199D09AE09BF0981319742A105B10580
:101FB00028F080911801882309F4B2C00E942605F8
:101FC000C090DD06D090DE06E090DF06F090E006DF
:101FD0006C157D058E059F0540F41092DD0610926C
:101FE000DE061092DF061092E0060E942605C090E1
:101FF000DD06D090DE06E090DF06F090E006DC0122
:10200000CB018C199D09AE09BF09893E9340A105FA
:10201000B10508F44DC00E94F80600937C00809141
:102020007A00806480937A0080917A0086FDFCCFEC
:10203000C091780080917900D0E0D82BC333D105CE
:102040000CF0B3C081E10E949703892B09F0DBC03B
:102050008091DB069091DC0601969093DC068093DC
:10206000DB068091DB069091DC060397B9F461E012
:1020700081E10E94C0031092DC061092DB06809181
:10208000AB0581110BC08FE794E00E94260BCE01B7
:102090000E94480C85E994E00E94180B0E942605D6
:1020A0006093DD067093DE068093DF069093E00672
:1020B0000E942605C0909B05D0909C05E0909D0550
:1020C000F0909E056C157D058E059F0540F41092DD
:1020D0009B0510929C0510929D0510929E05809183
:1020E000AB058823B1F00E942605C0909B05D090D7
:1020F0009C05E0909D05F0909E05DC01CB018C19BC
:102100009D09AE09BF09893E9340A105B10508F0BC
:1021100083C078940E948C0093CE0E94D2084ECF48
:102120006091190170911A0180911B0190911C011D
:102130000E94091280E090E00E941711C0901901DE
:10214000D0901A01E0901B01F0901C0160911901E0
:1021500070911A0180911B0190911C010E9409123B
:10216000072E000C880B990B0E9441129B01AC01B9
:10217000C701B6010E94251120E030E040E251E4A1
:102180000E94F6120E94091281E090E00E9417114D
:102190006091A30582E090E00E941711109318014E
:1021A0008AEB94E00E94180B09CFCC33D1055CF187
:1021B00081E10E949703892B31F18091D90690919A
:1021C000DA0601969093DA068093D9068091D906B3
:1021D0009091DA06039709F061CF60E081E10E94F7
:1021E000C0031092DA061092D9068091AB058111D6
:1021F00055CF8FE794E00E94260BCE010E94480C39
:1022000087EA94E049CF1092DC061092DB06109228
:10221000DA061092D90642CF0E94F2097ACFF999D4
:10222000FECF92BD81BDF89A992780B50895262FDB
:10223000F999FECF1FBA92BD81BD20BD0FB6F894AB
:10224000FA9AF99A0FBE019608955058BB27AA270B
:102250000E943D110C94B7120E94A91238F00E94FE
:10226000B01220F039F49F3F19F426F40C94A61212
:102270000EF4E095E7FB0C94A012E92F0E94C8121F
:1022800058F3BA17620773078407950720F079F4AB
:10229000A6F50C94EA120EF4E0950B2EBA2FA02DA1
:1022A0000B01B90190010C01CA01A0011124FF2703
:1022B000591B99F0593F50F4503E68F11A16F040FE
:1022C000A22F232F342F4427585FF3CF46953795FD
:1022D0002795A795F0405395C9F77EF41F16BA0BC2
:1022E000620B730B840BBAF09150A1F0FF0FBB1F70
:1022F000661F771F881FC2F70EC0BA0F621F731FB9
:10230000841F48F4879577956795B795F7959E3F15
:1023100008F0B0CF9395880F08F09927EE0F9795A6
:10232000879508950E947C1208F481E008950E9428
:10233000AB110C94B7120E94B01258F00E94A9126F
:1023400040F029F45F3F29F00C94A01251110C9435
:10235000EB120C94A6120E94C81268F39923B1F3F1
:10236000552391F3951B550BBB27AA2762177307BB
:10237000840738F09F5F5F4F220F331F441FAA1F4F
:10238000A9F335D00E2E3AF0E0E832D0915050400B
:10239000E695001CCAF72BD0FE2F29D0660F771FB9
:1023A000881FBB1F261737074807AB07B0E809F09F
:1023B000BB0B802DBF01FF2793585F4F3AF09E3F24
:1023C000510578F00C94A0120C94EB125F3FE4F3EB
:1023D000983ED4F3869577956795B795F7959F5F67
:1023E000C9F7880F911D9695879597F90895E1E0B3
:1023F000660F771F881FBB1F621773078407BA0712
:1024000020F0621B730B840BBA0BEE1F88F7E0956C
:1024100008950E9410126894B1110C94EB12089563
:102420000E94D01288F09F5798F0B92F9927B75182
:10243000B0F0E1F0660F771F881F991F1AF0BA9568
:10244000C9F714C0B13091F00E94EA12B1E00895CA
:102450000C94EA12672F782F8827B85F39F0B93FBC
:10246000CCF3869577956795B395D9F73EF490951B
:102470008095709561957F4F8F4F9F4F0895E89499
:1024800009C097FB3EF490958095709561957F4FBC
:102490008F4F9F4F9923A9F0F92F96E9BB2793956A
:1024A000F695879577956795B795F111F8CFFAF47A
:1024B000BB0F11F460FF1BC06F5F7F4F8F4F9F4FAB
:1024C00016C0882311F096E911C0772321F09EE809
:1024D000872F762F05C0662371F096E8862F70E06F
:1024E00060E02AF09A95660F771F881FDAF7880F49
:1024F0009695879597F90895990F0008550FAA0B9F
:10250000E0E8FEEF16161706E807F907C0F0121606
:102510001306E407F50798F0621B730B840B950B09
:1025200039F40A2661F0232B242B252B21F408955E
:102530000A2609F4A140A6958FEF811D811D0895FB
:1025400097F99F6780E870E060E008959FEF80EC66
:10255000089500240A941616170618060906089509
:1025600000240A9412161306140605060895092E6F
:102570000394000C11F4882352F0BB0F40F4BF2BDE
:1025800011F460FF04C06F5F7F4F8F4F9F4F08951E
:1025900057FD9058440F551F59F05F3F71F0479514
:1025A000880F97FB991F61F09F3F79F087950895F9
:1025B000121613061406551FF2CF4695F1DF08C018
:1025C000161617061806991FF1CF86957105610535
:1025D00008940895E894BB2766277727CB0197F9DD
:1025E00008950E947C1208F48FEF08950E94091349
:1025F0000C94B7120E94A91238F00E94B01220F079
:10260000952311F00C94A0120C94A61211240C9492
:10261000EB120E94C81270F3959FC1F3950F50E022
:10262000551F629FF001729FBB27F00DB11D639F84
:10263000AA27F00DB11DAA1F649F6627B00DA11D2A
:10264000661F829F2227B00DA11D621F739FB00DD0
:10265000A11D621F839FA00D611D221F749F332740
:10266000A00D611D231F849F600D211D822F762FD9
:102670006A2F11249F5750409AF0F1F088234AF0B6
:10268000EE0FFF1FBB1F661F771F881F9150504022
:10269000A9F79E3F510580F00C94A0120C94EB1208
:1026A0005F3FE4F3983ED4F3869577956795B795A9
:1026B000F795E7959F5FC1F7FE2B880F911D9695C3
:1026C000879597F908950E947C12880B990B0895BD
:1026D000A1E21A2EAA1BBB1BFD010DC0AA1FBB1F26
:1026E000EE1FFF1FA217B307E407F50720F0A21B98
:1026F000B30BE40BF50B661F771F881F991F1A9405
:1027000069F760957095809590959B01AC01BD012E
:10271000CF010895EE0FFF1F0590F491E02D09946D
:0E27200081E090E0F8940C949513F894FFCFAC
:10272E000000204100002041000020410000204117
:10273E0000002041E400E40001000020410F000AE7
:10274E000005000600070008000900000000004513
:10275E0003790ACC0AA40ABC0AE40A000000008D20
:10276E0001790171015D014E014D01456E636F648A
:10277E006572202B00456E636F646572202D0043D9
:10278E006F6E74726F6C6C657220636F6D6D616EBF
:10279E00643A20000D0A00436F6E74726F6C6C65A4
:1027AE00722074656D703A20005A6F6E652000209D
:1027BE0054656D703A20002743205374617475730D
:1027CE003A20004E657720646576696365207374E0
:1027DE006174653A20004E65772074656D703A20FD
:1027EE00005057520954454D50095A6F6E653109C4
:1027FE005A6F6E6532095A6F6E6533095A6F6E6580
:10280E0034095A6F6E6535005A4F4E455F52454C2E
:10281E004159094F4E09005A4F4E455F52454C41A2
:10282E0059094F464609006E616E00696E66006F6B
:10283E00766600233D3D3D3D3D3D3D3D3D3D3D3DAF
:10284E003D3D3D3D3D3D3D3D3D3D3D3D3D3D3D3DAA
:10285E003D3D3D3D3D3D3D3D3D3D3D3D3D3D3D3D9A
:10286E003D3D3D3D3D3D3D3D3D3D3D3D3D3D3D3D8A
:10287E003D3D3D3D3D3D3D3D3D3D3D3D3D3D3D3D7A
:10288E003D3D3D3D3D3D3D3D3D3D3D3D3D230023DB
:10289E0020352D5A6F6E65205761726D20466C6F14
:1028AE006F7220546865726D6F73746174207265F7
:1028BE0067756C61746F72202D207265706C616328
:1028CE00656D656E7420666F7220352078204461C8
:1028DE006E666F737320454374656D70544D204E54
:1028EE0065787420506C75732023002320202020DF
:1028FE0020202020202020202020202020202028C2
:10290E0063293230313820566C6164696D697220EA
:10291E0050616B686F6D6F76202B373930333635DB
:10292E003636343937206761334079616E646578A5
:10293E002E727520202020202020202020202020D4
:10294E002020202020230023202020202020202093
:10295E002020202020202020202020202020202069
:10296E00207370656369616C20666F72206D7920CB
:10297E006465617220426F7373205A656E6973636A
:10298E006865762049676F7229202020202020203C
:10299E002020202020202020202020202020202029
:1029AE002023002D2D2D2D2D2D2D2D2D2D2D2D2D8D
:1029BE00434C4920636F6D6D616E64732D2D2D2D0B
:1029CE002D2D2D2D2D2D2D2D2D00223022202D2083
:1029DE004465627567206F7574707574204F464636
:1029EE0000223122202D204465627567206F757498
:1029FE00707574204F4E00223222202D2053686FA6
:102A0E007720646576696365207374617465206FE1
:102A1E006E6365002D2D2D2D2D2D2D2D2D2D2D4340
:102A2E004C4920636F6D6D616E647320656E642D0D
:102A3E002D2D2D2D2D2D2D2D2D2D00486561642034
:102A4E006D6F64756C6520737461727465642E208D
:102A5E0057616974696E672032207365636F6E64A7
:102A6E00732E2E2E00526573746F7265642073651B
:102A7E007474696E67732066726F6D20454550528F
:102A8E004F4D005075736820427574746F6E2065DB
:102A9E0076656E7420747269676765726564004C42
:102AAE00696768742053656E736F722056616C751A
:102ABE0065203D20002E20427574746F6E204C6987
:102ACE00676874204F4E002E20427574746F6E200E
:102ADE004C69676874204F46460043757272656E86
:102AEE00742073657474696E6773207361766564A0
:0C2AFE0020746F20454550524F4D0000E1
:00000001FF
