:100000000C9462000C9458050C9431050C948A00F1
:100010000C948A000C948A000C948A000C948A0038
:100020000C948A000C948A000C948A000C948A0028
:100030000C948A000C948A000C948A000C948A0018
:100040000C94E7040C948A000C94700B0C94E60B4F
:100050000C948A000C948A000C948A000C948A00F8
:100060000C947F050C948A000000000025002800F5
:100070002B000000000023002600290000000008DB
:10008000000201000003040700000000000000005F
:1000900000000000240027002A00010204081020AC
:1000A000408001020408102001020408102004040A
:1000B0000404040404040202020202020303030310
:1000C0000303E41311241FBECFEFD8E0DEBFCDBF82
:1000D00016E0A0E0B1E0E4EDFDE202C005900D9273
:1000E000A433B107D9F728E0A4E3B6E001C01D921C
:1000F000A935B207E1F710E0C2E6D0E004C02197CD
:10010000FE010E94D416C136D107C9F70E94A80D7E
:100110000C94E8160C940000833081F028F48130B0
:1001200099F08230A1F008958730A9F08830B9F0B5
:100130008430D1F4809180008F7D03C08091800055
:100140008F7780938000089584B58F7702C084B53F
:100150008F7D84BD08958091B0008F7703C080911A
:10016000B0008F7D8093B00008953FB7F8948091E0
:10017000F1069091F206A091F306B091F40626B52F
:10018000A89B05C02F3F19F00196A11DB11D3FBFCF
:10019000BA2FA92F982F8827820F911DA11DB11D5D
:1001A000BC01CD0142E0660F771F881F991F4A9559
:1001B000D1F70895089585ED8093BC008091BC002F
:1001C00084FDFCCF1092F70608954091A506262FD6
:1001D00030E0240F311D21323105DCF42091F70687
:1001E0002430C9F4FC0180E090E0861758F4309187
:1001F000A5062191DC01AB57B94FA30FB11D2C937C
:100200000196F3CF8091A506680F6093A50680E064
:10021000089581E0089582E00895E0910207F09149
:100220000307309729F01092F9061092F806099406
:100230000895CF93DF93AC01E0910007F09101079F
:100240003097F1F09091FB068091FA069817C0F074
:1002500090E0292F30E02617370754F4D901AB5925
:10026000B94FEA01C20FD31F88818C939F5FF1CFF2
:100270001092FB066093FA06CB01DF91CF910994AF
:10028000DF91CF9108950895E091FB068091FA06E1
:10029000E81730F4F0E0EB59F94F808190E00895D1
:1002A0008FEF9FEF08959091FB068091FA069817C3
:1002B00050F4E92FF0E0EB59F94F208130E09F5FD7
:1002C0009093FB0602C02FEF3FEFC9010895809184
:1002D000FA0690E02091FB06821B91090895CF93C6
:1002E000DF9300D0CDB7DEB7CB01642F49835A83AB
:1002F0000E94E5004981842F5A81952F0F900F901D
:10030000DF91CF910895CF93DF931F92CDB7DEB7E2
:10031000698361E0CE0101960E94E50081E090E0F2
:100320000F90DF91CF9108958F929F92AF92BF92DD
:10033000EF92FF920F931F93CF93DF93E12CF12C59
:10034000C0E0D0E0812C912C54018701000F111FD7
:10035000000F111F00501F4FF801608171818281D1
:10036000938120E030E04CE652E40E94DC1487FFE9
:100370000EC0F801608171818281938120E030E0BC
:1003800040E151EC0E943B1618160CF485C0FFEFBB
:10039000EF1AFF0A85E0E816F104B9F62097D1F0CC
:1003A000BE01DD0F880B990B0E948B159B01AC01E0
:1003B000C501B4010E94E1148B01D82FC92F5B0144
:1003C000E82EF92E20E030E0A9010E943B1687FFBD
:1003D00005C00DC0A12CB12CE12CF12C20E030E0A7
:1003E00040E05FE3B501C7010E94701409C020E03E
:1003F00030E040E05FE3B8018D2F9C2F0E946F1426
:100400000E945315D62F6091190170911A018091A5
:100410001B0190911C0120E030E0A9010E943B16D5
:1004200087FD0FC06091190170911A0180911B0125
:1004300090911C0120E030E040E05FE30E947014E6
:100440000EC06091190170911A0180911B01909169
:100450001C0120E030E040E05FE30E946F140E9446
:100460005315C62F6D2F8DE498E00E9483016C2FE9
:100470008DE498E00E948301609110078DE498E07C
:10048000DF91CF911F910F91FF90EF90BF90AF90B0
:100490009F908F900C948301F801208131814281DB
:1004A0005381C501B4010E9470144B015C01219677
:1004B0006ECF8EBD00000DB407FEFDCF8EB5089542
:1004C0000E945902E3E2F0E03197F1F70895EF92CC
:1004D000FF920F931F93CF93DF93EC0181E0888FFE
:1004E0009C8D8D8D981305C0E889F989808185FDE3
:1004F0002AC0F62E0C8D10E00F5F1F4F0F731127CF
:10050000E02E8D8DE8120CC00FB607FCFACFE889FB
:10051000F989808185FFF5CFCE010E94B90BF1CF1B
:100520002C8DCE01820F911D820F911DFC01E25690
:10053000FF4F6F2D70E0718360830C8FEA89FB8918
:10054000808180620CC0EA89FB8980818E7F8083F4
:10055000EE89FF896083E889F989808180648083DE
:1005600081E090E0DF91CF911F910F91FF90EF908C
:100570000895F89489B18C7080933806809138067C
:100580008C3021F480913706811109C080913806A2
:10059000883019F481E0809336067894089580912C
:1005A000100790911107892BB1F18BE591E00E9422
:1005B0008C0C6091190170911A0180911B0190912E
:1005C0001C0120E030E040E05FE30E947014609383
:1005D000190170931A0180931B0190931C01609183
:1005E000190170911A0180911B0190911C0120E06A
:1005F00030E044E352E40E943B16181664F480E0B5
:1006000090E0A4E3B2E48093190190931A01A093BF
:100610001B01B0931C011092370610923606BDCF15
:10062000F89489B18C7080933806809138068C30AC
:1006300021F480913606811109C0809138068430FA
:1006400019F481E08093370678940895809110071B
:1006500090911107892BB1F185E691E00E948C0CF5
:100660006091190170911A0180911B0190911C01F8
:1006700020E030E040E05FE30E946F1460931901D6
:1006800070931A0180931B0190931C0160911901D2
:1006900070911A0180911B0190911C0120E030E0C3
:1006A00040E251E40E94DC1487FF0CC080E090E03F
:1006B000A0E2B1E48093190190931A01A0931B0169
:1006C000B0931C011092370610923606BDCFCF931F
:1006D000DF93282F30E0F901E458FF4F8491F901AE
:1006E000E656FF4FD491F901E255FF4FC491CC2358
:1006F00091F081110E948C00EC2FF0E0EE0FFF1FB3
:10070000EE58FF4FA591B491EC91ED2381E090E07C
:1007100021F480E002C080E090E0DF91CF91089565
:100720001F93CF93DF93282F30E0F901E458FF4F58
:100730008491F901E656FF4FD491F901E255FF4F3C
:10074000C491CC23C9F0162F81110E948C00EC2F8C
:10075000F0E0EE0FFF1FE859FF4FA591B4918FB75E
:10076000F894111105C09C91ED2FE095E92302C08A
:10077000EC91ED2BEC938FBFDF91CF911F910895FA
:100780000F931F93CF93DF93029709F099C08DE4E5
:1007900098E00E9453018C018DE498E00E9453017F
:1007A00090933506809334068230910540F0809115
:1007B000340690913506039709F082C028C09093C3
:1007C0001107809310078FE691E00E94D20C609190
:1007D000100770911107072E000C880B990B0E94CF
:1007E0009A0C84E891E00E94390C80911007909156
:1007F0001107892BE1F6C1E3D1E08881229660E000
:100800000E94900381E0CB33D807B9F7D0CFB8016D
:10081000110F880B990B0E948B156093190170932F
:100820001A0180931B0190931C0187E891E00E94BC
:10083000D20C6091190170911A0180911B01909165
:100840001C0140E00E94D40C84E891E00E94390C25
:100850006091190170911A0180911B0190911C0106
:1008600020E030E044E352E40E943B16181664F4A2
:1008700080E090E0A4E3B2E48093190190931A0120
:10088000A0931B01B0931C016091190170911A0192
:1008900080911B0190911C0120E030E040E251E486
:1008A0000E94DC1487FF0CC080E090E0A0E2B1E47D
:1008B0008093190190931A01A0931B01B0931C011E
:1008C000DF91CF911F910F910895CF93DF9390E027
:1008D000FC01E656FF4F2491FC01E255FF4F849145
:1008E000882361F190E0880F991FFC01E057FF4FCA
:1008F000C591D491FC01E859FF4FA591B4916111C4
:1009000009C09FB7F8948881209582238883EC9151
:100910002E230BC0623061F49FB7F8943881822F88
:10092000809583238883EC912E2B2C939FBF06C048
:100930008FB7F894E8812E2B28838FBFDF91CF915A
:1009400008958F929F92AF92BF92CF92DF92EF92D3
:10095000FF926B017C010E94B5004B015C01C11448
:10096000D104E104F104F1F00E94B500DC01CB01F7
:1009700088199909AA09BB09883E9340A105B105C8
:1009800070F321E0C21AD108E108F10888EE880E60
:1009900083E0981EA11CB11CC114D104E104F10430
:1009A00019F7DDCFFF90EF90DF90CF90BF90AF9021
:1009B0009F908F9008952FB7F8946091ED067091F5
:1009C000EE068091EF069091F0062FBF08951F92DA
:1009D0000F920FB60F9211242F933F938F939F93F3
:1009E000AF93BF938091ED069091EE06A091EF0634
:1009F000B091F0063091EC0623E0230F2D3720F460
:100A00000196A11DB11D05C026E8230F0296A11D68
:100A1000B11D2093EC068093ED069093EE06A09313
:100A2000EF06B093F0068091F1069091F206A09146
:100A3000F306B091F4060196A11DB11D8093F10655
:100A40009093F206A093F306B093F406BF91AF9192
:100A50009F918F913F912F910F900FBE0F901F90FC
:100A600018951F920F920FB60F9211242F933F9358
:100A70004F935F936F937F938F939F93AF93BF93A6
:100A8000EF93FF93E0911601F09117010995FF9103
:100A9000EF91BF91AF919F918F917F916F915F91F6
:100AA0004F913F912F910F900FBE0F901F9018956F
:100AB0001F920F920FB60F9211242F933F934F93D3
:100AC0005F936F937F938F939F93AF93BF93EF93B6
:100AD000FF93E0911401F09115010995FF91EF91B9
:100AE000BF91AF919F918F917F916F915F914F9146
:100AF0003F912F910F900FBE0F901F9018951F924E
:100B00000F920FB60F9211242F933F934F935F9341
:100B10006F937F938F939F93AF93BF93EF93FF93C5
:100B20008091B900887F803609F49CC068F58832CE
:100B300009F45BC090F4803109F454C038F4882380
:100B400009F4F6C0883009F44DC0F6C0883109F4C4
:100B50004CC0803209F45DC0EFC0803409F468C035
:100B600048F4803309F455C0883309F0E5C0809318
:100B7000C806D8C0803509F44FC0883509F45DC077
:100B8000883409F0D9C0D6C0883909F4C7C0A8F4A0
:100B9000883709F467C038F4883609F463C08037B1
:100BA00009F460C0C9C0883809F4B8C0803909F4B4
:100BB0005FC0803809F0C0C05BC0803B09F486C0CC
:100BC00038F4803A09F466C0883A09F47FC0B4C0AA
:100BD000803C09F4A7C0883C09F4A4C0883B09F410
:100BE0008AC0AAC08091EB0610C09091EA0680915D
:100BF000E906981770F5E091EA0681E08E0F809380
:100C0000EA06F0E0E753F94F80818093BB0085EC62
:100C100086C08093C8068EC0E091EA0681E08E0F00
:100C20008093EA068091BB00F0E0E753F94F8083A0
:100C30009091EA068091E9066EC0E091EA0681E0B3
:100C40008E0F8093EA068091BB00F0E0E753F94FE6
:100C500080838091F60681116DC081E08093F50656
:100C600084EA61C083E08093F7061092C706CFCF75
:100C70008091C706803208F051C0E091C70681E03C
:100C80008E0F8093C7068091BB00F0E0E955F94FC5
:100C90008083BDCF85EC8093BC001092F7068091D5
:100CA000C706803230F4E091C706F0E0E955F94F0D
:100CB00010826091C70670E0E091FC06F091FD069D
:100CC00087EA96E009951092C70636C084E08093C3
:100CD000F7061092A6061092A506E091FE06F09186
:100CE000FF0609958091A506811105C081E08093DA
:100CF000A50610928506E091A60681E08E0F8093EE
:100D0000A606F0E0EB57F94F80818093BB009091ED
:100D1000A6068091A506981708F479CF85E88093F8
:100D2000BC000AC085EC8093BC001092F70604C09A
:100D30001092C8060E94DB00FF91EF91BF91AF9126
:100D40009F918F917F916F915F914F913F912F91E3
:100D50000F900FBE0F901F9018950C9461140C9477
:100D600059142F923F924F925F926F927F928F927F
:100D70009F92AF92BF92CF92DF92EF92FF920F932A
:100D80001F93CF93DF93CDB7DEB764970FB6F89478
:100D9000DEBF0FBECDBF60E08FE00E949003809168
:100DA00054060E94600245E5E42E46E0F42E8E01D2
:100DB0000F5F1F4F6E0181E1C80ED11CF7018191B9
:100DC0007F010E946002F80181938F01EC15FD05FF
:100DD000A9F7809110070E946002898B809110070B
:100DE0000E9460028A8B809110070E9460028B8BA8
:100DF000809110070E9460028C8B61E08FE00E945E
:100E0000900361E070E080E090E00E94A104FE01A8
:100E1000349680E090E0DF0113972C9120935006E8
:100E200011962C912093510611962C9120935206E5
:100E300020812093530640915006509151066091B5
:100E4000520670915306DC01AA0FBB1FAA0FBB1FED
:100E5000A050BF4F4D935D936D937C931397019674
:100E6000349685309105B9F680911007909111075D
:100E7000892B09F451C121E3A22E21E0B22EE12CED
:100E8000F12C6701CC0CDD1CCC0CDD1CC6018050A4
:100E90009F4F4C01FC016081718182819381209080
:100EA000190130901A0140901B0150901C0120E064
:100EB00030E040E251E40E9440160E9453153B018D
:100EC00020E030E040E05FE3C201B1010E94701415
:100ED00020E030E040E251E40E9440160E945315A9
:100EE0008701000F111F66167706DCF4F40160819C
:100EF00071818281938120E030E04CE652E40E94CF
:100F00003B1687FF0EC0F40160817181828193815D
:100F100020E030E040E251EC0E94DC1418160CF4A2
:100F200042C0F5019080892D0E946703892BD9F179
:100F30000A5B194FF801208131812F5F3F4F3183C8
:100F4000208380819181039709F0E6C060E0892DBC
:100F50000E949003F801118210828091180781117C
:100F6000DBC089E991E00E94D20CB7016F5F7F4F2F
:100F7000072E000C880B990B0E949A0C8FE991E0C8
:100F80000E94D20CF601E050FF4F60817181828196
:100F9000938141E00E94D40C87EA91E00E94D20C38
:100FA00081E096E08AC0C60180509F4F6C01FC0131
:100FB00060817181828193814090190150901A0162
:100FC00060901B0170901C0120E030E040E251E491
:100FD0000E9440160E9453154B0120E030E040E093
:100FE0005FE3C301B2010E946F1420E030E040E2F1
:100FF00051E40E9440160E945315681579050CF4BF
:1010000076C0F601608171818281938120E030E0B9
:1010100040E251EC0E943B1618160CF068C0F50136
:101020009080892D0E946703892B09F060C0F6012A
:10103000608171818281938120E030E040E351EC56
:101040000E943B1618160CF052C0045C194FF801B0
:10105000208131812F5F3F4F3183208380819181B7
:10106000039709F059C061E0892D0E949003F801AF
:10107000118210828091180781114EC089E991E098
:101080000E94D20CB7016F5F7F4F072E000C880BB8
:10109000990B0E949A0C8FE991E00E94D20CF60104
:1010A000608171818281938141E00E94D40C87EA42
:1010B00091E00E94D20C8FEE95E064960FB6F89402
:1010C000DEBF0FBECDBFDF91CF911F910F91FF907B
:1010D000EF90DF90CF90BF90AF909F908F907F90D8
:1010E0006F905F904F903F902F900C948C0CF80174
:1010F000EA5BF94F11821082F801E45CF94F11822A
:101100001082FFEFEF1AFF0A82E0A80EB11C95E0F3
:10111000E916F10409F0B5CE64960FB6F894DEBF77
:101120000FBECDBFDF91CF911F910F91FF90EF9038
:10113000DF90CF90BF90AF909F908F907F906F90F7
:101140005F904F903F902F9008954F925F926F92D3
:101150007F928F929F92AF92BF92CF92DF92EF9247
:10116000FF92CF93DF930E94DB0460930C07709390
:101170000D0780930E0790930F071092180160914E
:101180001407709115078091160790911707209109
:10119000190130911A0140911B0150911C010E94CC
:1011A000DC14882329F080911807882309F4D9C01A
:1011B0002091120730911307809110079091110729
:1011C00028173907A9F080911807811111C083EB06
:1011D00091E00E94D20C8091100790911107892B09
:1011E00019F080EF95E002C082E096E00E948C0C3E
:1011F0008091190190911A01A0911B01B0911C01DD
:101200008093140790931507A0931607B0931707C0
:101210008091100790911107909313078093120704
:101220006091190170911A0180911B0190911C012C
:1012300020E030E040E251E40E94E1140E945315A6
:101240004B015C0160933906C0901901D0901A01DE
:10125000E0901B01F0901C01CB0199272AE0289F08
:10126000B001299F700D1124072E000C880B990BDB
:101270000E948B152B013C019B01AC01C701B601FB
:101280000E946F140E9453156B017C0160933A0613
:101290006091190170911A0180911B0190911C01BC
:1012A000A30192010E946F142B013C01B601772724
:1012B000072E000C880B990B0E948B159B01AC012B
:1012C000C301B2010E946F1420E030E040E251E41B
:1012D0000E9440160E945315762E60933B0660E0F4
:1012E0008AE00E94900361E070E080E090E00E945C
:1012F000A104882D0E945902C3E2D0E0CE010197DB
:10130000F1F78C2D0E945902CE010197F1F7872D3C
:101310000E945902CE010197F1F7809110070E94B7
:101320005902CE010197F1F78DE00E9459022197F1
:10133000F1F761E08AE00E94900361E070E080E0F4
:1013400090E0DF91CF91FF90EF90DF90CF90BF9032
:10135000AF909F908F907F906F905F904F900C9484
:10136000A10486EC91E00E94D20C60911901709169
:101370001A0180911B0190911C0141E00E94D40C44
:1013800084E891E00E94390C13CFCF93DF9381ED75
:1013900091E00E948C0C8091100790911107892B8D
:1013A00019F080EF95E002C082E096E00E94D20C36
:1013B00085E192E00E94D20C6091190170911A01AE
:1013C00080911B0190911C0141E00E94D40CC0E06F
:1013D000D0E085E192E00E94D20CFE01EE0FFF1FEB
:1013E000EE0FFF1FE050FF4F60817181828193817A
:1013F00041E00E94D40C2196C530D10551F784E814
:1014000091E00E94390C85E00E946703892B19F056
:1014100088EF91E002C087E092E00E94D20C86E063
:101420000E946703892B19F083E092E002C082E1F9
:1014300092E00E94D20C87E00E946703892B19F08A
:1014400083E092E002C082E192E00E94D20C88E048
:101450000E946703892B19F083E092E002C082E1C9
:1014600092E00E94D20C89E00E946703892B19F058
:1014700083E092E002C082E192E00E948C0C0E9424
:10148000DB04609308077093090780930A07909321
:101490000B07DF91CF9108958091290130912A01A6
:1014A00020912B0190912C01309305072093060782
:1014B00090930707E4E5F6E0A4E0B7E08083119697
:1014C0008C911197818312968C9112978283139637
:1014D0008C9113978383809125013091260120916F
:1014E00027019091280130930507209306079093D8
:1014F0000707848311968C911197858312968C919E
:101500001297868313968C911397878380911D0180
:1015100030911E0120911F01909120013093050709
:101520002093060790930707808711968C91119757
:10153000818712968C911297828713968C911397BC
:101540008387809121013091220120912301909184
:101550002401809304073093050720930607909396
:101560000707848711968C911197858712968C9125
:101570001297868713968C91878780911007808BAE
:1015800010921801089587E192E00E94D20C6091B8
:10159000290170912A0180912B0190912C010E94C8
:1015A000C40C84E292E00E94D20C609125017091FB
:1015B000260180912701909128010E94C40C8CE3A0
:1015C00092E00E94D20C60912101709122018091E1
:1015D0002301909124010E94C40C8DE492E00E94AA
:1015E000D20C60911D0170911E0180911F0190919C
:1015F00020010C94C40CCF92DF92EF92FF920F93D4
:101600001F93CF93DF936C017A018B01C0E0D0E090
:10161000CE15DF0589F0D8016D918D01D601ED91D0
:10162000FC910190F081E02DC6010995892B11F400
:101630007E0102C02196ECCFC701DF91CF911F91AF
:101640000F91FF90EF90DF90CF900895FC01928D65
:10165000838D981781F0838DDF01A80FB11DA80F2E
:10166000B11D5E968C915E975F969C91238D2F5F46
:101670002F73238F08958FEF9FEF0895FC01928DB4
:10168000838D981741F0838DE80FF11DE80FF11D50
:10169000868D978D08958FEF9FEF0895FC01928DB1
:1016A000238D892F90E0805C9F4F821B91098F735F
:1016B000992708958FE297E00E944E0B21E0892B35
:1016C00009F420E0822F089580E090E0892B29F032
:1016D0000E945A0B81110C94000008950E94DA16A2
:1016E0001F920F920FB60F9211242F933F938F9357
:1016F0009F93AF93BF93EF93FF93E0913F07F091D8
:1017000040078081A0914107B0914207E0914507D1
:10171000F091460782FD1EC08C91308120914907CF
:101720002F5F2F7390914A072917B1F0E091490775
:10173000827090E09695982F882797958795F0E08E
:10174000EE0FFF1FE35BF84F832B91838083209381
:10175000490702C08C918081FF91EF91BF91AF91B9
:101760009F918F913F912F910F900FBE0F901F90DF
:101770001895FC01258D820F911D820F911DDC01B2
:10178000A256BF4F2D913C91858D90E001968F73AD
:101790009927858FA289B3898C9130FF02C081601F
:1017A00001C08E7F8C93A689B7892C93A089B189BB
:1017B0008C9180648C93948D858D981306C00288DB
:1017C000F389E02D80818F7D808308951F920F9291
:1017D0000FB60F9211242F933F934F935F936F9304
:1017E0007F938F939F93AF93BF93EF93FF938FE27A
:1017F00097E00E94B90BFF91EF91BF91AF919F913C
:101800008F917F916F915F914F913F912F910F90A9
:101810000FBE0F901F901895CF93DF93EC01888D2A
:101820008823C9F0EA89FB89808185FD05C0A889E4
:10183000B9898C9186FD0FC00FB607FCF5CF80816A
:1018400085FFF2CFA889B9898C9185FFEDCFCE01B4
:101850000E94B90BE7CFDF91CF910895E0912F0758
:10186000F09130070190F081E02D682F8FE297E032
:101870000994009769F0FC0101900020E9F7319785
:10188000AF01481B590BBC018FE297E00C94FB0A97
:1018900080E090E008958F929F92AF92BF920F9355
:1018A0001F93CF93DF93CDB7DEB7A1970FB6F89410
:1018B000DEBF0FBECDBF19A2423008F44AE08E0150
:1018C0000F5D1F4F842E912CA12CB12CA5019401EA
:1018D0000E94B216E62FB901CA0101501109EA307F
:1018E00014F4E05D01C0E95CD801EC93232B242BB8
:1018F000252B61F7C8010E94390CA1960FB6F89408
:10190000DEBF0FBECDBFDF91CF911F910F91BF9072
:10191000AF909F908F900895CF93DF930E94390CE2
:10192000EC0184E891E00E94390C8C0F9D1FDF913F
:10193000CF910895CF92DF92EF92FF92CF93DF93F2
:1019400097FF19C06B017C018DE20E942E0CEC0107
:1019500066277727CB016C197D098E099F094AE01C
:101960000E944B0C8C0F9D1FDF91CF91FF90EF9049
:10197000DF90CF9008954AE0DF91CF91FF90EF90F4
:10198000DF90CF900C944B0CCF93DF930E949A0C76
:10199000EC0184E891E00E94390C8C0F9D1FDF91CF
:1019A000CF9108950C94390C4F925F926F927F9271
:1019B0008F929F92AF92BF92CF92DF92EF92FF925F
:1019C0006B017C01B42E9B01AC010E94AD168823F3
:1019D00019F087E296E027C026013701E89477F8EE
:1019E0002FEF3FEF4FE75FE7C301B2010E94AD1653
:1019F00081110DC02FEF3FEF4FE75FE7C301B20149
:101A00000E94DC1418161CF48BE296E00CC02FEF39
:101A10003FEF4FE75FE4C701B6010E943B1618167F
:101A200084F48FE296E0FF90EF90DF90CF90BF902C
:101A3000AF909F908F907F906F905F904F900C949D
:101A4000390C2FEF3FEF4FE75FECC701B6010E9463
:101A5000DC1487FDE6CF20E030E0A901C701B60124
:101A60000E94DC1487FF09C08DE20E942E0C4C01FD
:101A7000F7FAF094F7F8F09402C0812C912CA12C85
:101A800060E070E080E09FE3AB1441F020E030E0E4
:101A900040E251E40E94E114A394F6CF9B01AC0113
:101AA000C701B6010E9470142B013C010E945A1517
:101AB0006B017C010E9489159B01AC01C301B2013D
:101AC0000E946F142B013C014AE0C701B6010E943D
:101AD0004B0C7C01E80CF91CBB2029F08EE20E9423
:101AE0002E0CE80EF91EDB2CDD2021F120E030E089
:101AF00040E251E4C301B2010E9440162B013C01B7
:101B00000E945A154B01A12CB12C4AE0C501B40129
:101B10000E944B0CE80EF91EC501B4010E94891504
:101B20009B01AC01C301B2010E946F142B013C0167
:101B3000DA94DACFC701FF90EF90DF90CF90BF909B
:101B4000AF909F908F907F906F905F904F9008958F
:101B5000CF93DF93CDB7DEB7789484B5826084BD30
:101B600084B5816084BD85B5826085BD85B58160A1
:101B700085BD80916E00816080936E00109281001F
:101B800080918100826080938100809181008160DA
:101B9000809381008091800081608093800080919B
:101BA000B10084608093B1008091B0008160809327
:101BB000B00080917A00846080937A0080917A00EE
:101BC000826080937A0080917A00816080937A00AD
:101BD00080917A00806880937A001092C100E09131
:101BE0003F07F091400782E08083E0913B07F0914E
:101BF0003C071082E0913D07F0913E078FEC808317
:101C000010924707E0914307F091440786E08083F4
:101C1000E0914107F0914207808180618083E091EB
:101C20004107F0914207808188608083E0914107FD
:101C3000F0914207808180688083E0914107F091B4
:101C4000420780818F7D808310924807E091410791
:101C5000F091420780818B7F808388E592E00E942B
:101C60008C0C84EB92E00E948C0C80E193E00E944B
:101C70008C0C8CE693E00E948C0C88E592E00E942C
:101C80008C0C86E192E00E948C0C88EC93E00E9420
:101C90008C0C8FEE93E00E948C0C86E094E00E9406
:101CA0008C0C8CE194E00E948C0C89E394E00E94FF
:101CB0008C0C8BE594E00E948C0C8FE794E00E94E2
:101CC0008C0C86E192E00E948C0C86EA94E00E94E3
:101CD0008C0C60ED77E080E090E00E94A10460E071
:101CE00080E10E94650462E08EE00E94650461E08C
:101CF00081E10E94650461E085E00E94650461E085
:101D000086E00E94650461E087E00E94650461E06E
:101D100088E00E94650461E089E00E94650462E059
:101D200082E00E94650462E083E00E94650480E135
:101D300093E0909315018093140180916900836072
:101D400080936900E89A89EB92E090931701809361
:101D50001601809169008C6080936900E99A61E0C6
:101D60008AE00E94650461E08AE00E94900361E0DD
:101D70008FE00E94650461E08FE00E9490031FB72E
:101D8000F89480911907811127C0E8EBF0E0849165
:101D9000E4EAF0E09491E82FF0E0EE0FFF1FE05747
:101DA000FF4FA591B491EC91E92321F461E08AE021
:101DB0000E94900361E08AE00E9465048CB5806116
:101DC0008CBD8CB580648CBD61E08DE00E946504A3
:101DD00061E08BE00E946504809119078F5F80931A
:101DE00019071FBF8CB58C7F81608CBD8DB581605C
:101DF0008DBD80E090E00E94AF06082F81E090E06A
:101E00000E94AF06182F602F70E080E090E00E94E3
:101E10008B154B015C01612F70E080E090E00E9427
:101E20008B152DEC3CEC4CEC5DE30E9440169B01C5
:101E3000AC01C501B4010E94701460931901709344
:101E40001A0180931B0190931C0182E090E00E9494
:101E5000AF068093040783E090E00E94AF06809372
:101E6000050784E090E00E94AF068093060785E0B6
:101E700090E00E94AF06809306078091040790913E
:101E80000507A0910607B091070780932901909359
:101E90002A01A0932B01B0932C0186E090E00E94D0
:101EA000AF068093040787E090E00E94AF0680931E
:101EB000050788E090E00E94AF068093060789E05E
:101EC00090E00E94AF0680930607809104079091EE
:101ED0000507A0910607B09107078093250190930D
:101EE0002601A0932701B09328018AE090E00E9488
:101EF000AF06809304078BE090E00E94AF068093CA
:101F000005078CE090E00E94AF06809306078DE005
:101F100090E00E94AF06809306078091040790919D
:101F20000507A0910607B0910707809321019093C0
:101F30002201A0932301B09324018EE090E00E943F
:101F4000AF06809304078FE090E00E94AF06809375
:101F5000050780E190E00E94AF068093060781E1CB
:101F600090E00E94AF06809306078091040790914D
:101F70000507A0910607B091070780931D01909374
:101F80001E01A0931F01B09320016091190170916F
:101F90001A0180911B0190911C0120E030E044E384
:101FA00052E40E943B16181664F480E090E0A4E32B
:101FB000B2E48093190190931A01A0931B01B0938E
:101FC0001C016091190170911A0180911B0190917F
:101FD0001C0120E030E040E251E40E94DC1487FF65
:101FE0000CC080E090E0A0E2B1E4809319019093EE
:101FF0001A01A0931B01B0931C0182E090E00E94A3
:10200000AF0690E0909311078093100780ED94E065
:102010000E948C0C0E94C30A0E944C0A0E94A508D0
:1020200011E0109318010E94B1060E94C50986E6CE
:102030008093BA008DE091E09093FF068093FE06B6
:1020400089E191E09093FD068093FC061092FB06D7
:102050001092FA061092F9061092F8061092F706FE
:102060001093F6061092F50661E082E10E9490035B
:1020700061E083E10E9490038091B9008E7F80939C
:10208000B9008091B9008D7F8093B90088E4809376
:10209000B80085E48093BC0080EC93E09093010746
:1020A0008093000784E991E09093030780930207EF
:1020B00082E4D82E8FE297E00E944E0B892B09F420
:1020C0007EC000912D0710912E078FE297E0011539
:1020D0001105A9F50E94260B813341F48CE094E0B0
:1020E0000E948C0C81E08093180769C0803339F41A
:1020F00085EF93E00E948C0C1092180760C0823329
:1021000039F48091180781115AC00E94C50957C03F
:10211000833379F48EEE94E00E948C0C81E095E09C
:102120000E948C0C81E090E090932E0780932D0705
:1021300072C1843309F043C00E94C30A40C00E94A8
:10214000260B8D3009F06AC120912B0730912C07A6
:10215000121613060CF472C161C1033011050CF0A4
:10216000ADC10130110531F5C7010E941D14609306
:10217000290170932A0180932B0190932C0187E110
:1021800092E00E94D20C6091290170912A01809105
:102190002B0190912C010E94C40C8AE195E00E94D1
:1021A0008C0C80912D0790912E07019690932E070D
:1021B00080932D070FB6F894BEBE0FBEADBEF89447
:1021C0008EE00E94670320912407892BD9F5211105
:1021D0003CC080911A0790911B07019690931B07B2
:1021E00080931A0780911A0790911B07819768F1D5
:1021F00081E02091100730911107232B09F080E036
:10220000282F30E03093110720931007882361F0C6
:1022100010921B0710921A0781E0809324078FEA1F
:1022200095E00E948C0C11C001E311E0F80180815F
:102230000E5F1F4F60E00E949003F1E00B331F0719
:10224000A9F7E6CF2111109224076091140770912D
:102250001507809116079091170720911901309169
:102260001A0140911B0150911C010E94DC14811144
:102270006CC1209112073091130780911007909143
:1022800011072817390709F060C10E94DB0400918B
:102290000C0710910D0720910E0730910F07601762
:1022A00071078207930740F410920C0710920D07F4
:1022B00010920E0710920F070E94DB0400910C078A
:1022C00010910D0720910E0730910F07DC01CB0113
:1022D000801B910BA20BB30B81319742A105B10575
:1022E00008F04DC10E94DB040091200710912107E6
:1022F0002091220730912307601771078207930707
:1023000040F4109220071092210710922207109299
:1023100023070E94DB0400912007109121072091E0
:10232000220730912307DC01CB01801B910BA20B0C
:10233000B30B893E9340A105B10508F450C00E943B
:10234000B106D0927C0080917A00806480937A00FC
:1023500080917A0086FDFCCF009178008091790011
:1023600010E0182B033311050CF0F1C181E10E943C
:102370006703892B09F0F3C180911E0790911F0715
:10238000019690931F0780931E0780911E079091DE
:102390001F070397D1F461E081E10E94900310923E
:1023A0001F0710921E078091180781110EC08BEC39
:1023B00095E00E94D20CB801110F880B990B0E9476
:1023C0009A0C81EE95E00E948C0C0E94DB046093D5
:1023D00020077093210780932207909323070E9480
:1023E000DB04009108071091090720910A0730913A
:1023F0000B07601771078207930740F410920807D4
:102400001092090710920A0710920B078091180783
:1024100081119EC078940E94640B4CCE20912B07B2
:1024200030912C07A9014F5F5F4F50932C074093C9
:102430002B07F901EB5DF84F8083C1CEADB6BEB678
:1024400080912B0790912C0701972DB73EB7281B41
:10245000390B0FB6F8943EBF0FBE2DBF8DB79EB798
:1024600001967C0140912B0750912C0765E277E0A3
:102470000E94DF1610922C0710922B0702301105D4
:1024800009F06BCEC7010E941D1460932501709363
:102490002601809327019093280184E292E00E9414
:1024A000D20C6091250170912601809127019091B5
:1024B00028010E94C40C84E495E071CE033011051C
:1024C000E1F4C7010E941D14609321017093220161
:1024D00080932301909324018CE392E00E94D20C1C
:1024E000609121017091220180912301909124013A
:1024F0000E94C40C87E695E052CE0430110509F025
:1025000059CEC7010E941D1460931D0170931E01D6
:1025100080931F01909320018DE492E00E94D20CE1
:1025200060911D0170911E0180911F019091200109
:102530000E94C40C83E895E00E948C0C10922E0738
:1025400010922D070E944C0A35CE0E94A508CACED3
:102550000E94DB04009108071091090720910A07E7
:1025600030910B07DC01CB01801B910BA20BB30B4D
:10257000893E9340A105B10508F023C14BCF80915E
:1025800018018111AFCE6091190170911A018091EB
:102590001B0190911C010E94531580E090E00E9465
:1025A000AD068090190190901A01A0901B01B09087
:1025B0001C016091190170911A0180911B01909189
:1025C0001C010E945315072E000C880B990B0E94CA
:1025D0008B159B01AC01C501B4010E946F1420E072
:1025E00030E040E251E40E9440160E94531581E021
:1025F00090E00E94AD066091100782E090E00E949A
:10260000AD068091290130912A0120912B019091F2
:102610002C01682F80930407309305072093060749
:102620009093070782E090E00E94AD066091050755
:1026300083E090E00E94AD066091060784E090E0A0
:102640000E94AD066091070785E090E00E94AD060C
:102650008091250130912601209127019091280138
:10266000682F809304073093050720930607909303
:10267000070786E090E00E94AD066091050787E0BD
:1026800090E00E94AD066091060788E090E00E940D
:10269000AD066091070789E090E00E94AD06809149
:1026A0002101309122012091230190912401682F72
:1026B000809304073093050720930607909307073C
:1026C0008AE090E00E94AD06609105078BE090E003
:1026D0000E94AD06609106078CE090E00E94AD0676
:1026E000609107078DE090E00E94AD0680911D018A
:1026F00030911E0120911F0190912001682F80933D
:1027000004073093050720930607909307078EE090
:1027100090E00E94AD06609105078FE090E00E9476
:10272000AD066091060780E190E00E94AD066091E1
:10273000070781E190E00E94AD060E944C0A81E00B
:102740008093180186E096E00E948C0CCBCD0C3370
:1027500011052CF081E10E946703892B49F4109246
:102760001F0710921E0710921D0710921C072DCEF6
:1027700080911C0790911D07019690931D078093EF
:102780001C0780911C0790911D07039709F01DCE2F
:1027900060E081E10E94900310921D0710921C07D7
:1027A00080911807811111CE8BEC95E00E94D20C1C
:1027B000B801110F880B990B0E949A0C83EF95E0DA
:1027C00002CE0E94C50926CEEFE2F7E01382128204
:1027D00088EE93E0A0E0B0E084839583A683B7837E
:1027E0002FE331E03183208325EC30E035872487E7
:1027F00024EC30E03787268720EC30E0318B208BCB
:1028000021EC30E0338B228B22EC30E0358B248BB3
:1028100026EC30E0378B268B128E138E148E158E9D
:10282000EDE4F8E01382128284839583A683B78354
:102830008FE491E09183808308951F93FC01992791
:102840008827BC01E89411911032E9F3193010F097
:102850001E30C8F31B3251F01D3249F4689406C093
:102860000E944414610F711D811D911D119110531F
:102870001A30B0F33EF490958095709561957F4F36
:102880008F4F9F4F1F910895592F482F372F262F75
:10289000660F771F881F991F660F771F881F991F64
:1028A000620F731F841F951F660F771F881F991F64
:1028B0000895F999FECF92BD81BDF89A992780B508
:1028C0000895262FF999FECF1FBA92BD81BD20BD74
:1028D0000FB6F894FA9AF99A0FBE019608955058D7
:1028E000BB27AA270E9487140C9401160E94F31597
:1028F00038F00E94FA1520F039F49F3F19F426F4BD
:102900000C94F0150EF4E095E7FB0C94EA15E92F12
:102910000E94121658F3BA176207730784079507C7
:1029200020F079F4A6F50C9434160EF4E0950B2EF5
:10293000BA2FA02D0B01B90190010C01CA01A00111
:102940001124FF27591B99F0593F50F4503E68F16C
:102950001A16F040A22F232F342F4427585FF3CFAD
:10296000469537952795A795F0405395C9F77EF47E
:102970001F16BA0B620B730B840BBAF09150A1F0C7
:10298000FF0FBB1F661F771F881FC2F70EC0BA0F4D
:10299000621F731F841F48F4879577956795B795D5
:1029A000F7959E3F08F0B0CF9395880F08F09927D0
:1029B000EE0F9795879508950E94C61508F481E05B
:1029C00008950E94F5140C9401160E94FA1558F00F
:1029D0000E94F31540F029F45F3F29F00C94EA15AA
:1029E00051110C9435160C94F0150E94121668F3D0
:1029F0009923B1F3552391F3951B550BBB27AA27B8
:102A000062177307840738F09F5F5F4F220F331FF1
:102A1000441FAA1FA9F335D00E2E3AF0E0E832D0B9
:102A200091505040E695001CCAF72BD0FE2F29D0BC
:102A3000660F771F881FBB1F261737074807AB078E
:102A4000B0E809F0BB0B802DBF01FF2793585F4F03
:102A50003AF09E3F510578F00C94EA150C94351627
:102A60005F3FE4F3983ED4F3869577956795B795E5
:102A7000F7959F5FC9F7880F911D9695879597F9F0
:102A80000895E1E0660F771F881FBB1F6217730769
:102A90008407BA0720F0621B730B840BBA0BEE1F7E
:102AA00088F7E09508950E945A156894B1110C9426
:102AB000351608950E941A1688F09F5798F0B92F7E
:102AC0009927B751B0F0E1F0660F771F881F991F63
:102AD0001AF0BA95C9F714C0B13091F00E943416BB
:102AE000B1E008950C943416672F782F8827B85FCB
:102AF00039F0B93FCCF3869577956795B395D9F7BB
:102B00003EF490958095709561957F4F8F4F9F4FC4
:102B10000895E89409C097FB3EF4909580957095D0
:102B200061957F4F8F4F9F4F9923A9F0F92F96E919
:102B3000BB279395F695879577956795B795F1118E
:102B4000F8CFFAF4BB0F11F460FF1BC06F5F7F4F2B
:102B50008F4F9F4F16C0882311F096E911C077233D
:102B600021F09EE8872F762F05C0662371F096E846
:102B7000862F70E060E02AF09A95660F771F881F15
:102B8000DAF7880F9695879597F90895990F0008B9
:102B9000550FAA0BE0E8FEEF16161706E807F9072F
:102BA000C0F012161306E407F50798F0621B730BCA
:102BB000840B950B39F40A2661F0232B242B252B4B
:102BC00021F408950A2609F4A140A6958FEF811DEE
:102BD000811D089597F99F6780E870E060E008958F
:102BE0009FEF80EC089500240A9416161706180625
:102BF0000906089500240A94121613061406050601
:102C00000895092E0394000C11F4882352F0BB0F91
:102C100040F4BF2B11F460FF04C06F5F7F4F8F4FF4
:102C20009F4F089557FD9058440F551F59F05F3F2F
:102C300071F04795880F97FB991F61F09F3F79F0DE
:102C400087950895121613061406551FF2CF469560
:102C5000F1DF08C0161617061806991FF1CF8695E2
:102C60007105610508940895E894BB2766277727C6
:102C7000CB0197F908950E94C61508F48FEF0895C7
:102C80000E9453160C9401160E94F31538F00E940E
:102C9000FA1520F0952311F00C94EA150C94F01518
:102CA00011240C9435160E94121670F3959FC1F3EF
:102CB000950F50E0551F629FF001729FBB27F00DEA
:102CC000B11D639FAA27F00DB11DAA1F649F66273F
:102CD000B00DA11D661F829F2227B00DA11D621F8E
:102CE000739FB00DA11D621F839FA00D611D221F48
:102CF000749F3327A00D611D231F849F600D211D2C
:102D0000822F762F6A2F11249F5750409AF0F1F0AE
:102D100088234AF0EE0FFF1FBB1F661F771F881F17
:102D200091505040A9F79E3F510580F00C94EA1550
:102D30000C9435165F3FE4F3983ED4F3869577956F
:102D40006795B795F795E7959F5FC1F7FE2B880FBD
:102D5000911D9695879597F908950E94C615880B41
:102D6000990B0895A1E21A2EAA1BBB1BFD010DC0F1
:102D7000AA1FBB1FEE1FFF1FA217B307E407F5072B
:102D800020F0A21BB30BE40BF50B661F771F881F07
:102D9000991F1A9469F760957095809590959B019D
:102DA000AC01BD01CF010895EE0FFF1F0590F49116
:102DB000E02D099481E090E0F8940C94E816FB0172
:102DC000DC0102C001900D9241505040D8F70895A7
:042DD000F894FFCFA5
:102DD400000020410000204100002041000020416B
:102DE40000002041DA00DA0001000020411900004F
:102DF40000983A0000983A0000C80D00000F000A3D
:102E04000005000600070008000900000000006734
:102E140002FB0A4E0B260B3E0B0C0C000000008339
:102E2400016F016701530144014301456E636F64FF
:102E34006572202B00456E636F646572202D00431C
:102E44006F6E74726F6C6C657220636F6D6D616E02
:102E5400643A20000D0A00436F6E74726F6C6C65E7
:102E6400722074656D703A20005A6F6E65200020E0
:102E740054656D703A200027432053746174757350
:102E84003A20004E65772064657669636520737423
:102E94006174653A20004E65772074656D703A2040
:102EA400005057520954454D50095A6F6E65310907
:102EB4005A6F6E6532095A6F6E6533095A6F6E65C3
:102EC40034095A6F6E6535005A4F4E455F52454C72
:102ED4004159094F4E09005A4F4E455F52454C41E6
:102EE40059094F464609004E54435F425F436F659C
:102EF40066663D004E54435F4E6F6D696E616C5F54
:102F0400526573697374616E63653D0053657269DC
:102F1400616C5F5265736973746F723D004E6F6DBF
:102F2400696E616C5F543D00233D3D3D3D3D3D3D3B
:102F34003D3D3D3D3D3D3D3D3D3D3D3D3D3D3D3DBD
:102F44003D3D3D3D3D3D3D3D3D3D3D3D3D3D3D3DAD
:102F54003D3D3D3D3D3D3D3D3D3D3D3D3D3D3D3D9D
:102F64003D3D3D3D3D3D3D3D3D3D3D3D3D3D3D3D8D
:102F74003D3D3D3D3D3D3D3D3D3D3D3D3D3D3D3D7D
:102F84003D3D23002320352D5A6F6E652057617215
:102F94006D20466C6F6F7220546865726D6F737428
:102FA400617420726567756C61746F72202D207274
:102FB40065706C6163656D656E7420666F72203533
:102FC40020782044616E666F737320454374656D89
:102FD40070544D204E65787420506C757320230016
:102FE40023202020202020202020202020202020DA
:102FF400202020202863293230313820566C616427
:10300400696D69722050616B686F6D6F76202B3724
:1030140039303336353636343937206761334079C1
:10302400616E6465782E7275202020202020202077
:1030340020202020202020202020230023202020A6
:10304400202020202020202020202020202020207C
:103054002020202020207370656369616C20666FD6
:1030640072206D79206465617220426F7373205AF7
:10307400656E6973636865762049676F72292020DD
:10308400202020202020202020202020202020203C
:1030940020202020202023002D2D2D2D2D2D2D2DE1
:1030A4002D2D2D2D2D434C4920636F6D6D616E6464
:1030B400732D2D2D2D2D2D2D2D2D2D2D2D2D00222E
:1030C4003022202D204465627567206F75747075F9
:1030D40074204F464600223122202D20446562751B
:1030E40067206F7574707574204F4E002232222051
:1030F4002D2053686F772064657669636520737447
:10310400617465206F6E636500223322202D204E8A
:1031140054432073656E736F727320636F6E7374A0
:10312400616E747320736574757000223422202DCF
:1031340020446973706C6179204E54432073656E2A
:10314400736F727320636F6E7374616E7473002D8A
:103154002D2D2D2D2D2D2D2D2D2D434C4920636FDF
:103164006D6D616E647320656E642D2D2D2D2D2D76
:103174002D2D2D2D2D0048656164206D6F64756CB7
:103184006520737461727465642E20576169746973
:103194006E672032207365636F6E64732E2E2E006B
:1031A400526573746F7265642073657474696E67B5
:1031B400732066726F6D20454550524F4D00536524
:1031C400747570206D6F646520656E7465726564D6
:1031D40000456E746572204E54435F425F434F4511
:1031E40046462076616C75653A00456E74657220BA
:1031F4004E54435F4E6F6D696E616C5F52657369C7
:103204007374616E63652076616C756520284F6800
:103214006D293A00456E7465722053657269616C5C
:103224005F5265736973746F722076616C75652083
:10323400284F686D293A00456E746572204E6F6D93
:10324400696E616C5F542076616C75652028274334
:10325400293A0053657475702076616C7565732026
:10326400656E74657265642C206578697420667275
:103274006F6D207365747570206D6F64652E0050DA
:1032840075736820427574746F6E206576656E740C
:1032940020747269676765726564004C6967687455
:1032A4002053656E736F722056616C7565203D20E6
:1032B400002E20427574746F6E204C696768742008
:1032C4004F4E002E20427574746F6E204C696768EF
:1032D40074204F46460043757272656E74207365A0
:1032E4007474696E677320736176656420746F20EB
:1032F400454550524F4D006E616E00696E66006F19
:0433040076660000E9
:00000001FF
