:100000000C9462000C9463050C943C050C948A00DB
:100010000C948A000C948A000C948A000C948A0038
:100020000C948A000C948A000C948A000C948A0028
:100030000C948A000C948A000C948A000C948A0018
:100040000C94F2040C948A000C94F00B0C94660C43
:100050000C948A000C948A000C948A000C948A00F8
:100060000C948A050C948A000000000025002800EA
:100070002B000000000023002600290000000008DB
:10008000000201000003040700000000000000005F
:1000900000000000240027002A00010204081020AC
:1000A000408001020408102001020408102004040A
:1000B0000404040404040202020202020303030310
:1000C0000303711411241FBECFEFD8E0DEBFCDBFF4
:1000D00014E0A0E0B1E0EEEEFEE202C005900D9269
:1000E000AE37B107D9F726E0AEE7B4E001C01D9204
:1000F000A73BB207E1F710E0C2E6D0E004C02197C9
:10010000FE010E946117C136D107C9F70E942D0E6A
:100110000C9475170C940000833081F028F4813022
:1001200099F08230A1F008958730A9F08830B9F0B5
:100130008430D1F4809180008F7D03C08091800055
:100140008F7780938000089584B58F7702C084B53F
:100150008F7D84BD08958091B0008F7703C080911A
:10016000B0008F7D8093B00008953FB7F8948091E0
:100170003B0590913C05A0913D05B0913E0526B50B
:10018000A89B05C02F3F19F00196A11DB11D3FBFCF
:10019000BA2FA92F982F8827820F911DA11DB11D5D
:1001A000BC01CD0142E0660F771F881F991F4A9559
:1001B000D1F70895089585ED8093BC008091BC002F
:1001C00084FDFCCF1092410508954091EF04262F45
:1001D00030E0240F311D21323105DCF4209141053E
:1001E0002430C9F4FC0180E090E0861758F4309187
:1001F000EF042191DC01A153BB4FA30FB11D2C9340
:100200000196F3CF8091EF04680F6093EF0480E0D4
:10021000089581E0089582E00895E0914C05F09101
:100220004D05309729F0109243051092420509942C
:100230000895CF93DF93AC01E0914A05F0914B050F
:100240003097F1F090914505809144059817C0F0E2
:1002500090E0292F30E02617370754F4D901A15533
:10026000BB4FEA01C20FD31F88818C939F5FF1CFF0
:100270001092450560934405CB01DF91CF9109941D
:10028000DF91CF9108950895E0914505809144054F
:10029000E81730F4F0E0E155FB4F808190E00895DD
:1002A0008FEF9FEF08959091450580914405981731
:1002B00050F4E92FF0E0E155FB4F208130E09F5FE3
:1002C0009093450502C02FEF3FEFC901089580913B
:1002D000440590E020914505821B91090895CF9334
:1002E000DF9300D0CDB7DEB7CB01642F49835A83AB
:1002F0000E94E5004981842F5A81952F0F900F901D
:10030000DF91CF910895CF93DF931F92CDB7DEB7E2
:10031000698361E0CE0101960E94E50081E090E0F2
:100320000F90DF91CF9108958EBD00000DB407FEB0
:10033000FDCF8EB508950E949401E3E2F0E031977D
:10034000F1F70895EF92FF920F931F93CF93DF93EE
:10035000EC0181E0888F9C8D8D8D981305C0E88914
:10036000F989808185FD2AC0F62E0C8D10E00F5F83
:100370001F4F0F731127E02E8D8DE8120CC00FB6A2
:1003800007FCFACFE889F989808185FFF5CFCE0196
:100390000E94390CF1CF2C8DCE01820F911D820F5E
:1003A000911DFC01E256FF4F6F2D70E07183608359
:1003B0000C8FEA89FB89808180620CC0EA89FB8905
:1003C00080818E7F8083EE89FF896083E889F98947
:1003D00080818064808381E090E0DF91CF911F91E4
:1003E0000F91FF90EF900895F89489B18C708093ED
:1003F0008204809182048C3021F4809181048111E7
:1004000009C080918204883019F481E080938004CF
:100410007894089580915E0590915F05892BB1F1E4
:100420008BE491E00E94CB0C6091190170911A014C
:1004300080911B0190911C0120E030E040E05FE3DF
:100440000E94FD146093190170931A0180931B019F
:1004500090931C016091190170911A0180911B0108
:1004600090911C0120E030E044E352E40E94C81661
:10047000181664F480E090E0A4E3B2E480931901DC
:1004800090931A01A0931B01B0931C011092810458
:1004900010928004BDCFF89489B18C70809382044F
:1004A000809182048C3021F480918004811109C0F4
:1004B00080918204843019F481E0809381047894DF
:1004C000089580915E0590915F05892BB1F185E5D6
:1004D00091E00E94CB0C6091190170911A018091FA
:1004E0001B0190911C0120E030E040E05FE30E949E
:1004F000FC146093190170931A0180931B0190936F
:100500001C016091190170911A0180911B01909159
:100510001C0120E030E040E251E40E94691587FFB1
:100520000CC080E090E0A0E2B1E4809319019093C8
:100530001A01A0931B01B0931C0110928104109228
:100540008004BDCF8F929F92AF92BF92EF92FF92A5
:100550000F931F93CF93DF93E12CF12CC0E0D0E0F9
:10056000812C912C54018701000F111F000F111FC6
:1005700000501F4FF801608171818281938120E0DA
:1005800030E04CE652E40E94691587FF0EC0F80186
:10059000608171818281938120E030E040E151EC03
:1005A0000E94C81618160CF487C0FFEFEF1AFF0A56
:1005B00085E0E816F104B9F62097D1F0BE01DD0F11
:1005C000880B990B0E9418169B01AC01C501B40160
:1005D0000E946E158B01D82FC92F5B01E82EF92ED2
:1005E00020E030E0A9010E94C81687FF05C00DC0B9
:1005F000A12CB12CE12CF12C20E030E040E05FE3B5
:10060000B501C7010E94FD1409C020E030E040E0C0
:100610005FE3B8018D2F9C2F0E94FC140E94E0150F
:10062000EB016091190170911A0180911B01909169
:100630001C0120E030E0A9010E94C81687FD0FC010
:100640006091190170911A0180911B0190911C0118
:1006500020E030E040E05FE30E94FD140EC06091B6
:10066000190170911A0180911B0190911C0120E0E9
:1006700030E040E05FE30E94FC140E94E0158B0133
:10068000CE010E94D90CC8010E94D90C80915E0550
:1006900090915F050E94D90C80915C0590915D0559
:1006A000DF91CF911F910F91FF90EF90BF90AF908E
:1006B0009F908F900C94D90CF80120813181428158
:1006C0005381C501B4010E94FD144B015C012196C8
:1006D0006CCFCF93DF93282F30E0F901E458FF4F20
:1006E0008491F901E656FF4FD491F901E255FF4F8D
:1006F000C491CC2391F081110E948C00EC2FF0E08A
:10070000EE0FFF1FEE58FF4FA591B491EC91ED2332
:1007100081E090E021F480E002C080E090E0DF9191
:10072000CF9108951F93CF93DF93282F30E0F901E5
:10073000E458FF4F8491F901E656FF4FD491F90137
:10074000E255FF4FC491CC23C9F0162F81110E94AE
:100750008C00EC2FF0E0EE0FFF1FE859FF4FA59142
:10076000B4918FB7F894111105C09C91ED2FE095CD
:10077000E92302C0EC91ED2BEC938FBFDF91CF9179
:100780001F9108950F931F93CF93DF93039709F061
:10079000A2C08BEA96E00E9453018C018BEA96E09E
:1007A0000E945301EC0190937F0480937E048BEAB6
:1007B00096E00E94530190935D0580935C05C230E2
:1007C000D10540F080917E0490917F04039709F059
:1007D00082C028C0D0935F05C0935E058FE591E08D
:1007E0000E94570D60915E0570915F05072E000C09
:1007F000880B990B0E941F0D84E791E00E94B90CB1
:1008000080915E0590915F05892BE1F6C1E2D1E010
:100810008881229660E00E94920381E0CB32D80763
:10082000B9F7D0CFB801110F880B990B0E94181699
:100830006093190170931A0180931B0190931C011E
:1008400087E791E00E94570D6091190170911A019C
:1008500080911B0190911C0140E00E94590D84E79A
:1008600091E00E94B90C6091190170911A01809178
:100870001B0190911C0120E030E044E352E40E940F
:10088000C816181664F480E090E0A4E3B2E4809304
:10089000190190931A01A0931B01B0931C01609160
:1008A000190170911A0180911B0190911C0120E0A7
:1008B00030E040E251E40E94691587FF0CC080E0FF
:1008C00090E0A0E2B1E48093190190931A01A09303
:1008D0001B01B0931C01DF91CF911F910F910895DF
:1008E000CF93DF9390E0FC01E656FF4F2491FC018B
:1008F000E255FF4F8491882361F190E0880F991FA2
:10090000FC01E057FF4FC591D491FC01E859FF4F1E
:10091000A591B491611109C09FB7F8948881209581
:1009200082238883EC912E230BC0623061F49FB741
:10093000F8943881822F809583238883EC912E2B25
:100940002C939FBF06C08FB7F894E8812E2B288385
:100950008FBFDF91CF9108958F929F92AF92BF92F8
:10096000CF92DF92EF92FF926B017C010E94B50063
:100970004B015C01C114D104E104F104F1F00E94C7
:10098000B500DC01CB0188199909AA09BB09883E89
:100990009340A105B10570F321E0C21AD108E10826
:1009A000F10888EE880E83E0981EA11CB11CC114CA
:1009B000D104E104F10419F7DDCFFF90EF90DF904F
:1009C000CF90BF90AF909F908F9008952FB7F894DD
:1009D00060913705709138058091390590913A05FD
:1009E0002FBF08951F920F920FB60F9211242F93CD
:1009F0003F938F939F93AF93BF93809137059091CF
:100A00003805A0913905B0913A053091360523E0BB
:100A1000230F2D3720F40196A11DB11D05C026E836
:100A2000230F0296A11DB11D209336058093370533
:100A300090933805A0933905B0933A0580913B0512
:100A400090913C05A0913D05B0913E050196A11DF8
:100A5000B11D80933B0590933C05A0933D05B09359
:100A60003E05BF91AF919F918F913F912F910F9034
:100A70000FBE0F901F9018951F920F920FB60F92F6
:100A800011242F933F934F935F936F937F938F9393
:100A90009F93AF93BF93EF93FF93E0911601F09173
:100AA00017010995FF91EF91BF91AF919F918F91A0
:100AB0007F916F915F914F913F912F910F900FBE5A
:100AC0000F901F9018951F920F920FB60F9211243E
:100AD0002F933F934F935F936F937F938F939F9346
:100AE000AF93BF93EF93FF93E0911401F091150141
:100AF0000995FF91EF91BF91AF919F918F917F9158
:100B00006F915F914F913F912F910F900FBE0F907A
:100B10001F9018951F920F920FB60F9211242F93CA
:100B20003F934F935F936F937F938F939F93AF9375
:100B3000BF93EF93FF938091B900887F803609F4CB
:100B40009CC068F5883209F45BC090F4803109F4E8
:100B500054C038F4882309F4F6C0883009F44DC035
:100B6000F6C0883109F44CC0803209F45DC0EFC092
:100B7000803409F468C048F4803309F455C08833E0
:100B800009F0E5C080931205D8C0803509F44FC044
:100B9000883509F45DC0883409F0D9C0D6C08839D9
:100BA00009F4C7C0A8F4883709F467C038F4883658
:100BB00009F463C0803709F460C0C9C0883809F4FB
:100BC000B8C0803909F45FC0803809F0C0C05BC08C
:100BD000803B09F486C038F4803A09F466C0883A4C
:100BE00009F47FC0B4C0803C09F4A7C0883C09F474
:100BF000A4C0883B09F48AC0AAC08091350510C002
:100C00009091340580913305981770F5E091340583
:100C100081E08E0F80933405F0E0ED5EFA4F808125
:100C20008093BB0085EC86C0809312058EC0E09156
:100C3000340581E08E0F809334058091BB00F0E095
:100C4000ED5EFA4F808390913405809133056EC03C
:100C5000E091340581E08E0F809334058091BB00D4
:100C6000F0E0ED5EFA4F80838091400581116DC008
:100C700081E080933F0584EA61C083E08093410571
:100C800010921105CFCF80911105803208F051C02C
:100C9000E091110581E08E0F809311058091BB00DA
:100CA000F0E0EF50FB4F8083BDCF85EC8093BC001C
:100CB0001092410580911105803230F4E0911105C8
:100CC000F0E0EF50FB4F10826091110570E0E09171
:100CD0004605F091470581EF94E0099510921105C2
:100CE00036C084E0809341051092F0041092EF0426
:100CF000E0914805F091490509958091EF04811133
:100D000005C081E08093EF041092CF04E091F004DD
:100D100081E08E0F8093F004F0E0E153FB4F80817F
:100D20008093BB009091F0048091EF04981708F431
:100D300079CF85E88093BC000AC085EC8093BC0025
:100D40001092410504C0109212050E94DB00FF9131
:100D5000EF91BF91AF919F918F917F916F915F9133
:100D60004F913F912F910F900FBE0F901F901895AC
:100D70000C94EE140C94E6142F923F924F925F92D3
:100D80006F927F928F929F92AF92BF92CF92DF929B
:100D9000EF92FF920F931F93CF93DF93CDB7DEB700
:100DA00064970FB6F894DEBF0FBECDBF80E090E031
:100DB000A0E2B1EC8093000190930101A0930201A5
:100DC000B09303018093040190930501A093060161
:100DD000B09307018093080190930901A0930A0141
:100DE000B0930B0180930C0190930D01A0930E0121
:100DF000B0930F018093100190931101A093120101
:100E0000B093130160E08FE00E94920380919E04F2
:100E10000E949B014FE9E42E44E0F42E8E010F5F07
:100E20001F4F6E0181E1C80ED11CF70181917F0136
:100E30000E949B01F80181938F01EC15FD05A9F734
:100E400080915E0590915F050E949B01898B809146
:100E50005E0590915F050E949B018A8B80915E05E3
:100E600090915F050E949B018B8B80915E05909114
:100E70005F050E949B018C8B61E08FE00E949203D2
:100E800061E070E080E090E00E94AC04FE013496E6
:100E900080E090E0DF0113972C9120939A04119643
:100EA0002C9120939B0411962C9120939C042081DB
:100EB00020939D0440919A0450919B0460919C045E
:100EC00070919D04DC01AA0FBB1FAA0FBB1FA0508D
:100ED000BF4F4D935D936D937C931397019634961A
:100EE00085309105B9F680915E0590915F05892B5B
:100EF00009F451C121E2A22E21E0B22EE12CF12C05
:100F00006701CC0CDD1CCC0CDD1CC60180509F4F52
:100F10004C01FC01608171818281938120901901D3
:100F200030901A0140901B0150901C0120E030E0ED
:100F300040E251E40E94CD160E94E0153B0120E002
:100F400030E040E05FE3C201B1010E94FD1420E007
:100F500030E040E251E40E94CD160E94E015870186
:100F6000000F111F66167706DCF4F40160817181B1
:100F70008281938120E030E04CE652E40E94C81662
:100F800087FF0EC0F401608171818281938120E02E
:100F900030E040E251EC0E94691518160CF442C092
:100FA000F5019080892D0E946903892BD9F10057A2
:100FB0001B4FF801208131812F5F3F4F3183208308
:100FC00080819181039709F0E6C060E0892D0E943D
:100FD0009203F80111821082809176058111DBC0A5
:100FE00089E891E00E94570DB7016F5F7F4F072E90
:100FF000000C880B990B0E941F0D8FE891E00E9456
:10100000570DF601E050FF4F60817181828193811D
:1010100041E00E94590D87E991E00E94570D8BE451
:1010200094E08AC0C60180509F4F6C01FC01608132
:101030007181828193814090190150901A016090D2
:101040001B0170901C0120E030E040E251E40E945E
:10105000CD160E94E0154B0120E030E040E05FE358
:10106000C301B2010E94FC1420E030E040E251E4F0
:101070000E94CD160E94E015681579050CF476C023
:10108000F601608171818281938120E030E040E24D
:1010900051EC0E94C81618160CF068C0F50190803B
:1010A000892D0E946903892B09F060C0F6016081D7
:1010B00071818281938120E030E040E351EC0E9415
:1010C000C81618160CF052C00A571B4FF8012081A1
:1010D00031812F5F3F4F318320838081918103973E
:1010E00009F059C061E0892D0E949203F801118234
:1010F00010828091760581114EC089E891E00E94AE
:10110000570DB7016F5F7F4F072E000C880B990BAF
:101110000E941F0D8FE891E00E94570DF60160813B
:1011200071818281938141E00E94590D87E991E0AC
:101130000E94570D89E394E064960FB6F894DEBFE1
:101140000FBECDBFDF91CF911F910F91FF90EF9018
:10115000DF90CF90BF90AF909F908F907F906F90D7
:101160005F904F903F902F900C94CB0CF801E0577C
:10117000FB4F11821082F801EA57FB4F1182108257
:10118000FFEFEF1AFF0A82E0A80EB11C95E0E91606
:10119000F10409F0B5CE64960FB6F894DEBF0FBE29
:1011A000CDBFDF91CF911F910F91FF90EF90DF9016
:1011B000CF90BF90AF909F908F907F906F905F90F7
:1011C0004F903F902F900895CF92DF92EF92FF9231
:1011D000CF93DF930E94E604609356057093570502
:1011E00080935805909359051092180160916205FB
:1011F00070916305809164059091650520911901B6
:1012000030911A0140911B0150911C010E946915F7
:10121000882329F080917605882309F41DC18091E7
:101220005E0590915F05209160053091610528175A
:10123000390799F08091760581110FC086EB91E016
:101240000E94570D80915E0590915F05892B09F4EE
:1012500017C18AE394E00E94CB0C80911901909110
:101260001A01A0911B01B0911C018093620590931B
:101270006305A0936405B093650580915E05909128
:101280005F059093610580936005C0901901D0902F
:101290001A01E0901B01F0901C0180915C05909177
:1012A0005D0590935B0580935A05892BC9F420E076
:1012B00030E040E251E4C701B6010E946E150E9481
:1012C000E01560938304CB0199272AE0289FB001A1
:1012D000299F700D1124072E000C880B990B37C025
:1012E00026E636E646EE5FE3C701B6010E94CD165C
:1012F00020E030E040E052E40E94FD146B017C01EC
:101300002DEC3CEC47EC52E40E94C816181644F44D
:101310008DECC82E8CECD82E87ECE82E82E4F82ECB
:1013200020E030E040E251E4C701B6010E946E15B2
:101330000E94E0156093830477272AE0269FC0016E
:10134000279F900D1124BC01990F880B990B0E94C7
:1013500018169B01AC01C701B6010E94FC146B0179
:101360007C010E94E01560938404CB019927BC01A5
:10137000990F880B990B0E9418169B01AC01C701AD
:10138000B6010E94FC1420E030E040E251E40E94EB
:10139000CD160E94E0156093850483EA91E00E94D7
:1013A000570D6091830470E080E090E04AE00E9475
:1013B000DE0C6091840470E080E090E04AE00E94DE
:1013C000DE0C6091850470E080E090E04AE00E94CD
:1013D000DE0C84E791E00E94B90C60E08AE00E9494
:1013E000920361E070E080E090E00E94AC048091A4
:1013F00083040E949401C3E2D0E0CE010197F1F78B
:10140000809184040E949401CE010197F1F78091AC
:1014100085040E949401CE010197F1F780915E0549
:1014200090915F050E949401CE010197F1F78DE044
:101430000E9494012197F1F761E08AE00E949203F3
:1014400061E070E080E090E0DF91CF91FF90EF905D
:10145000DF90CF900C94AC048BEA91E00E94570D82
:101460006091190170911A0180911B0190911C01EA
:1014700041E00E94590D84E791E00E94B90CCFCE63
:101480008CE494E0E8CECF93DF9389EC91E00E9466
:10149000CB0C80915E0590915F05892B19F08AE352
:1014A00094E002C08CE494E00E94570D8DE092E03D
:1014B0000E94570D6091190170911A0180911B01D2
:1014C00090911C0141E00E94590DC0E0D0E08DE0F8
:1014D00092E00E94570DFE01EE0FFF1FEE0FFF1F5F
:1014E000E050FF4F608171818281938141E00E94D1
:1014F000590D2196C530D10551F784E791E00E943E
:10150000B90C85E00E946903892B19F080EF91E006
:1015100002C08FEF91E00E94570D86E00E946903A0
:10152000892B19F08BEF91E002C08AE092E00E94D3
:10153000570D87E00E946903892B19F08BEF91E02A
:1015400002C08AE092E00E94570D88E00E94690381
:10155000892B19F08BEF91E002C08AE092E00E94A3
:10156000570D89E00E946903892B19F08BEF91E0F8
:1015700002C08AE092E00E94CB0C0E94E6046093D5
:101580005205709353058093540590935505DF9150
:10159000CF91089580917205309173052091740563
:1015A0009091750530934F05209350059093510508
:1015B000EEE9F4E0AEE4B5E0808311968C911197EA
:1015C000818312968C911297828313968C91139734
:1015D000838380916E0530916F0520917005909105
:1015E000710530934F0520935005909351058483E6
:1015F00011968C911197858312968C911297868300
:1016000013968C91139787838091660530916705B7
:10161000209168059091690530934F0520935005FE
:1016200090935105808711968C911197818712961E
:101630008C911297828713968C9113978387809150
:101640006A0530916B0520916C0590916D05809332
:101650004E0530934F052093500590935105848794
:1016600011968C911197858712968C911297868787
:1016700013968C91878780915E0590915F05808B92
:101680001092180108958FE092E00E94570D60912A
:1016900072057091730580917405909175050E9493
:1016A000490D8CE192E00E94570D60916E0570919A
:1016B0006F0580917005909171050E94490D84E33A
:1016C00092E00E94570D60916A0570916B058091C0
:1016D0006C0590916D050E94490D85E492E00E9491
:1016E000570D60916605709167058091680590912E
:1016F00069050C94490DCF92DF92EF92FF920F9300
:101700001F93CF93DF936C017A018B01C0E0D0E08F
:10171000CE15DF0589F0D8016D918D01D601ED91CF
:10172000FC910190F081E02DC6010995892B11F4FF
:101730007E0102C02196ECCFC701DF91CF911F91AE
:101740000F91FF90EF90DF90CF900895FC01928D64
:10175000838D981781F0838DDF01A80FB11DA80F2D
:10176000B11D5E968C915E975F969C91238D2F5F45
:101770002F73238F08958FEF9FEF0895FC01928DB3
:10178000838D981741F0838DE80FF11DE80FF11D4F
:10179000868D978D08958FEF9FEF0895FC01928DB0
:1017A000238D892F90E0805C9F4F821B91098F735E
:1017B000992708958DE895E00E94CE0B21E0892BB2
:1017C00009F420E0822F089580E090E0892B29F031
:1017D0000E94DA0B81110C94000008950E94671793
:1017E0001F920F920FB60F9211242F933F938F9356
:1017F0009F93AF93BF93EF93FF93E0919D05F0917B
:101800009E058081A0919F05B091A005E091A30560
:10181000F091A40582FD1EC08C9130812091A70516
:101820002F5F2F739091A8052917B1F0E091A705BC
:10183000827090E09695982F882797958795F0E08D
:10184000EE0FFF1FE555FA4F832B91838083209382
:10185000A70502C08C918081FF91EF91BF91AF915C
:101860009F918F913F912F910F900FBE0F901F90DE
:101870001895FC01258D820F911D820F911DDC01B1
:10188000A256BF4F2D913C91858D90E001968F73AC
:101890009927858FA289B3898C9130FF02C081601E
:1018A00001C08E7F8C93A689B7892C93A089B189BA
:1018B0008C9180648C93948D858D981306C00288DA
:1018C000F389E02D80818F7D808308951F920F9290
:1018D0000FB60F9211242F933F934F935F936F9303
:1018E0007F938F939F93AF93BF93EF93FF938DE875
:1018F00095E00E94390CFF91EF91BF91AF919F91BC
:101900008F917F916F915F914F913F912F910F90A8
:101910000FBE0F901F901895CF93DF93EC01888D29
:101920008823C9F0EA89FB89808185FD05C0A889E3
:10193000B9898C9186FD0FC00FB607FCF5CF808169
:1019400085FFF2CFA889B9898C9185FFEDCFCE01B3
:101950000E94390CE7CFDF91CF910895E0918D057A
:10196000F0918E050190F081E02D682F8DE895E0D3
:101970000994009769F0FC0101900020E9F7319784
:10198000AF01481B590BBC018DE895E00C947B0B13
:1019900080E090E00895CF93DF930E94B90CEC01B2
:1019A00084E791E00E94B90C8C0F9D1FDF91CF91CD
:1019B0000895682F8BEA96E00C9483018F929F9292
:1019C000AF92BF920F931F93CF93DF93CDB7DEB744
:1019D000A1970FB6F894DEBF0FBECDBF19A242305B
:1019E00008F44AE08E010F5D1F4F842E912CA12C2C
:1019F000B12CA50194010E943F17E62FB901CA013D
:101A000001501109EA3014F4E05D01C0E95CD8012D
:101A1000EC93232B242B252B61F7C8010E94B90CD2
:101A2000A1960FB6F894DEBF0FBECDBFDF91CF9168
:101A30001F910F91BF90AF909F908F900895CF927C
:101A4000DF92EF92FF92CF93DF9397FF19C06B0164
:101A50007C018DE20E94AE0CEC0166277727CB015A
:101A60006C197D098E099F094AE00E94DE0C8C0FDB
:101A70009D1FDF91CF91FF90EF90DF90CF90089561
:101A80004AE0DF91CF91FF90EF90DF90CF900C94E0
:101A9000DE0CCF93DF930E941F0DEC0184E791E0F1
:101AA0000E94B90C8C0F9D1FDF91CF9108950C946B
:101AB000B90C4F925F926F927F928F929F92AF92EA
:101AC000BF92CF92DF92EF92FF926B017C01B42E16
:101AD0009B01AC010E943A17882319F081E794E03A
:101AE00027C026013701E89477F82FEF3FEF4FE743
:101AF0005FE7C301B2010E943A1781110DC02FEFB9
:101B00003FEF4FE75FE7C301B2010E946915181666
:101B10001CF485E794E00CC02FEF3FEF4FE75FE444
:101B2000C701B6010E94C816181684F489E794E02C
:101B3000FF90EF90DF90CF90BF90AF909F908F90ED
:101B40007F906F905F904F900C94B90C2FEF3FEF08
:101B50004FE75FECC701B6010E94691587FDE6CF2C
:101B600020E030E0A901C701B6010E94691587FF96
:101B700009C08DE20E94AE0C4C01F7FAF094F7F820
:101B8000F09402C0812C912CA12C60E070E080E0E8
:101B90009FE3AB1441F020E030E040E251E40E94CA
:101BA0006E15A394F6CF9B01AC01C701B6010E944C
:101BB000FD142B013C010E94E7156B017C010E9482
:101BC00016169B01AC01C301B2010E94FC142B014B
:101BD0003C014AE0C701B6010E94DE0C7C01E80C22
:101BE000F91CBB2029F08EE20E94AE0CE80EF91E13
:101BF000DB2CDD2021F120E030E040E251E4C301A4
:101C0000B2010E94CD162B013C010E94E7154B0149
:101C1000A12CB12C4AE0C501B4010E94DE0CE80EF3
:101C2000F91EC501B4010E9416169B01AC01C30147
:101C3000B2010E94FC142B013C01DA94DACFC701F7
:101C4000FF90EF90DF90CF90BF90AF909F908F90DC
:101C50007F906F905F904F900895CF93DF93CDB7B3
:101C6000DEB7789484B5826084BD84B5816084BD1C
:101C700085B5826085BD85B5816085BD80916E002A
:101C8000816080936E00109281008091810082605B
:101C90008093810080918100816080938100809198
:101CA00080008160809380008091B1008460809387
:101CB000B1008091B00081608093B00080917A0083
:101CC000846080937A0080917A00826080937A00A9
:101CD00080917A00816080937A0080917A00806898
:101CE00080937A001092C100E0919D05F0919E05CD
:101CF00082E08083E0919905F0919A051082E0914D
:101D00009B05F0919C058FEC80831092A505E091D6
:101D1000A105F091A20586E08083E0919F05F091F6
:101D2000A005808180618083E0919F05F091A005EE
:101D3000808188608083E0919F05F091A00580817B
:101D400080688083E0919F05F091A00580818F7D60
:101D500080831092A605E0919F05F091A0058081F7
:101D60008B7F808380E592E00E94CB0C8EE092E036
:101D70000E94CB0C80E892E00E94CB0C87E992E0B5
:101D80000E94CB0C8DEA92E00E94CB0C8AEC92E090
:101D90000E94CB0C8CEE92E00E94CB0C60ED77E0C1
:101DA00080E090E00E94AC0460E080E10E9470045A
:101DB00062E08EE00E94700461E081E10E947004A4
:101DC00061E085E00E94700461E086E00E9470049A
:101DD00061E087E00E94700461E088E00E94700486
:101DE00061E089E00E94700462E082E00E94700479
:101DF00062E083E00E9470048BE492E0909315010E
:101E00008093140180916900836080936900E89A4F
:101E100084EF91E0909317018093160180916900FF
:101E20008C6080936900E99A61E08AE00E94700406
:101E300061E08AE00E94920361E08FE00E947004FA
:101E400061E08FE00E9492031FB7F89480917705BC
:101E5000811127C0E8EBF0E08491E4EAF0E094918E
:101E6000E82FF0E0EE0FFF1FE057FF4FA591B49170
:101E7000EC91E92321F461E08AE00E94920361E0A1
:101E80008AE00E9470048CB580618CBD8CB5806442
:101E90008CBD61E08DE00E94700461E08BE00E94E7
:101EA0007004809177058F5F809377051FBF8CB595
:101EB0008C7F81608CBD8DB581608DBD80E090E0B0
:101EC0000E94BA06082F81E090E00E94BA06182FFF
:101ED000602F70E080E090E00E9418164B015C01DA
:101EE000612F70E080E090E00E9418162DEC3CEC31
:101EF0004CEC5DE30E94CD169B01AC01C501B40121
:101F00000E94FD146093190170931A0180931B01C4
:101F100090931C0182E090E00E94BA0680934E05E7
:101F200083E090E00E94BA0680934F0584E090E041
:101F30000E94BA068093500585E090E00E94BA06A0
:101F40008093500580914E0590914F05A0915005CA
:101F5000B09151058093720590937305A093740519
:101F6000B093750586E090E00E94BA0680934E0516
:101F700087E090E00E94BA0680934F0588E090E0E9
:101F80000E94BA068093500589E090E00E94BA064C
:101F90008093500580914E0590914F05A09150057A
:101FA000B091510580936E0590936F05A0937005D5
:101FB000B09371058AE090E00E94BA0680934E05C6
:101FC0008BE090E00E94BA0680934F058CE090E091
:101FD0000E94BA06809350058DE090E00E94BA06F8
:101FE0008093500580914E0590914F05A09150052A
:101FF000B091510580936A0590936B05A0936C0591
:10200000B0936D058EE090E00E94BA0680934E0575
:102010008FE090E00E94BA0680934F0580E190E047
:102020000E94BA068093500581E190E00E94BA06B2
:102030008093500580914E0590914F05A0915005D9
:10204000B09151058093660590936705A09368054C
:10205000B09369056091190170911A0180911B017B
:1020600090911C0120E030E044E352E40E94C81645
:10207000181664F480E090E0A4E3B2E480931901C0
:1020800090931A01A0931B01B0931C016091190158
:1020900070911A0180911B0190911C0120E030E0A9
:1020A00040E251E40E94691587FF0CC080E090E097
:1020B000A0E2B1E48093190190931A01A0931B014F
:1020C000B0931C0182E190E00E94BA0690E09093E8
:1020D0005F0580935E0583E190E00E94BA0690E080
:1020E00090935D0580935C0580E193E00E94CB0CAA
:1020F0000E94430B0E94CA0A0E94E40811E0109358
:1021000018010E94BC060E94430A86E68093BA002A
:102110008DE091E0909349058093480589E191E035
:10212000909347058093460510924505109244050B
:1021300010924305109242051092410510934005FC
:1021400010923F0561E082E10E94920361E083E129
:102150000E9492038091B9008E7F8093B900809194
:10216000B9008D7F8093B90088E48093B80085E43E
:102170008093BC0082EC93E090934B0580934A05DA
:1021800082EA92E090934D0580934C0582E4D82E2C
:1021900069E170E080E090E00E94AC048DE895E099
:1021A0000E94CE0B892B09F47EC000918B05109103
:1021B0008C058DE895E001151105A9F50E94A60B87
:1021C000813341F48DE992E00E94CB0C81E0809351
:1021D000760569C0803339F486E892E00E94CB0C22
:1021E0001092760560C0823339F4809176058111B2
:1021F0005AC00E94430A57C0833379F48EE293E0B9
:102200000E94CB0C81E493E00E94CB0C81E090E033
:1022100090938C0580938B0583C1843309F043C070
:102220000E94430B40C00E94A60B8D3009F07BC179
:102230002091890530918A05121613060CF483C18A
:1022400072C1033011050CF0BEC10130110531F52A
:10225000C7010E94AA14609372057093730580935E
:102260007405909375058FE092E00E94570D609180
:1022700072057091730580917405909175050E94A7
:10228000490D8AE593E00E94CB0C80918B059091DB
:102290008C05019690938C0580938B050FB6F8946E
:1022A000BEBE0FBEADBEF8948EE00E9469032091C1
:1022B0008205892B09F03FC0211140C0809178052B
:1022C0009091790501969093790580937805809196
:1022D000780590917905819788F120915E0530917C
:1022E0005F0581E090E0232B11F080E090E0909377
:1022F0005F0580935E0580915E0590915F05892B57
:1023000061F0109279051092780581E08093820542
:1023100089EF93E00E94CB0C11C001E211E0F801BB
:1023200080810E5F1F4F60E00E949203F1E00B324C
:102330001F07A9F7E6CF211110928205609162056F
:102340007091630580916405909165052091190154
:1023500030911A0140911B0150911C010E94691596
:10236000811178C180915E0590915F052091600593
:10237000309161052817390709F06CC120915C057F
:1023800030915D0580915A0590915B0528173907BA
:1023900009F060C10E94E6040091560510915705AE
:1023A00020915805309159056017710782079307EE
:1023B00040F410925605109257051092580510924D
:1023C00059050E94E6040091560510915705209189
:1023D000580530915905DC01CB01801B910BA20BF4
:1023E000B30B81319742A105B10508F04DC10E94A0
:1023F000E60400917E0510917F05209180053091C3
:102400008105601771078207930740F410927E05DB
:1024100010927F0510928005109281050E94E604BB
:1024200000917E0510917F052091800530918105F6
:10243000DC01CB01801B910BA20BB30B813D9740BC
:10244000A105B10508F450C00E94BC06D0927C00E2
:1024500080917A00806480937A0080917A0086FD72
:10246000FCCF009178008091790010E0182B0333A5
:1024700011050CF0F9C181E10E946903892B09F073
:10248000FBC180917C0590917D05019690937D051F
:1024900080937C0580917C0590917D050397D1F414
:1024A00061E081E10E94920310927D0510927C050B
:1024B0008091760581110EC085E194E00E94570D50
:1024C000B801110F880B990B0E941F0D8BE294E04D
:1024D0000E94CB0C0E94E60460937E0570937F05FA
:1024E00080938005909381050E94E6040091520537
:1024F00010915305209154053091550560177107CF
:102500008207930740F410925205109253051092DF
:102510005405109255058091760581119EC07894DE
:102520000E94E40B35CE2091890530918A05A901DE
:102530004F5F5F4F50938A0540938905F901ED572E
:10254000FA4F8083B0CEADB6BEB68091890590912A
:102550008A0501972DB73EB7281B390B0FB6F894A3
:102560003EBF0FBE2DBF8DB79EB701967C01409137
:10257000890550918A0563E875E00E946C171092F6
:102580008A05109289050230110509F05ACEC7015B
:102590000E94AA1460936E0570936F058093700576
:1025A000909371058CE192E00E94570D60916E0549
:1025B00070916F0580917005909171050E94490D91
:1025C00084E893E060CE03301105E1F4C7010E9476
:1025D000AA1460936A0570936B0580936C059093C1
:1025E0006D0584E392E00E94570D60916A05709139
:1025F0006B0580916C0590916D050E94490D87EAED
:1026000093E041CE0430110509F048CEC7010E9485
:10261000AA1460936605709367058093680590938C
:10262000690585E492E00E94570D609166057091FE
:10263000670580916805909169050E94490D8DECB0
:1026400093E00E94CB0C10928C0510928B050E9497
:10265000CA0A24CE0E94E408CACE0E94E604009171
:102660005205109153052091540530915505DC0118
:10267000CB01801B910BA20BB30B893E9340A105AC
:10268000B10508F02BC14BCF809118018111AFCE5D
:102690006091190170911A0180911B0190911C01A8
:1026A0000E94E01580E090E00E94B8068090190139
:1026B00090901A01A0901B01B0901C01609119012B
:1026C00070911A0180911B0190911C010E94E015EC
:1026D000072E000C880B990B0E9418169B01AC0169
:1026E000C501B4010E94FC1420E030E040E251E456
:1026F0000E94CD160E94E01581E090E00E94B8068D
:1027000060915E0570915F0582E190E00E94B806DD
:1027100060915C0583E190E00E94B80680917205AB
:10272000309173052091740590917505682F809301
:102730004E0530934F05209350059093510582E04C
:1027400090E00E94B80660914F0583E090E00E94FF
:10275000B8066091500584E090E00E94B806609150
:10276000510585E090E00E94B80680916E05309199
:102770006F052091700590917105682F80934E052B
:1027800030934F05209350059093510586E090E0DB
:102790000E94B80660914F0587E090E00E94B8065D
:1027A0006091500588E090E00E94B8066091510564
:1027B00089E090E00E94B80680916A0530916B052F
:1027C00020916C0590916D05682F80934E05309394
:1027D0004F0520935005909351058AE090E00E94A8
:1027E000B80660914F058BE090E00E94B8066091BA
:1027F00050058CE090E00E94B806609151058DE094
:1028000090E00E94B806809166053091670520919E
:10281000680590916905682F80934E0530934F05A8
:1028200020935005909351058EE090E00E94B806E9
:1028300060914F058FE090E00E94B80660915005CE
:1028400080E190E00E94B8066091510581E190E03E
:102850000E94B8060E94CA0A81E08093180180E5B0
:1028600094E00E94CB0CC3CD0C3311052CF081E118
:102870000E946903892B49F410927D0510927C0512
:1028800010927B0510927A0525CE80917A05909161
:102890007B05019690937B0580937A0580917A055C
:1028A00090917B05039709F015CE60E081E10E94CD
:1028B000920310927B0510927A0580917605811122
:1028C00009CE85E194E00E94570DB801110F880BE5
:1028D000990B0E941F0D8DE394E0FACD0E94430AEC
:1028E0001ECEEDE8F5E01382128288EE93E0A0E0C0
:1028F000B0E084839583A683B7832FE231E03183F0
:10290000208325EC30E03587248724EC30E03787BE
:10291000268720EC30E0318B208B21EC30E0338BAC
:10292000228B22EC30E0358B248B26EC30E0378B89
:10293000268B128E138E148E158EEBEAF6E0138220
:10294000128284839583A683B7838FE391E091837A
:10295000808308951F93FC0199278827BC01E89480
:1029600011911032E9F3193010F01E30C8F31B3208
:1029700051F01D3249F4689406C00E94D114610FD1
:10298000711D811D911D119110531A30B0F33EF449
:1029900090958095709561957F4F8F4F9F4F1F91B8
:1029A0000895592F482F372F262F660F771F881F1E
:1029B000991F660F771F881F991F620F731F841F4F
:1029C000951F660F771F881F991F0895F999FECFED
:1029D00092BD81BDF89A992780B50895262FF9995F
:1029E000FECF1FBA92BD81BD20BD0FB6F894FA9AF2
:1029F000F99A0FBE019608955058BB27AA270E9446
:102A000014150C948E160E94801638F00E948716BA
:102A100020F039F49F3F19F426F40C947D160EF43F
:102A2000E095E7FB0C947716E92F0E949F1658F368
:102A3000BA17620773078407950720F079F4A6F5A3
:102A40000C94C1160EF4E0950B2EBA2FA02D0B019D
:102A5000B90190010C01CA01A0011124FF27591BE3
:102A600099F0593F50F4503E68F11A16F040A22FE9
:102A7000232F342F4427585FF3CF4695379527955A
:102A8000A795F0405395C9F77EF41F16BA0B620B59
:102A9000730B840BBAF09150A1F0FF0FBB1F661FA0
:102AA000771F881FC2F70EC0BA0F621F731F841FE3
:102AB00048F4879577956795B795F7959E3F08F009
:102AC000B0CF9395880F08F09927EE0F97958795CB
:102AD00008950E94531608F481E008950E9482151B
:102AE0000C948E160E94871658F00E94801640F0B3
:102AF00029F45F3F29F00C94771651110C94C216FB
:102B00000C947D160E949F1668F39923B1F3552308
:102B100091F3951B550BBB27AA27621773078407F0
:102B200038F09F5F5F4F220F331F441FAA1FA9F386
:102B300035D00E2E3AF0E0E832D091505040E69574
:102B4000001CCAF72BD0FE2F29D0660F771F881FD5
:102B5000BB1F261737074807AB07B0E809F0BB0BC8
:102B6000802DBF01FF2793585F4F3AF09E3F5105DC
:102B700078F00C9477160C94C2165F3FE4F3983EFD
:102B8000D4F3869577956795B795F7959F5FC9F7C5
:102B9000880F911D9695879597F90895E1E0660F46
:102BA000771F881FBB1F621773078407BA0720F0BF
:102BB000621B730B840BBA0BEE1F88F7E095089528
:102BC0000E94E7156894B1110C94C21608950E94F2
:102BD000A71688F09F5798F0B92F9927B751B0F0F2
:102BE000E1F0660F771F881F991F1AF0BA95C9F791
:102BF00014C0B13091F00E94C116B1E008950C9458
:102C0000C116672F782F8827B85F39F0B93FCCF30A
:102C1000869577956795B395D9F73EF4909580950D
:102C2000709561957F4F8F4F9F4F0895E89409C02D
:102C300097FB3EF490958095709561957F4F8F4FEF
:102C40009F4F9923A9F0F92F96E9BB279395F69505
:102C5000879577956795B795F111F8CFFAF4BB0F83
:102C600011F460FF1BC06F5F7F4F8F4F9F4F16C0E7
:102C7000882311F096E911C0772321F09EE8872F71
:102C8000762F05C0662371F096E8862F70E060E02D
:102C90002AF09A95660F771F881FDAF7880F9695A6
:102CA000879597F90895990F0008550FAA0BE0E84A
:102CB000FEEF16161706E807F907C0F012161306FE
:102CC000E407F50798F0621B730B840B950B39F43E
:102CD0000A2661F0232B242B252B21F408950A26A4
:102CE00009F4A140A6958FEF811D811D089597F9E4
:102CF0009F6780E870E060E008959FEF80EC0895A2
:102D000000240A94161617061806090608950024CA
:102D10000A9412161306140605060895092E039444
:102D2000000C11F4882352F0BB0F40F4BF2B11F4B8
:102D300060FF04C06F5F7F4F8F4F9F4F089557FD17
:102D40009058440F551F59F05F3F71F04795880F19
:102D500097FB991F61F09F3F79F0879508951216B0
:102D600013061406551FF2CF4695F1DF08C016165C
:102D700017061806991FF1CF86957105610508940D
:102D80000895E894BB2766277727CB0197F9089524
:102D90000E94531608F48FEF08950E94E0160C94D9
:102DA0008E160E94801638F00E94871620F0952318
:102DB00011F00C9477160C947D1611240C94C21605
:102DC0000E949F1670F3959FC1F3950F50E0551F19
:102DD000629FF001729FBB27F00DB11D639FAA2770
:102DE000F00DB11DAA1F649F6627B00DA11D661FBF
:102DF000829F2227B00DA11D621F739FB00DA11DE0
:102E0000621F839FA00D611D221F749F3327A00D99
:102E1000611D231F849F600D211D822F762F6A2F35
:102E200011249F5750409AF0F1F088234AF0EE0F9A
:102E3000FF1FBB1F661F771F881F91505040A9F7C7
:102E40009E3F510580F00C9477160C94C2165F3F9C
:102E5000E4F3983ED4F3869577956795B795F79503
:102E6000E7959F5FC1F7FE2B880F911D969587957B
:102E700097F908950E945316880B990B0895A1E2C3
:102E80001A2EAA1BBB1BFD010DC0AA1FBB1FEE1FE4
:102E9000FF1FA217B307E407F50720F0A21BB30B2F
:102EA000E40BF50B661F771F881F991F1A9469F7AB
:102EB00060957095809590959B01AC01BD01CF0107
:102EC0000895EE0FFF1F0590F491E02D099481E025
:102ED00090E0F8940C947517FB01DC0102C001909E
:0E2EE0000D9241505040D8F70895F894FFCF5E
:102EEE000000204100002041000020410000204150
:102EFE0000002041DA00DA0001000020410F000A34
:102F0E00000500060007000800090000000000A2EE
:102F1E00017B0BCE0BA60BBE0B8C0C0000000083AE
:102F2E00016F016701530144014301456E636F64F4
:102F3E006572202B00456E636F646572202D004311
:102F4E006F6E74726F6C6C657220636F6D6D616EF7
:102F5E00643A20000D0A00436F6E74726F6C6C65DC
:102F6E00722074656D703A20005A6F6E65200020D5
:102F7E0054656D703A200027432053746174757345
:102F8E003A200054656D70203D20004E6577207408
:102F9E00656D703A20004E657720646576696365CD
:102FAE002073746174653A20005057520954454D90
:102FBE0050095A6F6E6531095A6F6E6532095A6F34
:102FCE006E6533095A6F6E6534095A6F6E6535003A
:102FDE005A4F4E455F52454C4159094F4E09005AC2
:102FEE004F4E455F52454C4159094F464609004EDA
:102FFE0054435F425F436F6566663D004E54435FC8
:10300E004E6F6D696E616C5F526573697374616E3C
:10301E0063653D0053657269616C5F5265736973D8
:10302E00746F723D004E6F6D696E616C5F543D0042
:10303E002A2A2A2A2863293230313820566C6164B4
:10304E00696D69722050616B686F6D6F7620676174
:10305E00334079616E6465782E72752A2A2A2A00A9
:10306E00223022202D204465627567206F757470A2
:10307E007574204F464600223122202D2044656271
:10308E007567206F7574707574204F4E0022322252
:10309E00202D2053686F77206465766963652073F1
:1030AE0074617465206F6E636500223322202D20BB
:1030BE004E54432073656E736F727320636F6E731D
:1030CE0074616E74732073657475700022342220DF
:1030DE002D20446973706C6179204E5443207365C2
:1030EE006E736F727320636F6E7374616E747300A0
:1030FE00526573746F7265642073657474696E675C
:10310E00732066726F6D20454550524F4D005365CA
:10311E00747570206D6F646520656E74657265647C
:10312E0000456E746572204E54435F425F434F45B7
:10313E0046462076616C75653A00456E7465722060
:10314E004E54435F4E6F6D696E616C5F526573696D
:10315E007374616E63652076616C756520284F68A7
:10316E006D293A00456E7465722053657269616C03
:10317E005F5265736973746F722076616C7565202A
:10318E00284F686D293A00456E746572204E6F6D3A
:10319E00696E616C5F54656D706572617475726590
:1031AE002076616C756520282743293A0053657493
:1031BE0075702076616C75657320656E74657265C9
:1031CE00642C20657869742066726F6D2073657447
:1031DE007570206D6F64652E005075736820427592
:1031EE0074746F6E206576656E742074726967678D
:1031FE0065726564004C696768742053656E736F01
:10320E00722056616C7565203D20002E204275742B
:10321E00746F6E204C69676874204F4E002E2042EA
:10322E007574746F6E204C69676874204F46460043
:10323E0043757272656E742073657474696E67730C
:10324E0020736176656420746F20454550524F4D52
:0E325E00006E616E00696E66006F766600009D
:00000001FF
