:100000000C9462000C949D050C9476050C948A0067
:100010000C948A000C948A000C948A000C948A0038
:100020000C948A000C948A000C948A000C948A0028
:100030000C948A000C948A000C948A000C948A0018
:100040000C942C050C948A000C94200C0C94FA0B44
:100050000C948A000C948A000C948A000C948A00F8
:100060000C94C4050C948A000000000025002800B0
:100070002B000000000023002600290000000008DB
:10008000000201000003040700000000000000005F
:1000900000000000240027002A00010204081020AC
:1000A000408001020408102001020408102004040A
:1000B0000404040404040202020202020303030310
:1000C00003030C1411241FBECFEFD8E0DEBFCDBF59
:1000D00014E0A0E0B1E0E4E2FEE202C005900D927F
:1000E000A638B107D9F726E0A6E8B4E001C01D9212
:1000F000AB3AB207E1F710E0C2E6D0E004C02197C6
:10010000FE010E94FC16C136D107C9F70E94E30D1B
:100110000C9410170C940000FC01928D238D892FF4
:1001200090E0805C9F4F821B91098F7399270895FF
:1001300080E090E0892B29F00E94CC0B81110C9477
:1001400000000895833081F028F4813099F08230E6
:10015000A1F008958730A9F08830B9F08430D1F447
:10016000809180008F7D03C0809180008F77809385
:100170008000089584B58F7702C084B58F7D84BDDB
:1001800008958091B0008F7703C08091B0008F7D7B
:100190008093B00008953FB7F89480914305909103
:1001A0004405A0914505B091460526B5A89B05C01C
:1001B0002F3F19F00196A11DB11D3FBFBA2FA92FE6
:1001C000982F8827820F911DA11DB11DBC01CD0163
:1001D00042E0660F771F881F991F4A95D1F708954F
:1001E000089585ED8093BC008091BC0084FDFCCF18
:1001F0001092490508954091F704262F30E0240F0E
:10020000311D21323105DCF4209149052430C9F437
:10021000FC0180E090E0861758F43091F7042191BA
:10022000DC01A952BB4FA30FB11D2C930196F3CF54
:100230008091F704680F6093F70480E0089581E0EF
:10024000089582E00895E0915405F09155053097A6
:1002500029F010924B0510924A0509940895CF9306
:10026000DF93AC01E0915205F09153053097F1F026
:1002700090914D0580914C059817C0F090E0292F82
:1002800030E02617370754F4D901A954BB4FEA01CF
:10029000C20FD31F88818C939F5FF1CF10924D05C1
:1002A00060934C05CB01DF91CF910994DF91CF9101
:1002B00008950895E0914D0580914C05E81730F4BC
:1002C000F0E0E954FB4F808190E008958FEF9FEFBD
:1002D000089590914D0580914C05981750F4E92FA1
:1002E000F0E0E954FB4F208130E09F5F90934D0593
:1002F00002C02FEF3FEFC901089580914C0590E0B7
:1003000020914D05821B91090895CF93DF9300D072
:10031000CDB7DEB7CB01642F49835A830E94FB001F
:100320004981842F5A81952F0F900F90DF91CF91A3
:100330000895CF93DF931F92CDB7DEB7698361E055
:10034000CE0101960E94FB0081E090E00F90DF91CA
:10035000CF9108958F929F92AF92BF92EF92FF92AA
:100360000F931F93CF93DF93E12CF12CC0E0D0E0EB
:10037000812C912C54018701000F111F000F111FB8
:1003800000501F4FF801608171818281938120E0CC
:1003900030E04CE652E40E94041587FF0EC0F801DD
:1003A000608171818281938120E030E040E151ECF5
:1003B0000E94631618160CF487C0FFEFEF1AFF0AAD
:1003C00085E0E816F104B9F62097D1F0BE01DD0F03
:1003D000880B990B0E94B3159B01AC01C501B401B8
:1003E0000E9409158B01D82FC92F5B01E82EF92E29
:1003F00020E030E0A9010E94631687FF05C00DC010
:10040000A12CB12CE12CF12C20E030E040E05FE3A6
:10041000B501C7010E94981409C020E030E040E017
:100420005FE3B8018D2F9C2F0E9497140E947B15CB
:10043000D62F6091190170911A0180911B01909142
:100440001C0120E030E0A9010E94631687FD0FC067
:100450006091190170911A0180911B0190911C010A
:1004600020E030E040E05FE30E9498140EC060910D
:10047000190170911A0180911B0190911C0120E0DB
:1004800030E040E05FE30E9497140E947B15C62F86
:100490006D2F8FE996E00E9499016C2F8FE996E00D
:1004A0000E94990160916205709163058FE996E061
:1004B000DF91CF911F910F91FF90EF90BF90AF9080
:1004C0009F908F900C949901F80120813181428195
:1004D0005381C501B4010E9498144B015C0121961F
:1004E0006CCF8EBD00000DB407FEFDCF8EB5089514
:1004F0000E947102E3E2F0E03197F1F70895F89479
:1005000089B18C7080938A0480918A048C3021F4A4
:1005100080918904811109C080918A04883019F47E
:1005200081E0809388047894089580916205909189
:100530006305892BB1F18BE591E00E94C70C6091B6
:10054000190170911A0180911B0190911C0120E00A
:1005500030E040E05FE30E949814609319017093CB
:100560001A0180931B0190931C01609119017091F5
:100570001A0180911B0190911C0120E030E044E3BE
:1005800052E40E946316181664F480E090E0A4E33D
:10059000B2E48093190190931A01A0931B01B093C8
:1005A0001C011092890410928804BDCFF89489B17F
:1005B0008C7080938A0480918A048C3021F480911D
:1005C0008804811109C080918A04843019F481E083
:1005D00080938904789408958091620590916305D1
:1005E000892BB1F185E691E00E94C70C6091190159
:1005F00070911A0180911B0190911C0120E030E064
:1006000040E05FE30E9497146093190170931A0110
:1006100080931B0190931C016091190170911A0144
:1006200080911B0190911C0120E030E040E251E4F8
:100630000E94041587FF0CC080E090E0A0E2B1E4C6
:100640008093190190931A01A0931B01B0931C0190
:100650001092890410928804BDCFFC01258D820F71
:10066000911D820F911DDC01A256BF4F2D913C912F
:10067000858D90E001968F739927858FA289B38924
:100680008C9130FF02C0816001C08E7F8C93A6895F
:10069000B7892C93A089B1898C9180648C93948DB7
:1006A000858D981306C00288F389E02D80818F7DA7
:1006B00080830895EF92FF920F931F93CF93DF9360
:1006C000EC0181E0888F9C8D8D8D981305C0E889A1
:1006D000F989808185FD2AC0F62E0C8D10E00F5F10
:1006E0001F4F0F731127E02E8D8DE8120CC00FB62F
:1006F00007FCFACFE889F989808185FFF5CFCE0123
:100700000E942D03F1CF2C8DCE01820F911D820FFF
:10071000911DFC01E256FF4F6F2D70E071836083E5
:100720000C8FEA89FB89808180620CC0EA89FB8991
:1007300080818E7F8083EE89FF896083E889F989D3
:1007400080818064808381E090E0DF91CF911F9170
:100750000F91FF90EF900895CF93DF93282F30E013
:10076000F901E458FF4F8491F901E656FF4FD49107
:10077000F901E255FF4FC491CC2391F081110E9401
:10078000A200EC2FF0E0EE0FFF1FEE58FF4FA591F7
:10079000B491EC91ED2381E090E021F480E002C07F
:1007A00080E090E0DF91CF9108951F93CF93DF9386
:1007B000282F30E0F901E458FF4F8491F901E65603
:1007C000FF4FD491F901E255FF4FC491CC23C9F0FA
:1007D000162F81110E94A200EC2FF0E0EE0FFF1FF8
:1007E000E859FF4FA591B4918FB7F894111105C046
:1007F0009C91ED2FE095E92302C0EC91ED2BEC9359
:100800008FBFDF91CF911F9108950F931F93CF93C7
:10081000DF93029709F099C08FE996E00E94690181
:100820008C018FE996E00E94690190938704809380
:1008300086048230910540F080918604909187046F
:10084000039709F082C028C09093630580936205E6
:100850008FE691E00E940D0D609162057091630535
:10086000072E000C880B990B0E94D50C84E891E0B0
:100870000E94740C8091620590916305892BE1F6CA
:10088000C1E3D1E08881229660E00E94D50381E037
:10089000CB33D807B9F7D0CFB801110F880B990B1C
:1008A0000E94B3156093190170931A0180931B0184
:1008B00090931C0187E891E00E940D0D6091190151
:1008C00070911A0180911B0190911C0140E00E94DF
:1008D0000F0D84E891E00E94740C609119017091F1
:1008E0001A0180911B0190911C0120E030E044E34B
:1008F00052E40E946316181664F480E090E0A4E3CA
:10090000B2E48093190190931A01A0931B01B09354
:100910001C016091190170911A0180911B01909145
:100920001C0120E030E040E251E40E94041587FF02
:100930000CC080E090E0A0E2B1E4809319019093B4
:100940001A01A0931B01B0931C01DF91CF911F915D
:100950000F910895CF93DF9390E0FC01E656FF4F8F
:100960002491FC01E255FF4F8491882361F190E0CE
:10097000880F991FFC01E057FF4FC591D491FC01EE
:10098000E859FF4FA591B491611109C09FB7F89440
:100990008881209582238883EC912E230BC06230BE
:1009A00061F49FB7F8943881822F809583238883E0
:1009B000EC912E2B2C939FBF06C08FB7F894E88143
:1009C0002E2B28838FBFDF91CF9108958F929F9216
:1009D000AF92BF92CF92DF92EF92FF926B017C01B8
:1009E0000E94CB004B015C01C114D104E104F1046D
:1009F000F1F00E94CB00DC01CB0188199909AA090A
:100A0000BB09883E9340A105B10570F321E0C21AED
:100A1000D108E108F10888EE880E83E0981EA11C39
:100A2000B11CC114D104E104F10419F7DDCFFF902A
:100A3000EF90DF90CF90BF90AF909F908F900895F0
:100A40002FB7F89460913F05709140058091410562
:100A5000909142052FBF08951F920F920FB60F92EB
:100A600011242F933F938F939F93AF93BF938091C4
:100A70003F0590914005A0914105B091420530910C
:100A80003E0523E0230F2D3720F40196A11DB11D53
:100A900005C026E8230F0296A11DB11D20933E0537
:100AA00080933F0590934005A0934105B093420584
:100AB0008091430590914405A0914505B09146056C
:100AC0000196A11DB11D8093430590934405A09309
:100AD0004505B0934605BF91AF919F918F913F918E
:100AE0002F910F900FBE0F901F9018951F920F928D
:100AF0000FB60F9211242F933F934F935F936F93F1
:100B00007F938F939F93AF93BF93EF93FF93E09166
:100B10001601F09117010995FF91EF91BF91AF91E7
:100B20009F918F917F916F915F914F913F912F9105
:100B30000F900FBE0F901F9018951F920F920FB637
:100B40000F9211242F933F934F935F936F937F9353
:100B50008F939F93AF93BF93EF93FF93E091140113
:100B6000F09115010995FF91EF91BF91AF919F9180
:100B70008F917F916F915F914F913F912F910F9046
:100B80000FBE0F901F9018951F920F920FB60F92E5
:100B900011242F933F934F935F936F937F938F9382
:100BA0009F93AF93BF93EF93FF938091B900887F9A
:100BB000803609F49CC068F5883209F45BC090F473
:100BC000803109F454C038F4882309F4F6C0883021
:100BD00009F44DC0F6C0883109F44CC0803209F4E4
:100BE0005DC0EFC0803409F468C048F4803309F474
:100BF00055C0883309F0E5C080931A05D8C0803508
:100C000009F44FC0883509F45DC0883409F0D9C0B3
:100C1000D6C0883909F4C7C0A8F4883709F467C07A
:100C200038F4883609F463C0803709F460C0C9C05D
:100C3000883809F4B8C0803909F45FC0803809F0F9
:100C4000C0C05BC0803B09F486C038F4803A09F428
:100C500066C0883A09F47FC0B4C0803C09F4A7C0DC
:100C6000883C09F4A4C0883B09F48AC0AAC08091DA
:100C70003D0510C090913C0580913B05981770F59B
:100C8000E0913C0581E08E0F80933C05F0E0E55E4D
:100C9000FA4F80818093BB0085EC86C080931A0553
:100CA0008EC0E0913C0581E08E0F80933C058091E1
:100CB000BB00F0E0E55EFA4F808390913C058091A7
:100CC0003B056EC0E0913C0581E08E0F80933C05B2
:100CD0008091BB00F0E0E55EFA4F8083809148058B
:100CE00081116DC081E08093470584EA61C083E093
:100CF0008093490510921905CFCF80911905803254
:100D000008F051C0E091190581E08E0F809319051C
:100D10008091BB00F0E0E750FB4F8083BDCF85ECB6
:100D20008093BC001092490580911905803230F4FF
:100D3000E0911905F0E0E750FB4F10826091190532
:100D400070E0E0914E05F0914F0589EF94E0099530
:100D50001092190536C084E0809349051092F8047A
:100D60001092F704E0915005F0915105099580919A
:100D7000F704811105C081E08093F7041092D70435
:100D8000E091F80481E08E0F8093F804F0E0E952DE
:100D9000FB4F80818093BB009091F8048091F70411
:100DA000981708F479CF85E88093BC000AC085ECD9
:100DB0008093BC001092490504C010921A050E944D
:100DC000F100FF91EF91BF91AF919F918F917F9132
:100DD0006F915F914F913F912F910F900FBE0F90A8
:100DE0001F9018950C9489140C9481142F923F92A3
:100DF0004F925F926F927F928F929F92AF92BF922B
:100E0000CF92DF92EF92FF920F931F93CF93DF93D6
:100E1000CDB7DEB764970FB6F894DEBF0FBECDBF77
:100E200080E090E0A0E2B1EC80930001909301019A
:100E3000A0930201B09303018093040190930501F4
:100E4000A0930601B09307018093080190930901D4
:100E5000A0930A01B0930B0180930C0190930D01B4
:100E6000A0930E01B0930F01809310019093110194
:100E7000A0931201B093130160E08FE00E94D503AC
:100E80008091A6040E94780247EAE42E44E0F42E02
:100E90008E010F5F1F4F6E0181E1C80ED11CF7015B
:100EA00081917F010E947802F80181938F01EC15F6
:100EB000FD05A9F780916205909163050E94780273
:100EC000898B80916205909163050E9478028A8BDC
:100ED00080916205909163050E9478028B8B8091CE
:100EE0006205909163050E9478028C8B61E08FE02F
:100EF0000E94D50361E070E080E090E00E94E6048B
:100F0000FE01349680E090E0DF0113972C9120934E
:100F1000A20411962C912093A30411962C91209356
:100F2000A40420812093A5044091A2045091A3041D
:100F30006091A4047091A504DC01AA0FBB1FAA0F45
:100F4000BB1FA050BF4F4D935D936D937C93139740
:100F50000196349685309105B9F68091620590919D
:100F60006305892B09F451C121E3A22E21E0B22EA1
:100F7000E12CF12C6701CC0CDD1CCC0CDD1CC60176
:100F800080509F4F4C01FC0160817181828193816F
:100F90002090190130901A0140901B0150901C01C3
:100FA00020E030E040E251E40E9468160E947B1588
:100FB0003B0120E030E040E05FE3C201B1010E946C
:100FC000981420E030E040E251E40E9468160E944C
:100FD0007B158701000F111F66167706DCF4F401FC
:100FE000608171818281938120E030E04CE652E49F
:100FF0000E94631687FF0EC0F401608171818281B7
:10100000938120E030E040E251EC0E940415181674
:101010000CF442C0F5019080892D0E94AC03892B0D
:10102000D9F108561B4FF801208131812F5F3F4FC6
:101030003183208380819181039709F0E6C060E0CD
:10104000892D0E94D503F8011182108280916A05D2
:101050008111DBC089E991E00E940D0DB7016F5F3E
:101060007F4F072E000C880B990B0E94D50C8FE93F
:1010700091E00E940D0DF601E050FF4F60817181FB
:101080008281938141E00E940F0D87EA91E00E94E6
:101090000D0D83E594E08AC0C60180509F4F6C011E
:1010A000FC0160817181828193814090190150908F
:1010B0001A0160901B0170901C0120E030E040E2BA
:1010C00051E40E9468160E947B154B0120E030E03D
:1010D00040E05FE3C301B2010E94971420E030E0DA
:1010E00040E251E40E9468160E947B15681579055C
:1010F0000CF476C0F601608171818281938120E0D9
:1011000030E040E251EC0E94631618160CF068C003
:10111000F5019080892D0E94AC03892B09F060C0F5
:10112000F601608171818281938120E030E040E3AB
:1011300051EC0E94631618160CF052C002571B4F58
:10114000F801208131812F5F3F4F318320838081DF
:101150009181039709F059C061E0892D0E94D50360
:10116000F8011182108280916A0581114EC089E9CF
:1011700091E00E940D0DB7016F5F7F4F072E000CAD
:10118000880B990B0E94D50C8FE991E00E940D0D00
:10119000F601608171818281938141E00E940F0D8F
:1011A00087EA91E00E940D0D81E494E064960FB609
:1011B000F894DEBF0FBECDBFDF91CF911F910F918D
:1011C000FF90EF90DF90CF90BF90AF909F908F9067
:1011D0007F906F905F904F903F902F900C94C70C32
:1011E000F801E856FB4F11821082F801E257FB4FDD
:1011F00011821082FFEFEF1AFF0A82E0A80EB11CE5
:1012000095E0E916F10409F0B5CE64960FB6F894AE
:10121000DEBF0FBECDBFDF91CF911F910F91FF9029
:10122000EF90DF90CF90BF90AF909F908F907F9086
:101230006F905F904F903F902F9008954F925F92E4
:101240006F927F928F929F92AF92BF92CF92DF92D6
:10125000EF92FF92CF93DF930E94200560935E058B
:1012600070935F058093600590936105109218015B
:101270006091660570916705809168059091690598
:101280002091190130911A0140911B0150911C01CC
:101290000E940415882329F080916A05882309F4A7
:1012A000D9C08091620590916305209164053091C9
:1012B00065052817390799F080916A0581110FC0DB
:1012C0008EEB91E00E940D0D809162059091630577
:1012D000892B09F4D3C082E494E00E94C70C80916A
:1012E000190190911A01A0911B01B0911C018093EA
:1012F000660590936705A0936805B0936905809192
:1013000062059091630590936505809364056091F3
:10131000190170911A0180911B0190911C0120E02C
:1013200030E040E251E40E9409150E947B154B0118
:101330005C0160938B04C0901901D0901A01E09079
:101340001B01F0901C01CB0199272AE0289FB001D6
:10135000299F700D1124072E000C880B990B0E94F9
:10136000B3152B013C019B01AC01C701B6010E94E2
:1013700097140E947B156B017C0160938C04609133
:10138000190170911A0180911B0190911C01A30118
:1013900092010E9497142B013C01B6017727072E7A
:1013A000000C880B990B0E94B3159B01AC01C30183
:1013B000B2010E94971420E030E040E251E40E9424
:1013C00068160E947B15762E60938D0460E08AE09B
:1013D0000E94D50361E070E080E090E00E94E604A6
:1013E000882D0E947102C3E2D0E0CE010197F1F78F
:1013F0008C2D0E947102CE010197F1F7872D0E947A
:101400007102CE010197F1F7809162059091630519
:101410000E947102CE010197F1F78DE00E947102E6
:101420002197F1F761E08AE00E94D50361E070E066
:1014300080E090E0DF91CF91FF90EF90DF90CF9030
:10144000BF90AF909F908F907F906F905F904F90E4
:101450000C94E60483EB91E00E940D0D609119015C
:1014600070911A0180911B0190911C0141E00E9432
:101470000F0D84E891E00E94740C13CF84E594E092
:101480002CCFCF93DF9381ED91E00E94C70C809128
:10149000620590916305892B19F082E494E002C003
:1014A00084E594E00E940D0D85E192E00E940D0D0F
:1014B0006091190170911A0180911B0190911C019A
:1014C00041E00E940F0DC0E0D0E085E192E00E9473
:1014D0000D0DFE01EE0FFF1FEE0FFF1FE050FF4F3F
:1014E000608171818281938141E00E940F0D21967C
:1014F000C530D10551F784E891E00E94740C85E075
:101500000E94AC03892B19F088EF91E002C087E0BC
:1015100092E00E940D0D86E00E94AC03892B19F029
:1015200083E092E002C082E192E00E940D0D87E02C
:101530000E94AC03892B19F083E092E002C082E1A3
:1015400092E00E940D0D88E00E94AC03892B19F0F7
:1015500083E092E002C082E192E00E940D0D89E0FA
:101560000E94AC03892B19F083E092E002C082E173
:1015700092E00E94C70C0E94200560935A05709368
:101580005B0580935C0590935D05DF91CF91089595
:101590008091290130912A0120912B0190912C01F9
:1015A000309357052093580590935905E6EAF4E0E7
:1015B000A6E5B5E0808311968C91119781831296F0
:1015C0008C911297828313968C91139783838091C9
:1015D0002501309126012091270190912801309317
:1015E00057052093580590935905848311968C9143
:1015F0001197858312968C911297868313968C91FE
:101600001397878380911D0130911E0120911F0146
:1016100090912001309357052093580590935905D8
:10162000808711968C911197818712968C911297D1
:10163000828713968C911397838780912101309133
:10164000220120912301909124018093560530932B
:1016500057052093580590935905848711968C91CE
:101660001197858712968C911297868713968C9185
:1016700087878091620590916305808B1092180195
:10168000089587E192E00E940D0D6091290170910B
:101690002A0180912B0190912C010E94FF0C84E281
:1016A00092E00E940D0D60912501709126018091BC
:1016B0002701909128010E94FF0C8CE392E00E9488
:1016C0000D0D609121017091220180912301909173
:1016D00024010E94FF0C8DE492E00E940D0D6091A8
:1016E0001D0170911E0180911F01909120010C94A9
:1016F000FF0CCF92DF92EF92FF920F931F93CF9345
:10170000DF936C017A018B01C0E0D0E0CE15DF05DC
:1017100089F0D8016D918D01D601ED91FC91019078
:10172000F081E02DC6010995892B11F47E0102C0DC
:101730002196ECCFC701DF91CF911F910F91FF90C0
:10174000EF90DF90CF900895FC01928D838D9817D4
:1017500081F0838DDF01A80FB11DA80FB11D5E962A
:101760008C915E975F969C91238D2F5F2F73238FB3
:1017700008958FEF9FEF0895FC01928D838D981748
:1017800041F0838DE80FF11DE80FF11D868D978DD7
:1017900008958FEF9FEF089581E895E00E948C00F7
:1017A00021E0892B09F420E0822F08950E9402177E
:1017B000CF93DF93EC01888D8823C9F0EA89FB89F8
:1017C000808185FD05C0A889B9898C9186FD0FC0EF
:1017D0000FB607FCF5CF808185FFF2CFA889B989C4
:1017E0008C9185FFEDCFCE010E942D03E7CFDF91D5
:1017F000CF9108951F920F920FB60F9211242F933D
:101800003F934F935F936F937F938F939F93AF9388
:10181000BF93EF93FF9381E895E00E942D03FF9122
:10182000EF91BF91AF919F918F917F916F915F9158
:101830004F913F912F910F900FBE0F901F901895D1
:101840001F920F920FB60F9211242F933F938F93F5
:101850009F93AF93BF93EF93FF93E0919105F09126
:1018600092058081A0919305B0919405E091970530
:10187000F091980582FD1EC08C91308120919B05CE
:101880002F5F2F7390919C052917B1F0E0919B0574
:10189000827090E09695982F882797958795F0E02D
:1018A000EE0FFF1FE156FA4F832B91838083209325
:1018B0009B0502C08C918081FF91EF91BF91AF9108
:1018C0009F918F913F912F910F900FBE0F901F907E
:1018D0001895E0918105F09182050190F081E02D4D
:1018E000682F81E895E00994009769F0FC01019068
:1018F0000020E9F73197AF01481B590BBC0181E883
:1019000095E00C94790B80E090E008958F929F927F
:10191000AF92BF920F931F93CF93DF93CDB7DEB7F4
:10192000A1970FB6F894DEBF0FBECDBF19A242300B
:1019300008F44AE08E010F5D1F4F842E912CA12CDC
:10194000B12CA50194010E94DA16E62FB901CA0153
:1019500001501109EA3014F4E05D01C0E95CD801DE
:10196000EC93232B242B252B61F7C8010E94740CC8
:10197000A1960FB6F894DEBF0FBECDBFDF91CF9119
:101980001F910F91BF90AF909F908F900895CF932C
:10199000DF930E94740CEC0184E891E00E94740CC7
:1019A0008C0F9D1FDF91CF910895CF92DF92EF9220
:1019B000FF92CF93DF9397FF19C06B017C018DE2FB
:1019C0000E94690CEC0166277727CB016C197D0911
:1019D0008E099F094AE00E94860C8C0F9D1FDF91A3
:1019E000CF91FF90EF90DF90CF9008954AE0DF9184
:1019F000CF91FF90EF90DF90CF900C94860CCF9317
:101A0000DF930E94D50CEC0184E891E00E94740CF5
:101A10008C0F9D1FDF91CF9108950C94740C4F9201
:101A20005F926F927F928F929F92AF92BF92CF926E
:101A3000DF92EF92FF926B017C01B42E9B01AC010F
:101A40000E94D516882319F089E794E027C0260163
:101A50003701E89477F82FEF3FEF4FE75FE7C301D7
:101A6000B2010E94D51681110DC02FEF3FEF4FE755
:101A70005FE7C301B2010E94041518161CF48DE73C
:101A800094E00CC02FEF3FEF4FE75FE4C701B601D2
:101A90000E946316181684F481E894E0FF90EF909A
:101AA000DF90CF90BF90AF909F908F907F906F907E
:101AB0005F904F900C94740C2FEF3FEF4FE75FEC6B
:101AC000C701B6010E94041587FDE6CF20E030E093
:101AD000A901C701B6010E94041587FF09C08DE264
:101AE0000E94690C4C01F7FAF094F7F8F09402C0E8
:101AF000812C912CA12C60E070E080E09FE3AB147E
:101B000041F020E030E040E251E40E940915A39446
:101B1000F6CF9B01AC01C701B6010E9498142B01BE
:101B20003C010E9482156B017C010E94B1159B0152
:101B3000AC01C301B2010E9497142B013C014AE0A1
:101B4000C701B6010E94860C7C01E80CF91CBB2081
:101B500029F08EE20E94690CE80EF91EDB2CDD20D4
:101B600021F120E030E040E251E4C301B2010E94E3
:101B700068162B013C010E9482154B01A12CB12C4F
:101B80004AE0C501B4010E94860CE80EF91EC501A9
:101B9000B4010E94B1159B01AC01C301B2010E94C6
:101BA00097142B013C01DA94DACFC701FF90EF9034
:101BB000DF90CF90BF90AF909F908F907F906F906D
:101BC0005F904F900895CF93DF93CDB7DEB77894B1
:101BD00084B5826084BD84B5816084BD85B5826032
:101BE00085BD85B5816085BD80916E0081608093E3
:101BF0006E0010928100809181008260809381004C
:101C0000809181008160809381008091800081605B
:101C1000809380008091B10084608093B1008091B6
:101C2000B00081608093B00080917A0084608093DE
:101C30007A0080917A00826080937A0080917A00A5
:101C4000816080937A0080917A00806880937A0026
:101C50001092C100E0919105F091920582E080839D
:101C6000E0918D05F0918E051082E0918F05F09145
:101C700090058FEC808310929905E0919505F09185
:101C8000960586E08083E0919305F091940580812C
:101C900080618083E0919305F09194058081886054
:101CA0008083E0919305F091940580818068808322
:101CB000E0919305F091940580818F7D808310924F
:101CC0009A05E0919305F091940580818B7F808344
:101CD00088E592E00E94C70C86E192E00E94C70C62
:101CE00088E892E00E94C70C8FE992E00E94C70C3E
:101CF00085EB92E00E94C70C82ED92E00E94C70C37
:101D000084EF92E00E94C70C60ED77E080E090E005
:101D10000E94E60460E080E10E94AA0462E08EE096
:101D20000E94AA0461E081E10E94AA0461E085E0CA
:101D30000E94AA0461E086E00E94AA0461E087E0B4
:101D40000E94AA0461E088E00E94AA0461E089E0A0
:101D50000E94AA0462E082E00E94AA0462E083E09A
:101D60000E94AA0486ED92E09093150180931401DD
:101D700080916900836080936900E89A8FE792E020
:101D80009093170180931601809169008C60809375
:101D90006900E99A61E08AE00E94AA0461E08AE0B1
:101DA0000E94D50361E08FE00E94AA0461E08FE009
:101DB0000E94D5031FB7F89480916B05811127C04D
:101DC000E8EBF0E08491E4EAF0E09491E82FF0E0B1
:101DD000EE0FFF1FE057FF4FA591B491EC91E9235F
:101DE00021F461E08AE00E94D50361E08AE00E946C
:101DF000AA048CB580618CBD8CB580648CBD61E01B
:101E00008DE00E94AA0461E08BE00E94AA04809108
:101E10006B058F5F80936B051FBF8CB58C7F8160D6
:101E20008CBD8DB581608DBD80E090E00E94F40690
:101E3000082F81E090E00E94F406182F602F70E0D8
:101E400080E090E00E94B3154B015C01612F70E0CF
:101E500080E090E00E94B3152DEC3CEC4CEC5DE38F
:101E60000E9468169B01AC01C501B4010E94981440
:101E70006093190170931A0180931B0190931C01C8
:101E800082E090E00E94F4068093560583E090E0A3
:101E90000E94F4068093570584E090E00E94F406C7
:101EA0008093580585E090E00E94F40680935805E1
:101EB0008091560590915705A0915805B09159050C
:101EC0008093290190932A01A0932B01B0932C01B8
:101ED00086E090E00E94F4068093560587E090E04B
:101EE0000E94F4068093570588E090E00E94F40673
:101EF0008093580589E090E00E94F406809358058D
:101F00008091560590915705A0915805B0915905BB
:101F10008093250190932601A0932701B093280177
:101F20008AE090E00E94F406809356058BE090E0F2
:101F30000E94F406809357058CE090E00E94F4061E
:101F4000809358058DE090E00E94F4068093580538
:101F50008091560590915705A0915805B09159056B
:101F60008093210190932201A0932301B093240137
:101F70008EE090E00E94F406809356058FE090E09A
:101F80000E94F4068093570580E190E00E94F406D9
:101F90008093580581E190E00E94F40680935805F3
:101FA0008091560590915705A0915805B09159051B
:101FB00080931D0190931E01A0931F01B0932001F7
:101FC0006091190170911A0180911B0190911C017F
:101FD00020E030E044E352E40E946316181664F4F3
:101FE00080E090E0A4E3B2E48093190190931A0199
:101FF000A0931B01B0931C016091190170911A010B
:1020000080911B0190911C0120E030E040E251E4FE
:102010000E94041587FF0CC080E090E0A0E2B1E4CC
:102020008093190190931A01A0931B01B0931C0196
:1020300082E190E00E94F40690E090936305809323
:10204000620588E193E00E94C70C0E94410B0E9448
:10205000C80A0E941E0911E0109318010E94F6069A
:102060000E94410A86E68093BA0083E291E0909351
:102070005105809350058FE291E090934F05809336
:102080004E0510924D0510924C0510924B05109282
:102090004A0510924905109348051092470561E0E2
:1020A00082E10E94D50361E083E10E94D503809123
:1020B000B9008E7F8093B9008091B9008D7F8093A5
:1020C000B90088E48093B80085E48093BC0085E083
:1020D00094E090935305809352058AEA91E090939F
:1020E00055058093540582E4D82E69E170E080E0C4
:1020F00090E00E94E60481E895E00E948C00892B24
:1021000009F47EC000917F051091800581E895E07B
:1021100001151105A9F50E94A40B813341F485EA4C
:1021200092E00E94C70C81E080936A0569C0803309
:1021300039F48EE892E00E94C70C10926A0560C0E4
:10214000823339F480916A0581115AC00E94410A94
:1021500057C0833379F486E393E00E94C70C89E487
:1021600093E00E94C70C81E090E0909380058093FB
:102170007F0577C1843309F043C00E94410B40C002
:102180000E94A40B8D3009F06FC120917D05309124
:102190007E05121613060CF477C166C103301105D3
:1021A0000CF0B2C10130110531F5C7010E94451490
:1021B0006093290170932A0180932B0190932C0145
:1021C00087E192E00E940D0D6091290170912A0132
:1021D00080912B0190912C010E94FF0C82E693E0EC
:1021E0000E94C70C80917F05909180050196909385
:1021F000800580937F050FB6F894BEBE0FBEADBEBE
:10220000F8948EE00E94AC0320917605892B09F0AA
:102210003FC0211140C080916C0590916D050196E1
:1022200090936D0580936C0580916C0590916D0580
:10223000819788F1209162053091630581E090E0FB
:10224000232B11F080E090E090936305809362056A
:102250008091620590916305892B61F010926D0564
:1022600010926C0581E08093760581E094E00E94F5
:10227000C70C11C001E311E0F80180810E5F1F4F10
:1022800060E00E94D503F1E00B331F07A9F7E6CF0A
:102290002111109276056091660570916705809115
:1022A0006805909169052091190130911A014091BA
:1022B0001B0150911C010E94041581116CC1809179
:1022C000620590916305209164053091650528179A
:1022D000390709F060C10E94200500915E05109148
:1022E0005F052091600530916105601771078207D5
:1022F000930740F410925E0510925F0510926005FE
:10230000109261050E94200500915E0510915F0505
:102310002091600530916105DC01CB01801B910BA0
:10232000A20BB30B81319742A105B10508F04DC155
:102330000E9420050091720510917305209174058B
:1023400030917505601771078207930740F410926A
:1023500072051092730510927405109275050E9413
:10236000200500917205109173052091740530913C
:102370007505DC01CB01801B910BA20BB30B813DDA
:102380009740A105B10508F450C00E94F606D0920E
:102390007C0080917A00806480937A0080917A003A
:1023A00086FDFCCF009178008091790010E0182B19
:1023B000033311050CF0F3C181E10E94AC03892BBA
:1023C00009F0F5C180917005909171050196909387
:1023D0007105809370058091700590917105039748
:1023E000D1F461E081E10E94D50310927105109251
:1023F000700580916A0581110EC08DE194E00E9404
:102400000D0DB801110F880B990B0E94D50C83E3B9
:1024100094E00E94C70C0E9420056093720570939F
:10242000730580937405909375050E9420050091B3
:102430005A0510915B0520915C0530915D05601790
:1024400071078207930740F410925A0510925B05BA
:1024500010925C0510925D0580916A0581119EC005
:1024600078940E94980041CE20917D0530917E05A0
:10247000A9014F5F5F4F50937E0540937D05F901A1
:10248000E958FA4F8083BCCEADB6BEB680917D05CB
:1024900090917E0501972DB73EB7281B390B0FB6DB
:1024A000F8943EBF0FBE2DBF8DB79EB701967C013D
:1024B00040917D0550917E0567E775E00E94071702
:1024C00010927E0510927D050230110509F066CE4E
:1024D000C7010E94451460932501709326018093E3
:1024E00027019093280184E292E00E940D0D6091F3
:1024F00025017091260180912701909128010E9469
:10250000FF0C8CE893E06CCE03301105E1F4C701B9
:102510000E9445146093210170932201809323014E
:10252000909324018CE392E00E940D0D60912101B3
:102530007091220180912301909124010E94FF0C4F
:102540008FEA93E04DCE0430110509F054CEC70157
:102550000E94451460931D0170931E0180931F011A
:10256000909320018DE492E00E940D0D60911D0179
:1025700070911E0180911F01909120010E94FF0C1B
:1025800085ED93E00E94C70C1092800510927F05A4
:102590000E94C80A30CE0E941E09CACE0E942005A1
:1025A00000915A0510915B0520915C0530915D0505
:1025B000DC01CB01801B910BA20BB30B893E934036
:1025C000A105B10508F025C14BCF809118018111FB
:1025D000AFCE6091190170911A0180911B01909109
:1025E0001C010E947B1580E090E00E94F206809022
:1025F000190190901A01A0901B01B0901C016091EC
:10260000190170911A0180911B0190911C010E9487
:102610007B15072E000C880B990B0E94B3159B01AC
:10262000AC01C501B4010E94971420E030E040E203
:1026300051E40E9468160E947B1581E090E00E94A0
:10264000F206609162057091630582E190E00E945C
:10265000F2068091290130912A0120912B0190915D
:102660002C01682F80935605309357052093580509
:102670009093590582E090E00E94F2066091570520
:1026800083E090E00E94F2066091580584E090E0BB
:102690000E94F2066091590585E090E00E94F206E2
:1026A00080912501309126012091270190912801E8
:1026B000682F8093560530935705209358059093C3
:1026C000590586E090E00E94F2066091570587E088
:1026D00090E00E94F2066091580588E090E00E9428
:1026E000F2066091590589E090E00E94F20680911F
:1026F0002101309122012091230190912401682F22
:1027000080935605309357052093580590935905AB
:102710008AE090E00E94F206609157058BE090E01D
:102720000E94F206609158058CE090E00E94F2064B
:10273000609159058DE090E00E94F20680911D01A4
:1027400030911E0120911F0190912001682F8093EC
:1027500056053093570520935805909359058EE000
:1027600090E00E94F206609157058FE090E00E9491
:10277000F2066091580580E190E00E94F2066091B7
:10278000590581E190E00E94F2060E94C80A81E0AA
:102790008093180188E594E00E94C70CC9CD0C33E2
:1027A00011052CF081E10E94AC03892B49F41092B1
:1027B00071051092700510926F0510926E052BCE68
:1027C00080916E0590916F05019690936F058093AF
:1027D0006E0580916E0590916F05039709F01BCEF1
:1027E00060E081E10E94D50310926F0510926E05A2
:1027F00080916A0581110FCE8DE194E00E940D0D4C
:10280000B801110F880B990B0E94D50C85E494E058
:1028100000CE0E94410A24CEE1E8F5E01382128244
:1028200088EE93E0A0E0B0E084839583A683B7832D
:102830002FE331E03183208325EC30E03587248796
:1028400024EC30E03787268720EC30E0318B208B7A
:1028500021EC30E0338B228B22EC30E0358B248B63
:1028600026EC30E0378B268B128E138E148E158E4D
:10287000EFE9F6E01382128284839583A683B783FF
:102880008FE491E09183808308951F93FC01992741
:102890008827BC01E89411911032E9F3193010F047
:1028A0001E30C8F31B3251F01D3249F4689406C043
:1028B0000E946C14610F711D811D911D11911053A7
:1028C0001A30B0F33EF490958095709561957F4FE6
:1028D0008F4F9F4F1F910895592F482F372F262F25
:1028E000660F771F881F991F660F771F881F991F14
:1028F000620F731F841F951F660F771F881F991F14
:102900000895F999FECF92BD81BDF89A992780B5B7
:102910000895262FF999FECF1FBA92BD81BD20BD23
:102920000FB6F894FA9AF99A0FBE01960895505886
:10293000BB27AA270E94AF140C9429160E941B16CD
:1029400038F00E94221620F039F49F3F19F426F443
:102950000C9418160EF4E095E7FB0C941216E92F70
:102960000E943A1658F3BA1762077307840795074F
:1029700020F079F4A6F50C945C160EF4E0950B2E7D
:10298000BA2FA02D0B01B90190010C01CA01A001C1
:102990001124FF27591B99F0593F50F4503E68F11C
:1029A0001A16F040A22F232F342F4427585FF3CF5D
:1029B000469537952795A795F0405395C9F77EF42E
:1029C0001F16BA0B620B730B840BBAF09150A1F077
:1029D000FF0FBB1F661F771F881FC2F70EC0BA0FFD
:1029E000621F731F841F48F4879577956795B79585
:1029F000F7959E3F08F0B0CF9395880F08F0992780
:102A0000EE0F9795879508950E94EE1508F481E0E2
:102A100008950E941D150C9429160E94221658F044
:102A20000E941B1640F029F45F3F29F00C94121607
:102A300051110C945D160C9418160E943A1668F306
:102A40009923B1F3552391F3951B550BBB27AA2767
:102A500062177307840738F09F5F5F4F220F331FA1
:102A6000441FAA1FA9F335D00E2E3AF0E0E832D069
:102A700091505040E695001CCAF72BD0FE2F29D06C
:102A8000660F771F881FBB1F261737074807AB073E
:102A9000B0E809F0BB0B802DBF01FF2793585F4FB3
:102AA0003AF09E3F510578F00C9412160C945D1686
:102AB0005F3FE4F3983ED4F3869577956795B79595
:102AC000F7959F5FC9F7880F911D9695879597F9A0
:102AD0000895E1E0660F771F881FBB1F6217730719
:102AE0008407BA0720F0621B730B840BBA0BEE1F2E
:102AF00088F7E09508950E9482156894B1110C94AE
:102B00005D1608950E94421688F09F5798F0B92FDD
:102B10009927B751B0F0E1F0660F771F881F991F12
:102B20001AF0BA95C9F714C0B13091F00E945C1642
:102B3000B1E008950C945C16672F782F8827B85F52
:102B400039F0B93FCCF3869577956795B395D9F76A
:102B50003EF490958095709561957F4F8F4F9F4F74
:102B60000895E89409C097FB3EF490958095709580
:102B700061957F4F8F4F9F4F9923A9F0F92F96E9C9
:102B8000BB279395F695879577956795B795F1113E
:102B9000F8CFFAF4BB0F11F460FF1BC06F5F7F4FDB
:102BA0008F4F9F4F16C0882311F096E911C07723ED
:102BB00021F09EE8872F762F05C0662371F096E8F6
:102BC000862F70E060E02AF09A95660F771F881FC5
:102BD000DAF7880F9695879597F90895990F000869
:102BE000550FAA0BE0E8FEEF16161706E807F907DF
:102BF000C0F012161306E407F50798F0621B730B7A
:102C0000840B950B39F40A2661F0232B242B252BFA
:102C100021F408950A2609F4A140A6958FEF811D9D
:102C2000811D089597F99F6780E870E060E008953E
:102C30009FEF80EC089500240A94161617061806D4
:102C40000906089500240A941216130614060506B0
:102C50000895092E0394000C11F4882352F0BB0F41
:102C600040F4BF2B11F460FF04C06F5F7F4F8F4FA4
:102C70009F4F089557FD9058440F551F59F05F3FDF
:102C800071F04795880F97FB991F61F09F3F79F08E
:102C900087950895121613061406551FF2CF469510
:102CA000F1DF08C0161617061806991FF1CF869592
:102CB0007105610508940895E894BB276627772776
:102CC000CB0197F908950E94EE1508F48FEF08954F
:102CD0000E947B160C9429160E941B1638F00E9445
:102CE000221620F0952311F00C9412160C9418164D
:102CF00011240C945D160E943A1670F3959FC1F34F
:102D0000950F50E0551F629FF001729FBB27F00D99
:102D1000B11D639FAA27F00DB11DAA1F649F6627EE
:102D2000B00DA11D661F829F2227B00DA11D621F3D
:102D3000739FB00DA11D621F839FA00D611D221FF7
:102D4000749F3327A00D611D231F849F600D211DDB
:102D5000822F762F6A2F11249F5750409AF0F1F05E
:102D600088234AF0EE0FFF1FBB1F661F771F881FC7
:102D700091505040A9F79E3F510580F00C941216D7
:102D80000C945D165F3FE4F3983ED4F386957795F7
:102D90006795B795F795E7959F5FC1F7FE2B880F6D
:102DA000911D9695879597F908950E94EE15880BC9
:102DB000990B0895A1E21A2EAA1BBB1BFD010DC0A1
:102DC000AA1FBB1FEE1FFF1FA217B307E407F507DB
:102DD00020F0A21BB30BE40BF50B661F771F881FB7
:102DE000991F1A9469F760957095809590959B014D
:102DF000AC01BD01CF010895EE0FFF1F0590F491C6
:102E0000E02D099481E090E0F8940C941017FB01F8
:102E1000DC0102C001900D9241505040D8F7089556
:042E2000F894FFCF54
:102E2400000020410000204100002041000020411A
:102E340000002041F000F0000100002041190000D2
:102E440000983A0000983A0000C80D00000F000AEC
:102E54000005000600070008000900000000005AF1
:102E640003790B8C00A40BBC0BD80B000000009959
:102E74000185017D0169015A015901456E636F6441
:102E84006572202B00456E636F646572202D0043CC
:102E94006F6E74726F6C6C657220636F6D6D616EB2
:102EA400643A20000D0A00436F6E74726F6C6C6597
:102EB400722074656D703A20005A6F6E6520002090
:102EC40054656D703A200027432053746174757300
:102ED4003A20004E65772074656D703A20004E6587
:102EE40077206465766963652073746174653A203C
:102EF400005057520954454D50095A6F6E653109B7
:102F04005A6F6E6532095A6F6E6533095A6F6E6572
:102F140034095A6F6E6535005A4F4E455F52454C21
:102F24004159094F4E09005A4F4E455F52454C4195
:102F340059094F464609004E54435F425F436F654B
:102F440066663D004E54435F4E6F6D696E616C5F03
:102F5400526573697374616E63653D00536572698C
:102F6400616C5F5265736973746F723D004E6F6D6F
:102F7400696E616C5F543D002A2A2A2A286329322B
:102F840030313820566C6164696D69722050616B10
:102F9400686F6D6F76206761334079616E64657820
:102FA4002E72752A2A2A2A00223022202D204465D6
:102FB400627567206F7574707574204F46460022E1
:102FC4003122202D204465627567206F75747075F9
:102FD40074204F4E00223222202D2053686F772018
:102FE400646576696365207374617465206F6E63CC
:102FF4006500223322202D204E54432073656E73C6
:103004006F727320636F6E7374616E747320736573
:1030140074757000223422202D20446973706C6111
:1030240079204E54432073656E736F727320636FFF
:103034006E7374616E747300526573746F72656439
:103044002073657474696E67732066726F6D2045B2
:103054004550524F4D005365747570206D6F646513
:1030640020656E746572656400456E746572204EE9
:1030740054435F425F434F4546462076616C756515
:103084003A00456E746572204E54435F4E6F6D690D
:103094006E616C5F526573697374616E63652076EB
:1030A400616C756520284F686D293A00456E74651A
:1030B400722053657269616C5F5265736973746FD2
:1030C400722076616C756520284F686D293A004539
:1030D4006E746572204E6F6D696E616C5F54656DC0
:1030E40070657261747572652076616C75652028EF
:1030F4002743293A0053657475702076616C7565B1
:103104007320656E74657265642C2065786974201B
:1031140066726F6D207365747570206D6F64652EB3
:10312400005075736820427574746F6E20657665FF
:103134006E7420747269676765726564004C6967B0
:1031440068742053656E736F722056616C756520C8
:103154003D20002E20427574746F6E204C696768A0
:1031640074204F4E002E20427574746F6E204C698B
:10317400676874204F46460043757272656E74200A
:1031840073657474696E6773207361766564207403
:103194006F20454550524F4D006E616E00696E665A
:0631A400006F76660000DA
:00000001FF
