:100000000C9462000C9471050C944A050C948A00BF
:100010000C948A000C948A000C948A000C948A0038
:100020000C948A000C948A000C948A000C948A0028
:100030000C948A000C948A000C948A000C948A0018
:100040000C9400050C948A000C94F70C0C94D10CC1
:100050000C948A000C948A000C948A000C948A00F8
:100060000C9498050C948A000000000025002800DC
:100070002B000000000023002600290000000008DB
:10008000000201000003040700000000000000005F
:1000900000000000240027002A00010204081020AC
:1000A000408001020408102001020408102004040A
:1000B0000404040404040202020202020303030310
:1000C0000303BC1511241FBECFEFD8E0DEBFCDBFA8
:1000D00027E0A0ECB4E001C01D92A036B207E1F722
:1000E00014E0A0E0B1E0EEE3F6E302C005900D926B
:1000F000A03CB107D9F710E0C2E6D0E004C02197D8
:10010000FE010E940B19C136D107C9F70E94BF0E2C
:100110000C941D1B0C940000FC01928D838D98178C
:1001200081F0838DDF01A80FB11DA80FB11D5E9670
:100130008C915E975F969C91238D2F5F2F73238FF9
:1001400008958FEF9FEF0895FC01928D838D98178E
:1001500041F0838DE80FF11DE80FF11D868D978D1D
:1001600008958FEF9FEF0895FC01928D238D892FC5
:1001700090E0805C9F4F821B91098F7399270895AF
:1001800080E090E0892B29F00E94630C81110C948F
:1001900000000895833081F028F4813099F0823096
:1001A000A1F008958730A9F08830B9F08430D1F4F7
:1001B000809180008F7D03C0809180008F77809335
:1001C0008000089584B58F7702C084B58F7D84BD8B
:1001D00008958091B0008F7703C08091B0008F7D2B
:1001E0008093B00008953FB7F8948091780590917E
:1001F0007905A0917A05B0917B0526B5A89B05C02D
:100200002F3F19F00196A11DB11D3FBFBA2FA92F95
:10021000982F8827820F911DA11DB11DBC01CD0112
:1002200042E0660F771F881F991F4A95D1F70895FE
:10023000089585ED8093BC008091BC0084FDFCCFC7
:1002400010927E05089540912C05262F30E0240F52
:10025000311D21323105DCF420917E052430C9F4B2
:10026000FC0180E090E0861758F430912C05219134
:10027000DC01A45FBA4FA30FB11D2C930196F3CFFD
:1002800080912C05680F60932C0580E0089581E033
:10029000089582E00895E0918905F0918A053097EC
:1002A00029F01092800510927F0509940895CF934C
:1002B000DF93AC01E0918705F09188053097F1F06C
:1002C00090918205809181059817C0F090E0292FC8
:1002D00030E02617370754F4D901A451BB4FEA0187
:1002E000C20FD31F88818C939F5FF1CF109282053C
:1002F00060938105CB01DF91CF910994DF91CF917C
:1003000008950895E091820580918105E81730F401
:10031000F0E0E451FB4F808190E008958FEF9FEF74
:1003200008959091820580918105981750F4E92FE6
:10033000F0E0E451FB4F208130E09F5F9093820515
:1003400002C02FEF3FEFC90108958091810590E031
:1003500020918205821B91090895CF93DF9300D0ED
:10036000CDB7DEB7CB01642F49835A830E942301A6
:100370004981842F5A81952F0F900F90DF91CF9153
:100380000895CF93DF931F92CDB7DEB7698361E005
:10039000CE0101960E94230181E090E00F90DF9151
:1003A000CF9108958EBD00000DB407FEFDCF8EB530
:1003B00008950E94D201E3E2F0E03197F1F7089549
:1003C000F89489B18C708093C2048091C2048C30FF
:1003D00021F48091C104811109C08091C204883048
:1003E00019F481E08093C004789408958091A70562
:1003F0009091A805892BB1F181E591E00E949E0DB5
:1004000060910501709106018091070190910801AA
:1004100020E030E040E05FE30E94A3176093050115
:100420007093060180930701909308016091050184
:1004300070910601809107019091080120E030E061
:1004400044E352E40E94B718181664F480E090E088
:10045000A4E3B2E48093050190930601A093070101
:10046000B09308011092C1041092C004BDCFF8945B
:1004700089B18C708093C2048091C2048C3021F4C5
:100480008091C004811109C08091C204843019F4A4
:1004900081E08093C104789408958091A70590919C
:1004A000A805892BB1F18BE591E00E949E0D60912A
:1004B000050170910601809107019091080120E0EB
:1004C00030E040E05FE30E94A21760930501709363
:1004D00006018093070190930801609105017091D6
:1004E0000601809107019091080120E030E040E290
:1004F00051E40E94311687FF0CC080E090E0A0E23A
:10050000B1E48093050190930601A0930701B09395
:1005100008011092C1041092C004BDCFCF92DF92A7
:10052000EF92FF920F931F93CF93DF93C090AF058D
:10053000D090B005E090B105F090B20520E030E039
:10054000A901C701B6010E94B71820E030E040E0E1
:100550005FE387FD05C0C701B6010E94A31704C071
:10056000C701B6010E94A2170E948118EB01609199
:10057000050170910601809107019091080120E02A
:1005800030E0A9010E94B71887FD0FC060910501F6
:1005900070910601809107019091080120E030E000
:1005A00040E05FE30E94A3170EC0609105017091C7
:1005B0000601809107019091080120E030E040E0C1
:1005C0005FE30E94A2170E9481188B01CE010E9456
:1005D000AC0DC8010E94AC0D8091A7059091A805B3
:1005E0000E94AC0D8091A5059091A605DF91CF9159
:1005F0001F910F91FF90EF90DF90CF900C94AC0D76
:10060000FC01258D820F911D820F911DDC01A256E8
:10061000BF4F2D913C91858D90E001968F73992766
:10062000858FA289B3898C9130FF02C0816001C09F
:100630008E7F8C93A689B7892C93A089B1898C91E0
:1006400080648C93948D858D981306C00288F389FD
:10065000E02D80818F7D80830895EF92FF920F932C
:100660001F93CF93DF93EC0181E0888F9C8D8D8D5C
:10067000981305C0E889F989808185FD2AC0F62E86
:100680000C8D10E00F5F1F4F0F731127E02E8D8D23
:10069000E8120CC00FB607FCFACFE889F98980810F
:1006A00085FFF5CFCE010E940003F1CF2C8DCE0146
:1006B000820F911D820F911DFC01E256FF4F6F2D9D
:1006C00070E0718360830C8FEA89FB89808180628E
:1006D0000CC0EA89FB8980818E7F8083EE89FF8947
:1006E0006083E889F98980818064808381E090E07B
:1006F000DF91CF911F910F91FF90EF900895CF93CD
:10070000DF93282F30E0F901E458FF4F8491F9017D
:10071000E656FF4FD491F901E255FF4FC491CC2327
:1007200091F081110E94CA00EC2FF0E0EE0FFF1F44
:10073000EE58FF4FA591B491EC91ED2381E090E04C
:1007400021F480E002C080E090E0DF91CF91089535
:100750001F93CF93DF93282F30E0F901E458FF4F28
:100760008491F901E656FF4FD491F901E255FF4F0C
:10077000C491CC23C9F0162F81110E94CA00EC2F1E
:10078000F0E0EE0FFF1FE859FF4FA591B4918FB72E
:10079000F894111105C09C91ED2FE095E92302C05A
:1007A000EC91ED2BEC938FBFDF91CF911F910895CA
:1007B0000F931F93CF93DF93039709F09AC080E5BF
:1007C00097E00E9491018C0180E597E00E949101E1
:1007D000EC0180E597E00E9491019093A60580933B
:1007E000A505C230D10548F5D093A805C093A7054B
:1007F00085E691E00E94B10D6091A7057091A80572
:10080000072E000C880B990B0E94B30D8AE791E02C
:100810000E944B0D8091A7059091A805892B09F0A6
:1008200068C0C7E2D1E08881229660E00E94A803F8
:1008300081E0C133D807B9F75CC0239709F059C0EC
:10084000B801110F880B990B0E94381660930501AF
:100850007093060180930701909308018DE791E062
:100860000E94B10D60910501709106018091070110
:100870009091080140E00E94EB0D8AE791E00E9410
:100880004B0D6091050170910601809107019091D7
:10089000080120E030E044E352E40E94B718181643
:1008A00064F480E090E0A4E3B2E4809305019093C7
:1008B0000601A0930701B0930801609105017091B2
:1008C0000601809107019091080120E030E040E2AC
:1008D00051E40E94311687FF0CC080E090E0A0E256
:1008E000B1E48093050190930601A0930701B093B2
:1008F0000801DF91CF911F910F910895CF93DF935E
:1009000090E0FC01E656FF4F2491FC01E255FF4FB9
:100910008491882361F190E0880F991FFC01E057D2
:10092000FF4FC591D491FC01E859FF4FA591B491B7
:10093000611109C09FB7F89488812095822388832C
:10094000EC912E230BC0623061F49FB7F89438818C
:10095000822F809583238883EC912E2B2C939FBF2D
:1009600006C08FB7F894E8812E2B28838FBFDF91C4
:10097000CF9108958F929F92AF92BF92CF92DF92C4
:10098000EF92FF926B017C010E94F3004B015C012E
:10099000C114D104E104F104F1F00E94F300DC0180
:1009A000CB0188199909AA09BB09883E9340A10582
:1009B000B10570F321E0C21AD108E108F10888EE10
:1009C000880E83E0981EA11CB11CC114D104E1045F
:1009D000F10419F7DDCFFF90EF90DF90CF90BF903B
:1009E000AF909F908F9008952FB7F8946091740501
:1009F0007091750580917605909177052FBF0895C8
:100A00001F920F920FB60F9211242F933F938F9343
:100A10009F93AF93BF938091740590917505A091BA
:100A20007605B09177053091730523E0230F2D37BC
:100A300020F40196A11DB11D05C026E8230F0296E2
:100A4000A11DB11D209373058093740590937505C6
:100A5000A0937605B09377058091780590917905FC
:100A6000A0917A05B0917B050196A11DB11D8093DF
:100A7000780590937905A0937A05B0937B05BF9193
:100A8000AF919F918F913F912F910F900FBE0F903B
:100A90001F9018951F920F920FB60F9211242F934B
:100AA0003F934F935F936F937F938F939F93AF93F6
:100AB000BF93EF93FF93E0910201F0910301099539
:100AC000FF91EF91BF91AF919F918F917F916F9126
:100AD0005F914F913F912F910F900FBE0F901F90FC
:100AE00018951F920F920FB60F9211242F933F93D8
:100AF0004F935F936F937F938F939F93AF93BF9326
:100B0000EF93FF93E0910001F09101010995FF91AE
:100B1000EF91BF91AF919F918F917F916F915F9175
:100B20004F913F912F910F900FBE0F901F901895EE
:100B30001F920F920FB60F9211242F933F934F9352
:100B40005F936F937F938F939F93AF93BF93EF9335
:100B5000FF938091B900887F803609F49CC068F5C6
:100B6000883209F45BC090F4803109F454C038F441
:100B7000882309F4F6C0883009F44DC0F6C08831E6
:100B800009F44CC0803209F45DC0EFC0803409F430
:100B900068C048F4803309F455C0883309F0E5C0D3
:100BA00080934F05D8C0803509F44FC0883509F4CB
:100BB0005DC0883409F0D9C0D6C0883909F4C7C0EF
:100BC000A8F4883709F467C038F4883609F463C09C
:100BD000803709F460C0C9C0883809F4B8C08039CA
:100BE00009F45FC0803809F0C0C05BC0803B09F4E5
:100BF00086C038F4803A09F466C0883A09F47FC0A8
:100C0000B4C0803C09F4A7C0883C09F4A4C0883B68
:100C100009F48AC0AAC08091720510C09091710534
:100C200080917005981770F5E091710581E08E0F45
:100C300080937105F0E0E05BFA4F80818093BB0008
:100C400085EC86C080934F058EC0E091710581E0F0
:100C50008E0F809371058091BB00F0E0E05BFA4F4E
:100C6000808390917105809170056EC0E09171054F
:100C700081E08E0F809371058091BB00F0E0E05B16
:100C8000FA4F808380917D0581116DC081E0809352
:100C90007C0584EA61C083E080937E0510924E0556
:100CA000CFCF80914E05803208F051C0E0914E05C3
:100CB00081E08E0F80934E058091BB00F0E0E25DF5
:100CC000FA4F8083BDCF85EC8093BC0010927E05E7
:100CD00080914E05803230F4E0914E05F0E0E25D07
:100CE000FA4F108260914E0570E0E0918305F0911B
:100CF00084058EE295E0099510924E0536C084E099
:100D000080937E0510922D0510922C05E0918505AB
:100D1000F0918605099580912C05811105C081E02F
:100D200080932C0510920C05E0912D0581E08E0F2B
:100D300080932D05F0E0E45FFA4F80818093BB0043
:100D400090912D0580912C05981708F479CF85E8AE
:100D50008093BC000AC085EC8093BC0010927E0595
:100D600004C010924F050E941901FF91EF91BF91AD
:100D7000AF919F918F917F916F915F914F913F9133
:100D80002F910F900FBE0F901F9018950C945D1728
:100D90000C9455172F923F924F925F926F927F92D1
:100DA0008F929F92AF92BF92CF92DF92EF92FF927B
:100DB0000F931F93CF93DF93CDB7DEB764970FB632
:100DC000F894DEBF0FBECDBF80E090E0A0E2B1ECB2
:100DD0008093090190930A01A0930B01B0930C0139
:100DE00080930D0190930E01A0930F01B093100119
:100DF0008093110190931201A0931301B0931401F9
:100E00008093150190931601A0931701B0931801D8
:100E10008093190190931A01A0931B01B0931C01B8
:100E200060E08FE00E94A8038091DB040E94D9015A
:100E30004CEDE42E44E0F42E8E010F5F1F4F6E0147
:100E400081E1C80ED11CF70181917F010E94D90177
:100E5000F80181938F01EC15FD05A9F78091A70595
:100E60009091A8050E94D901898B8091A705909146
:100E7000A8050E94D9018A8B8091A7059091A805A9
:100E80000E94D9018B8B8091A7059091A8050E94A3
:100E9000D9018C8B61E08FE00E94A80361E070E0D3
:100EA00080E090E00E94BA04FE01349680E090E079
:100EB000DF0113972C912093D70411962C91209346
:100EC000D80411962C912093D90420812093DA0420
:100ED0004091D7045091D8046091D9047091DA04FC
:100EE000DC01AA0FBB1FAA0FBB1FA75FBE4F4D930C
:100EF0005D936D937C93139701963496853091059D
:100F0000B9F68091A7059091A805892B09F48AC1AB
:100F100027E2A22E21E0B22EE12CF12C6701CC0CAD
:100F2000DD1CCC0CDD1CC601875F9E4F4C01FC0113
:100F3000608171818281938120900501309006014A
:100F4000409007015090080120E030E040E251E479
:100F50000E9497160E9481183B0120E030E040E09B
:100F60005FE3C201B1010E94A31720E030E040E23C
:100F700051E40E9497160E9481188701000F111FEB
:100F800066167706D4F4F4016081718182819381C1
:100F900020E030E04CE652E40E94B71887FF0DC015
:100FA000F401608171818281938120E030E040E230
:100FB00051EC0E943116181644F0F5019080892DED
:100FC0000E947F03892B09F053C0C601875F9E4FA3
:100FD0006C01FC01608171818281938140900501E7
:100FE00050900601609007017090080120E030E009
:100FF00040E251E40E9497160E9481184B0120E0C4
:1010000030E040E05FE3C301B2010E94A21720E09C
:1010100030E040E251E40E9497160E948118681562
:1010200079050CF4EAC0F6016081718182819381B7
:1010300020E030E040E251EC0E94B71818160CF0A6
:10104000DCC0F5019080892D0E947F03892B09F077
:10105000D4C0F601608171818281938120E030E00B
:1010600040E351EC0E94B71818160CF0C6C057C0E8
:1010700003531B4FF801208131812F5F3F4F318394
:10108000208380819181059709F0CCC060E0892D93
:101090000E94A803F801118210828091B30581118A
:1010A000C1C08FE891E00E94B10DB7016F5F7F4F23
:1010B000072E000C880B990B0E94B30D85E991E077
:1010C0000E94B10D8091A5059091A605F601E75FFC
:1010D000FE4F892B51F4608171818281938141E0BF
:1010E0000E94EB0D8DE991E015C0608171818281D4
:1010F000938126E636E646EE5FE30E94971620E0EF
:1011000030E040E052E40E94A31741E00E94EB0D62
:1011100089EA91E00E94B10D8DE894E03EC00D5344
:101120001B4FF801208131812F5F3F4F3183208396
:1011300080819181059709F075C061E0892D0E9439
:10114000A803F801118210828091B30581116AC051
:101150008FE891E00E94B10DB7016F5F7F4F072EBE
:10116000000C880B990B0E94B30D85E991E00E9459
:10117000B10D8091A5059091A605F601892B39F551
:10118000608171818281938141E00E94EB0D8DE944
:1011900091E00E94B10D8BE794E064960FB6F8944D
:1011A000DEBF0FBECDBFDF91CF911F910F91FF909A
:1011B000EF90DF90CF90BF90AF909F908F907F90F7
:1011C0006F905F904F903F902F900C949E0D608198
:1011D00071818281938126E636E646EE5FE30E94C6
:1011E000971620E030E040E052E40E94A31741E06F
:1011F0000E94EB0D89EA91E0CCCFF801E353FB4F5D
:1012000011821082F801ED53FB4F11821082FFEF23
:10121000EF1AFF0A82E0A80EB11C95E0E916F1046E
:1012200009F07CCE64960FB6F894DEBF0FBECDBF3A
:10123000DF91CF911F910F91FF90EF90DF90CF90B2
:10124000BF90AF909F908F907F906F905F904F90E6
:101250003F902F900895CF92DF92EF92FF920F93DD
:101260001F93CF93DF930E94F40460939F057093C4
:10127000A0058093A1059093A205109204016091AE
:10128000AB057091AC058091AD059091AE052091B4
:1012900005013091060140910701509108010E941B
:1012A0003116882329F08091B305882309F41EC1E3
:1012B0008091A7059091A8052091A9053091AA05D4
:1012C0002817390799F08091B30581110FC080EC80
:1012D00091E00E94B10D8091A7059091A805892BFE
:1012E00009F418C18CE794E00E949E0D8091A70537
:1012F0009091A805892B09F455C080910501909122
:101300000601A0910701B09108018093AB0590936D
:10131000AC05A093AD05B093AE058091A705909163
:10132000A8059093AA058093A905C0900501D090C7
:101330000601E0900701F09008018091A5059091C9
:10134000A6059093A4058093A305892BB9F520E009
:1013500030E040E251E4C701B6010E940F180E943C
:101360008118C62FCB0199272AE0289FB001299F19
:10137000700D1124072E000C880B990B0E94381653
:101380009B01AC01C701B6010E94A2176B017C0151
:101390000E948118062FCB019927BC01990F880B59
:1013A000990B55C0C7E2D1E08881229660E00E9487
:1013B000A80381E0C133D807B9F79FCF26E636E608
:1013C00046EE5FE3C701B6010E94971620E030E0C9
:1013D00040E052E40E94A3176B017C012DEC3CEC31
:1013E00047EC52E40E94B718181644F48DECC82E4E
:1013F0008CECD82E87ECE82E82E4F82E20E030E04A
:1014000040E251E4C701B6010E940F180E94811802
:10141000C62F77272AE0269FC001279F900D112411
:10142000BC01990F880B990B0E9438169B01AC01E7
:10143000C701B6010E94A2176B017C010E948118AE
:10144000062FAB015527BA01550F880B990B0E9447
:1014500038169B01AC01C701B6010E94A21720E01B
:1014600030E040E251E40E9497160E948118162F46
:1014700060E08AE00E94A80361E070E080E090E014
:101480000E94BA048C2F0E94D201C3E2D0E0CE01A8
:101490000197F1F7802F0E94D201CE010197F1F759
:1014A000812F0E94D201CE010197F1F78091A7050B
:1014B0009091A8050E94D201CE010197F1F78DE02D
:1014C0000E94D2012197F1F761E08AE00E94A8030F
:1014D00061E070E080E090E0DF91CF911F910F918B
:1014E000FF90EF90DF90CF900C94BA0485EB91E0E1
:1014F0000E94B10D60910501709106018091070174
:101500009091080141E00E94EB0D8AE791E00E9472
:101510004B0DCECE8EE894E0E7CECF93DF9383EDF4
:1015200091E00E949E0D8091A7059091A805892BBE
:1015300019F08CE794E002C08EE894E00E94B10DAF
:1015400087E192E00E94B10D8091A5059091A605DA
:10155000892B71F46091050170910601809107015A
:101560009091080141E00E94EB0DC0E0D0E01CC06A
:101570006091050170910601809107019091080129
:1015800026E636E646EE5FE30E94971620E030E05E
:1015900040E052E40E94A317E5CF41E00E94EB0D2A
:1015A0002196C530D10519F187E192E00E94B10D75
:1015B0002091A5053091A605CE01880F991F880FAF
:1015C000991FFC01E75FFE4F6081718182819381E9
:1015D000232B19F326E636E646EE5FE30E949716C4
:1015E00020E030E040E052E40E94A317D6CF8AE723
:1015F00091E00E944B0D85E00E947F03892B19F03A
:101600008AEF91E002C089E092E00E94B10D86E08D
:101610000E947F03892B19F085E092E002C084E1EB
:1016200092E00E94B10D87E00E947F03892B19F0A0
:1016300085E092E002C084E192E00E94B10D88E072
:101640000E947F03892B19F085E092E002C084E1BB
:1016500092E00E94B10D89E00E947F03892B19F06E
:1016600085E092E002C084E192E00E949E0D0E941B
:10167000F4046093B4057093B5058093B605909318
:10168000B705DF91CF91089580919B0530919C051E
:1016900020919D0590919E05309398052093990582
:1016A00090939A05EBEDF4E0A7E9B5E080831196FD
:1016B0008C911197818312968C9112978283139645
:1016C0008C91139783838091930530919405209199
:1016D00095059091960530939805209399059093E0
:1016E0009A05848311968C911197858312968C911B
:1016F0001297868313968C911397878380918B051D
:1017000030918C0520918D0590918E053093980530
:101710002093990590939A05808711968C91119743
:10172000818712968C911297828713968C911397CA
:10173000838780918F05309190052091910590913C
:10174000920580939705309398052093990590937F
:101750009A05848711968C911197858712968C91A2
:101760001297868713968C9187878091A705909111
:10177000A805808B10920401089589E192E00E94EF
:10178000B10D60919B0570919C0580919D05909194
:101790009E050E94DD0D86E292E00E94B10D6091EF
:1017A00093057091940580919505909196050E94FE
:1017B000DD0D8EE392E00E94B10D60918F05709176
:1017C000900580919105909192050E94DD0D8FE426
:1017D00092E00E94B10D60918B0570918C05809113
:1017E0008D0590918E050C94DD0DCF93DF9300D085
:1017F00000D000D0CDB7DEB71A8219821C821B82BE
:101800001E821D8240E050E068E172E0CE01019648
:101810000E94910C8091A5059091A60542E050E0B0
:10182000892B19F06AE572E002C06DE572E0CE0125
:1018300001960E94910C80E692E00E94B10D4D81CC
:101840005E8169817A8182E396E00E94380C8AE7A2
:1018500091E00E944B0D89819A810E94A6192696DB
:101860000FB6F894DEBF0FBECDBFDF91CF910895C4
:10187000CF92DF92EF92FF920F931F93CF93DF935C
:101880006C017A018B01C0E0D0E0CE15DF0589F054
:10189000D8016D918D01D601ED91FC910190F081FF
:1018A000E02DC6010995892B11F47E0102C0219615
:1018B000ECCFC701DF91CF911F910F91FF90EF9077
:1018C000DF90CF90089582E396E00E94B40021E07B
:1018D000892B09F420E0822F08950E94081BCF93E2
:1018E000DF93EC01888D8823C9F0EA89FB89808128
:1018F00085FD05C0A889B9898C9186FD0FC00FB6FA
:1019000007FCF5CF808185FFF2CFA889B9898C913A
:1019100085FFEDCFCE010E940003E7CFDF91CF918D
:101920000895EF92FF920F931F93CF93DF93EC01F3
:101930007B018A0188819981009729F02A813B8166
:1019400024173507F8F4B8016F5F7F4F0E943E1AE5
:10195000009759F0998388831B830A832C813D81EA
:10196000232B81F4FC0110820DC08881998100979E
:1019700011F00E94A619198218821D821C821B82F6
:101980001A8207C01D830C83B701888199810E9448
:10199000161BCE01DF91CF911F910F91FF90EF9019
:1019A00008951F920F920FB60F9211242F933F9319
:1019B0004F935F936F937F938F939F93AF93BF9357
:1019C000EF93FF9382E396E00E940003FF91EF9173
:1019D000BF91AF919F918F917F916F915F914F9147
:1019E0003F912F910F900FBE0F901F9018951F924F
:1019F0000F920FB60F9211242F933F938F939F93C3
:101A0000AF93BF93EF93FF93E0914206F0914306AB
:101A10008081A0914406B0914506E0914806F0917E
:101A2000490682FD1EC08C91308120914C062F5FAB
:101A30002F7390914D062917B1F0E0914C068270FA
:101A400090E09695982F882797958795F0E0EE0F70
:101A5000FF1FE05BF94F832B9183808320934C061B
:101A600002C08C918081FF91EF91BF91AF919F91C6
:101A70008F913F912F910F900FBE0F901F9018954F
:101A8000E0913206F09133060190F081E02D682F4D
:101A900082E396E00994009769F0FC010190002030
:101AA000E9F73197AF01481B590BBC0182E396E07F
:101AB0000C94380C80E090E008958F929F92AF9242
:101AC000BF920F931F93CF93DF93CDB7DEB7A1974C
:101AD0000FB6F894DEBF0FBECDBF19A2423008F496
:101AE0004AE08E010F5D1F4F842E912CA12CB12C4A
:101AF000A50194010E94D518E62FB901CA01015031
:101B00001109EA3014F4E05D01C0E95CD801EC93FE
:101B1000232B242B252B61F7C8010E944B0DA19686
:101B20000FB6F894DEBF0FBECDBFDF91CF911F91EE
:101B30000F91BF90AF909F908F900895CF93DF93B8
:101B40000E944B0DEC018AE791E00E944B0D8C0F37
:101B50009D1FDF91CF910895682F80E597E00C9449
:101B6000C1010C944B0DCF92DF92EF92FF92CF9375
:101B7000DF9397FF19C06B017C018DE20E94400D3D
:101B8000EC0166277727CB016C197D098E099F0927
:101B90004AE00E945D0D8C0F9D1FDF91CF91FF9059
:101BA000EF90DF90CF9008954AE0DF91CF91FF90C2
:101BB000EF90DF90CF900C945D0DCF93DF930E9458
:101BC000B30DEC018AE791E00E944B0D8C0F9D1F35
:101BD000DF91CF9108954F925F926F927F928F9293
:101BE0009F92AF92BF92CF92DF92EF92FF926B01E2
:101BF0007C01B42E9B01AC010E94BC18882319F013
:101C000083EB94E027C026013701E89477F82FEFA3
:101C10003FEF4FE75FE7C301B2010E94BC1881119B
:101C20000DC02FEF3FEF4FE75FE7C301B2010E9406
:101C3000311618161CF487EB94E00CC02FEF3FEF21
:101C40004FE75FE4C701B6010E94B718181684F485
:101C50008BEB94E0FF90EF90DF90CF90BF90AF9030
:101C60009F908F907F906F905F904F900C944B0D52
:101C70002FEF3FEF4FE75FECC701B6010E9431162F
:101C800087FDE6CF20E030E0A901C701B6010E9440
:101C9000311687FF09C08DE20E94400D4C01F7FA12
:101CA000F094F7F8F09402C0812C912CA12C60E004
:101CB00070E080E09FE3AB1441F020E030E040E2D0
:101CC00051E40E940F18A394F6CF9B01AC01C70109
:101CD000B6010E94A3172B013C010E9488186B01DA
:101CE0007C010E9436169B01AC01C301B2010E9427
:101CF000A2172B013C014AE0C701B6010E945D0D0D
:101D00007C01E80CF91CBB2029F08EE20E94400DFA
:101D1000E80EF91EDB2CDD2021F120E030E040E26E
:101D200051E4C301B2010E9497162B013C010E94AD
:101D300088184B01A12CB12C4AE0C501B4010E94C6
:101D40005D0DE80EF91EC501B4010E9436169B0117
:101D5000AC01C301B2010E94A2172B013C01DA942D
:101D6000DACFC701FF90EF90DF90CF90BF90AF9098
:101D70009F908F907F906F905F904F900895CF933A
:101D8000DF93CDB7DEB7789484B5826084BD84B527
:101D9000816084BD85B5826085BD85B5816085BD66
:101DA00080916E00816080936E001092810080911E
:101DB00081008260809381008091810081608093A6
:101DC0008100809180008160809380008091B100CB
:101DD00084608093B1008091B00081608093B000F6
:101DE00080917A00846080937A0080917A0082608A
:101DF00080937A0080917A00816080937A0080914C
:101E00007A00806880937A001092C100E0914206C7
:101E1000F091430682E08083E0913E06F0913F0618
:101E20001082E0914006F09141068FEC8083109281
:101E30004A06E0914606F091470686E08083E091ED
:101E40004406F0914506808180618083E0914406DC
:101E5000F0914506808188608083E0914406F0918E
:101E60004506808180688083E0914406F0914506B4
:101E700080818F7D808310924B06E0914406F09123
:101E8000450680818B7F80838DE692E00E949E0DC7
:101E90008DE992E00E949E0D84EB92E00E949E0DDF
:101EA0008AEC92E00E949E0D87EE92E00E949E0DC9
:101EB00089E093E00E949E0D8DE293E00E949E0DCA
:101EC0008EE393E00E949E0D60ED77E080E090E06D
:101ED0000E94BA0460E080E10E947E0462E08EE02D
:101EE0000E947E0461E081E10E947E0461E085E061
:101EF0000E947E0461E086E00E947E0461E087E04B
:101F00000E947E0461E088E00E947E0461E089E036
:101F10000E947E0462E082E00E947E0462E083E030
:101F20000E947E0487E392E0909301018093000178
:101F300080916900836080936900E89A80EE91E067
:101F40009093030180930201809169008C608093DB
:101F50006900E99A61E08AE00E947E0461E08AE01B
:101F60000E94A80361E08FE00E947E0461E08FE0A0
:101F70000E94A8031FB7F8948091B805811127C06B
:101F8000E8EBF0E08491E4EAF0E09491E82FF0E0EF
:101F9000EE0FFF1FE057FF4FA591B491EC91E9239D
:101FA00021F461E08AE00E94A80361E08AE00E94D7
:101FB0007E048CB580618CBD8CB580648CBD61E085
:101FC0008DE00E947E0461E08BE00E947E0480919F
:101FD000B8058F5F8093B8051FBF8CB58C7F81607B
:101FE0008CBD8DB581608DBD80E090E00E94C806FB
:101FF000082F81E090E00E94C806182F602F70E043
:1020000080E090E00E9438166B017C01612F70E047
:1020100080E090E00E9438162DEC3CEC4CEC5DE347
:102020000E9497169B01AC01C701B6010E94A3173D
:102030006093050170930601809307019093080156
:1020400082E090E00E94C8068093970583E090E0CC
:102050000E94C8068093980584E090E00E94C8061C
:102060008093990585E090E00E94C80680939905C9
:102070008091970590919805A0919905B0919A0546
:1020800080939B0590939C05A0939D05B0939E051E
:1020900086E090E00E94C8068093970587E090E074
:1020A0000E94C8068093980588E090E00E94C806C8
:1020B0008093990589E090E00E94C8068093990575
:1020C0008091970590919805A0919905B0919A05F6
:1020D0008093930590939405A0939505B0939605EE
:1020E0008AE090E00E94C806809397058BE090E01C
:1020F0000E94C806809398058CE090E00E94C80674
:10210000809399058DE090E00E94C8068093990520
:102110008091970590919805A0919905B0919A05A5
:1021200080938F0590939005A0939105B0939205AD
:102130008EE090E00E94C806809397058FE090E0C3
:102140000E94C8068093980580E190E00E94C8062E
:102150008093990581E190E00E94C80680939905DB
:102160008091970590919805A0919905B0919A0555
:1021700080938B0590938C05A0938D05B0938E056D
:10218000609105017091060180910701909108010D
:1021900020E030E044E352E40E94B718181664F4DB
:1021A00080E090E0A4E3B2E48093050190930601FF
:1021B000A0930701B0930801609105017091060199
:1021C000809107019091080120E030E040E251E465
:1021D0000E94311687FF0CC080E090E0A0E2B1E4DD
:1021E0008093050190930601A0930701B093080125
:1021F00082E190E00E94C80690E09093A805809349
:10220000A70583E190E00E94C80690E09093A605A0
:102210008093A50582E593E00E949E0D0E94BD0B70
:102220000E94F50B0E94440B0E942B0911E01093B1
:1022300004010E94CA060E948D0A86E68093BA00B5
:102240008BE491E0909386058093850587E591E086
:1022500090938405809383051092820510928105E6
:102260001092800510927F0510927E0510937D05D7
:1022700010927C0561E082E10E94A80361E083E1A5
:102280000E94A8038091B9008E7F8093B90080914D
:10229000B9008D7F8093B90088E48093B80085E40D
:1022A0008093BC0088ED93E0909388058093870528
:1022B0008EE892E090938A05809389057724739441
:1022C00032E4632E44E6C42ED12C5CE9A52EBB2457
:1022D000BA9464E670E080E090E00E94BA0482E381
:1022E00096E00E94B400892B09F4B0C00091C105AA
:1022F0001091C20582E396E00115110509F066C050
:102300000E948C00813339F48AEB92E00E949E0D8A
:102310007092B3059BC0803339F483EA92E00E9447
:102320009E0D1092B30592C0823339F48091B305AB
:1023300081118CC00E948D0A89C0833379F480E7B3
:1023400093E00E949E0D83E893E00E949E0D21E0A1
:1023500030E03093C2052093C10578C0843319F46E
:102360000E94BD0B73C0853389F481E090E0209119
:10237000A5053091A605232B11F080E090E0909305
:10238000A6058093A5050E94F50B60C0863309F071
:102390005DC081E090E02091A5053091A605232B3A
:1023A00011F080E090E09093A6058093A505209120
:1023B000A7053091A80581E090E0232B11F080E083
:1023C00090E09093A8058093A70540C00E948C00E0
:1023D0008D3009F09DC02091BF053091C0051216C7
:1023E00013060CF4A5C094C0033011050CF0E0C036
:1023F0000130110531F5C7010E94F51560939B0569
:1024000070939C0580939D0590939E0589E192E0D1
:102410000E94B10D60919B0570919C0580919D0576
:1024200090919E050E94DD0D8CE993E00E949E0D27
:102430008091C1059091C20501969093C205809349
:10244000C1050FB6F8949EBE0FBE8DBE8EE00E94F1
:102450007F0320913106892B51F521112BC08091EA
:10246000C3059091C40501969093C4058093C3055C
:102470008091C3059091C4050797E0F02091A705CE
:102480003091A80581E090E0232B11F080E090E0EE
:102490009093A8058093A7051092C4051092C305D8
:1024A000709231068BE394E00E949E0D03C02111CF
:1024B00010923106F8946091AB057091AC05809153
:1024C000AD059091AE052091050130910601409136
:1024D0000701509108010E9431168111B0C080910E
:1024E000A7059091A8052091A9053091AA05281764
:1024F000390709F0A4C02091A5053091A605809167
:10250000A3059091A4052817390709F098C0CDC1FB
:102510002091BF053091C005A9014F5F5F4F5093D7
:10252000C0054093BF05F901E754FA4F80838ECF71
:102530008DB69EB68091BF059091C00501972DB7CD
:102540003EB7281B390B0FB6F8943EBF0FBE2DBF08
:102550008DB79EB701967C014091BF055091C00593
:1025600069EB75E00E940D1B1092C0051092BF052B
:102570000230110509F038CFC7010E94F5156093AC
:10258000930570939405809395059093960586E244
:1025900092E00E94B10D6091930570919405809135
:1025A0009505909196050E94DD0D86EC93E03ECF57
:1025B00003301105E1F4C7010E94F51560938F0502
:1025C0007093900580939105909392058EE392E02D
:1025D0000E94B10D60918F057091900580919105D9
:1025E000909192050E94DD0D89EE93E01FCF04309B
:1025F000110509F026CFC7010E94F51560938B05E0
:1026000070938C0580938D0590938E058FE492E0F6
:102610000E94B10D60918B0570918C0580918D05A4
:1026200090918E050E94DD0D8FE094E00E949E0D3A
:102630001092C2051092C1050E94440B02CF0E9465
:102640002B090E94F40400912D0610912E06209172
:102650002F0630913006601771078207930740F408
:1026600010922D0610922E0610922F061092300610
:102670000E94F40400912D0610912E0620912F0641
:1026800030913006DC01CB01801B910BA20BB30B08
:10269000893E9340A105B10508F450C00E94CA06C6
:1026A00060927C0080917A00806480937A008091AF
:1026B0007A0086FDFCCF009178008091790010E0CF
:1026C000182B033311050CF00CC281E10E947F032B
:1026D000892B09F00EC28091C7059091C80501961B
:1026E0009093C8058093C7058091C7059091C80550
:1026F0000397D1F461E081E10E94A8031092C8051C
:102700001092C7058091B30581110EC087E594E052
:102710000E94B10DB801110F880B990B0E94B30DE7
:102720008DE694E00E949E0D0E94F40460932D06B5
:1027300070932E0680932F069093300600E010E0F1
:10274000212C312C2101812C912CC401880F991F3F
:10275000880F991F9C01275F3E4F7901D9016D9128
:102760007D918D919C9120E030E04CE652E40E94F6
:10277000311687FF0EC0F7016081718182819381DC
:1027800020E030E040E151EC0E94B71818160CF43C
:10279000E2C1FFEF8F1A9F0A25E082169104A9F685
:1027A0000115110581F0B801110F880B990B0E94DA
:1027B00038169B01AC01C201B1010E940F180E94A2
:1027C00081188B0102C000E010E089ECE82E85E062
:1027D000F82EF70120E030E08191280F311D86E0CE
:1027E000ED32F807C9F7C901B6010E94C118601B94
:1027F000710B1616170634F0C901B5010E94C118F5
:10280000600F711F6330710574F4B801110F880BEC
:10281000990B0E9438166093AF057093B0058093B2
:10282000B1059093B205EAECF5E08191D7018D9363
:102830007D01BCE2EB16B6E0FB06B9F700932C066F
:102840000E94F4040091B4051091B5052091B605DD
:102850003091B705601771078207930740F4109213
:10286000B4051092B5051092B6051092B705809187
:10287000B3058823B1F00E94F4040091B4051091CF
:10288000B5052091B6053091B705DC01CB01801B61
:10289000910BA20BB30B893E9340A105B10508F043
:1028A00068C178940E94C00014CD0E94F404009185
:1028B0009F051091A0052091A1053091A2056017F8
:1028C00071078207930740F410929F051092A005AC
:1028D0001092A1051092A2050E94F40400919F0598
:1028E0001091A0052091A1053091A205DC01CB013A
:1028F000801B910BA20BB30B81319742A105B1054F
:1029000008F49FCE8091040181119BCE6091050156
:102910007091060180910701909108010E94811831
:1029200080E090E00E94C6062090050130900601EC
:1029300040900701509008016091050170910601D7
:1029400080910701909108010E948118072E000CC8
:10295000880B990B0E9438169B01AC01C201B10192
:102960000E94A21720E030E040E251E40E94971656
:102970000E94811881E090E00E94C6066091A70540
:102980007091A80582E190E00E94C6066091A505BD
:1029900083E190E00E94C60680919B0530919C05E2
:1029A00020919D0590919E05682F80939705309307
:1029B00098052093990590939A0582E090E00E94F3
:1029C000C6066091980583E090E00E94C60660917B
:1029D000990584E090E00E94C60660919A0585E022
:1029E00090E00E94C6068091930530919405209155
:1029F000950590919605682F8093970530939805DB
:102A00002093990590939A0586E090E00E94C6066F
:102A10006091980587E090E00E94C6066091990554
:102A200088E090E00E94C60660919A0589E090E0F7
:102A30000E94C60680918F053091900520919105E6
:102A400090919205682F8093970530939805209375
:102A5000990590939A058AE090E00E94C6066091DD
:102A600098058BE090E00E94C606609199058CE085
:102A700090E00E94C60660919A058DE090E00E9469
:102A8000C60680918B0530918C0520918D05909123
:102A90008E05682F809397053093980520939905AC
:102AA00090939A058EE090E00E94C606609198058A
:102AB0008FE090E00E94C6066091990580E190E069
:102AC0000E94C60660919A0581E190E00E94C606C8
:102AD0000E94440B7092040182E994E00E949E0DD2
:102AE000B0CD0C3311052CF081E10E947F03892BBE
:102AF00049F41092C8051092C7051092C6051092AD
:102B0000C50512CE8091C5059091C605019690939A
:102B1000C6058093C5058091C5059091C6050397AC
:102B200009F002CE60E081E10E94A8031092C60580
:102B30001092C5058091B3058111F6CD87E594E02B
:102B40000E94B10DB801110F880B990B0E94B30DB3
:102B50008FE794E0E7CDD7012D913D914D915C91A8
:102B6000C201B1010E94A3171B012C010F5F1F4F6F
:102B700010CE0E948D0A95CEE2E3F6E01382128217
:102B800088EE93E0A0E0B0E084839583A683B783CA
:102B900025E331E03183208325EC30E0358724873D
:102BA00024EC30E03787268720EC30E0318B208B17
:102BB00021EC30E0338B228B22EC30E0358B248B00
:102BC00026EC30E0378B268B128E138E148E158EEA
:102BD000E0E5F7E01382128284839583A683B783AE
:102BE00085E491E09183808308951F93FC019927E8
:102BF0008827BC01E89411911032E9F3193010F0E4
:102C00001E30C8F31B3251F01D3249F4689406C0DF
:102C10000E941C16610F711D811D911D1191105391
:102C20001A30B0F33EF490958095709561957F4F82
:102C30008F4F9F4F1F910895592F482F372F262FC1
:102C4000660F771F881F991F660F771F881F991FB0
:102C5000620F731F841F951F660F771F881F991FB0
:102C600008950E94731608F481E00895E89409C05D
:102C700097FB3EF490958095709561957F4F8F4FAF
:102C80009F4F9923A9F0F92F96E9BB279395F695C5
:102C9000879577956795B795F111F8CFFAF4BB0F43
:102CA00011F460FF1BC06F5F7F4F8F4F9F4F16C0A7
:102CB000882311F096E911C0772321F09EE8872F31
:102CC000762F05C0662371F096E8862F70E060E0ED
:102CD0002AF09A95660F771F881FDAF7880F969566
:102CE000879597F90895990F0008550FAA0BE0E80A
:102CF000FEEF16161706E807F907C0F012161306BE
:102D0000E407F50798F0621B730B840B950B39F4FD
:102D10000A2661F0232B242B252B21F408950A2663
:102D200009F4A140A6958FEF811D811D08950E9491
:102D3000AA160C941B170E940D1738F00E94141746
:102D400020F0952311F00C9404170C940A17112409
:102D50000C944F170E942C1770F3959FC1F3950F99
:102D600050E0551F629FF001729FBB27F00DB11D0F
:102D7000639FAA27F00DB11DAA1F649F6627B00D9F
:102D8000A11D661F829F2227B00DA11D621F739F88
:102D9000B00DA11D621F839FA00D611D221F749F96
:102DA0003327A00D611D231F849F600D211D822FDD
:102DB000762F6A2F11249F5750409AF0F1F0882304
:102DC0004AF0EE0FFF1FBB1F661F771F881F915031
:102DD0005040A9F79E3F510580F00C9404170C94C5
:102DE0004F175F3FE4F3983ED4F386957795679548
:102DF000B795F795E7959F5FC1F7FE2B880F911D5B
:102E00009695879597F9089597F99F6780E870E000
:102E100060E008959FEF80EC089500240A94161650
:102E2000170618060906089500240A9412161306B8
:102E3000140605060895092E0394000C11F4882346
:102E400052F0BB0F40F4BF2B11F460FF04C06F5F62
:102E50007F4F8F4F9F4F089557FD9058440F551F38
:102E600059F05F3F71F04795880F97FB991F61F00C
:102E70009F3F79F087950895121613061406551F83
:102E8000F2CF4695F1DF08C0161617061806991FEF
:102E9000F1CF86957105610508940895E894BB27E4
:102EA00066277727CB0197F90895F999FECF92BD50
:102EB00081BDF89A992780B50895262FF999FECFFC
:102EC0001FBA92BD81BD20BD0FB6F894FA9AF99A47
:102ED0000FBE019608952F923F924F925F926F928C
:102EE0007F928F929F92AF92BF92CF92DF92EF929A
:102EF000FF920F931F93CF93DF93CDB7DEB7CA1B1B
:102F0000DB0B0FB6F894DEBF0FBECDBF09942A8845
:102F1000398848885F846E847D848C849B84AA84ED
:102F2000B984C884DF80EE80FD800C811B81AA817A
:102F3000B981CE0FD11D0FB6F894DEBF0FBECDBF45
:102F4000ED0108955058BB27AA270E94BA170C9488
:102F50001B170E940D1738F00E94141720F039F447
:102F60009F3F19F426F40C940A170EF4E095E7FB42
:102F70000C940417E92F0E942C1758F3BA17620714
:102F800073078407950720F079F4A6F50C944E1783
:102F90000EF4E0950B2EBA2FA02D0B01B901900174
:102FA0000C01CA01A0011124FF27591B99F0593FB8
:102FB00050F4503E68F11A16F040A22F232F342F00
:102FC0004427585FF3CF469537952795A795F0404E
:102FD0005395C9F77EF41F16BA0B620B730B840B63
:102FE000BAF09150A1F0FF0FBB1F661F771F881F1B
:102FF000C2F70EC0BA0F621F731F841F48F4879573
:1030000077956795B795F7959E3F08F0B0CF939564
:10301000880F08F09927EE0F9795879508950E94DD
:1030200023180C941B170E94141758F00E940D17B8
:1030300040F029F45F3F29F00C94041751110C94CF
:103040004F170C940A170E942C1768F39923B1F3B9
:10305000552391F3951B550BBB27AA2762177307BE
:10306000840738F09F5F5F4F220F331F441FAA1F52
:10307000A9F335D00E2E3AF0E0E832D0915050400E
:10308000E695001CCAF72BD0FE2F29D0660F771FBC
:10309000881FBB1F261737074807AB07B0E809F0A2
:1030A000BB0B802DBF01FF2793585F4F3AF09E3F27
:1030B000510578F00C9404170C944F175F3FE4F31C
:1030C000983ED4F3869577956795B795F7959F5F6A
:1030D000C9F7880F911D9695879597F90895E1E0B6
:1030E000660F771F881FBB1F621773078407BA0715
:1030F00020F0621B730B840BBA0BEE1F88F7E09570
:1031000008950E9488186894B1110C944F1708957F
:103110000E94341788F09F5798F0B92F9927B7511C
:10312000B0F0E1F0660F771F881F991F1AF0BA956B
:10313000C9F714C0B13091F00E944E17B1E0089564
:103140000C944E17672F782F8827B85F39F0B93F56
:10315000CCF3869577956795B395D9F73EF490951E
:103160008095709561957F4F8F4F9F4F08950E9476
:10317000731608F48FEF08950E947316880B990B4D
:10318000089597FB072E16F4009407D077FD09D019
:103190000E94F71807FC05D03EF4909581959F4F4B
:1031A0000895709561957F4F0895A1E21A2EAA1B8C
:1031B000BB1BFD010DC0AA1FBB1FEE1FFF1FA217E7
:1031C000B307E407F50720F0A21BB30BE40BF50BE4
:1031D000661F771F881F991F1A9469F7609570956D
:1031E000809590959B01AC01BD01CF010895AA1B6C
:1031F000BB1B51E107C0AA1FBB1FA617B70710F0E2
:10320000A61BB70B881F991F5A95A9F78095909513
:10321000BC01CD010895EE0FFF1F0590F491E02D44
:103220000994CF93DF938230910510F482E090E00F
:10323000E0915E07F0915F0720E030E0C0E0D0E071
:10324000309711F14081518148175907C0F0481754
:10325000590761F482819381209719F09B838A83B7
:103260002BC090935F0780935E0726C02115310520
:1032700019F04217530718F49A01BE01DF01EF015C
:103280000280F381E02DDCCF2115310509F1281BE7
:10329000390B2430310590F412968D919C9113973F
:1032A0006115710521F0FB019383828304C0909323
:1032B0005F0780935E07FD01329644C0FD01E20F77
:1032C000F31F81939193225031092D933C933AC07F
:1032D00020915C0730915D07232B41F420911F0161
:1032E0003091200130935D0720935C0720911D01F0
:1032F00030911E012115310541F42DB73EB74091A3
:10330000210150912201241B350BE0915C07F091C3
:103310005D07E217F307A0F42E1B3F0B28173907B0
:1033200078F0AC014E5F5F4F2417350748F04E0F21
:103330005F1F50935D0740935C078193919302C098
:10334000E0E0F0E0CF01DF91CF9108950F931F935C
:10335000CF93DF93009709F48CC0FC01329713825E
:10336000128200915E0710915F070115110581F42B
:1033700020813181820F931F20915C0730915D077E
:103380002817390779F5F0935D07E0935C0771C062
:10339000D80140E050E0AE17BF0750F412962D91CF
:1033A0003C911397AD012115310509F1D901F3CFF6
:1033B0009D01DA013383228360817181860F971F1B
:1033C0008217930769F4EC0128813981260F371F92
:1033D0002E5F3F4F318320838A819B819383828339
:1033E000452B29F4F0935F07E0935E0742C01396E4
:1033F000FC93EE931297ED01499159919E01240F90
:10340000351FE217F30771F480819181840F951FB6
:10341000029611969C938E938281938113969C932E
:103420008E931297E0E0F0E0D80112968D919C9176
:103430001397009719F0F8018C01F6CF8D919C91AC
:1034400098012E5F3F4F820F931F20915C073091B0
:103450005D072817390769F4309729F410925F0740
:1034600010925E0702C01382128210935D070093D0
:103470005C07DF91CF911F910F910895A0E0B0E01C
:10348000E4E4FAE10C946F17EC01009721F4CB010E
:103490000E941119B8C0FC01E60FF71F9C012250D1
:1034A0003109E217F30708F4ACC0D9010D911C9162
:1034B000119706171707B0F00530110508F49FC0E3
:1034C000C80104978617970708F499C0025011099C
:1034D000061B170B019311936D937C93CF010E94F0
:1034E000A6198DC05B01A01AB10A4C01800E911E75
:1034F000A0915E07B0915F0740E050E0E12CF12C15
:10350000109709F44AC0A815B905D1F56D907C90C3
:103510001197630182E0C80ED11CCA14DB0480F14C
:10352000A3014A195B096A0182E0C80ED11C1296F8
:10353000BC9012971396AC91B5E0CB16D10440F035
:10354000B282A38351834083D9016D937C930AC0D7
:103550000E5F1F4FC301800F911FF901918380837C
:10356000EB2DFA2FE114F10431F0D7011396FC93FF
:10357000EE93129744C0F0935F07E0935E073FC05D
:103580008D919C9111974817590708F4AC017D0162
:1035900012960D90BC91A02DB3CF80915C079091B5
:1035A0005D0788159905E1F446175707C8F480911F
:1035B0001D0190911E01009741F48DB79EB7409177
:1035C000210150912201841B950BE817F907C8F4DB
:1035D000F0935D07E0935C07F901718360830FC08E
:1035E000CB010E9411197C01009759F0A801BE017E
:1035F0000E940D1BCE010E94A619C70104C0CE0176
:1036000002C080E090E0CDB7DEB7EEE00C948B17FF
:1036100081E090E0F8940C941D1BFB01DC0102C0DA
:1036200001900D9241505040D8F70895FB01DC0104
:0E36300001900D920020E1F70895F894FFCF6D
:10363E001801180101000020410000204100002067
:10364E0041000020410000204100002041000060A8
:10365E000780000F000A0005000600070008000999
:10366E0000000000002D03380CB4008C00A4006F85
:10367E000C00000000C101AD01A501910182018184
:10368E0001456E636F646572202B00456E636F6437
:10369E006572202D00436F6E74726F6C6C657220B4
:1036AE00636F6D6D616E643A20000D0A00436F6E9C
:1036BE0074726F6C6C65722074656D703A20005A6E
:1036CE006F6E6520002054656D703A2000274320F0
:1036DE005374617475733A200027462053746174D5
:1036EE0075733A20004E65772074656D703A200030
:1036FE004E657720646576696365207374617465C1
:10370E003A20005057520954454D50095A6F6E6574
:10371E0031095A6F6E6532095A6F6E6533095A6FE9
:10372E006E6534095A6F6E6535005A4F4E455F52BD
:10373E00454C4159094F4E09005A4F4E455F52456F
:10374E004C4159094F464609004E54435F425F4370
:10375E006F6566663D004E54435F4E6F6D696E61D8
:10376E006C5F526573697374616E63653D0053657A
:10377E007269616C5F5265736973746F723D004E4E
:10378E006F6D696E616C5F543D00274600274300E4
:10379E0054656D7020756E6974733A20002A2A2A5A
:1037AE002A2863293230313820566C6164696D697C
:1037BE00722050616B686F6D6F7620676133407950
:1037CE00616E6465782E72752A2A2A2A00223022AA
:1037DE00202D204465627567206F75747075742096
:1037EE004F464600223122202D2044656275672007
:1037FE006F7574707574204F4E00223222202D206A
:10380E0053686F772064657669636520737461749D
:10381E0065206F6E636500223322202D204E5443A7
:10382E002073656E736F727320636F6E7374616E47
:10383E00747320736574757000223422202D204419
:10384E006973706C6179204E54432073656E736F8B
:10385E00727320636F6E7374616E747300223522FF
:10386E00202D20546F67676C6520435C460022361E
:10387E0022202D20546F67676C65204F6E5C4F665B
:10388E006600526573746F72656420736574746933
:10389E006E67732066726F6D20454550524F4D0016
:1038AE005365747570206D6F646520656E746572F6
:1038BE00656400456E746572204E54435F425F43EB
:1038CE004F4546462076616C75653A00456E7465C7
:1038DE0072204E54435F4E6F6D696E616C5F526520
:1038EE0073697374616E63652076616C75652028EB
:1038FE004F686D293A00456E746572205365726982
:10390E00616C5F5265736973746F722076616C754A
:10391E006520284F686D293A00456E746572204EF9
:10392E006F6D696E616C5F54656D706572617475F3
:10393E0072652076616C756520282743293A0053FD
:10394E00657475702076616C75657320656E74652F
:10395E007265642C20657869742066726F6D2073B1
:10396E0065747570206D6F64652E005075736820D8
:10397E00427574746F6E206576656E74207472690C
:10398E00676765726564004C696768742053656E7D
:10399E00736F722056616C7565203D20002E20429B
:1039AE007574746F6E204C69676874204F4E002ECC
:1039BE0020427574746F6E204C69676874204F4690
:1039CE00460043757272656E742073657474696E09
:1039DE00677320736176656420746F20454550527D
:1039EE004F4D006E616E00696E66006F7666000068
:00000001FF
