:100000000C9462000C9402060C94DB050C948A009C
:100010000C948A000C948A000C948A000C948A0038
:100020000C948A000C948A000C948A000C948A0028
:100030000C948A000C948A000C948A000C948A0018
:100040000C9491050C948A000C94C7030C94A103A2
:100050000C948A000C948A000C948A000C948A00F8
:100060000C9429060C948A0000000000250028004A
:100070002B000000000023002600290000000008DB
:10008000000201000003040700000000000000005F
:1000900000000000240027002A00010204081020AC
:1000A000408001020408102001020408102004040A
:1000B0000404040404040202020202020303030310
:1000C00003035D1511241FBECFEFD8E0DEBFCDBF07
:1000D00026E0ACEAB4E001C01D92A83EB207E1F709
:1000E00014E0A0E0B1E0E0E3F5E302C005900D927A
:1000F000AC3AB107D9F710E0C2E6D0E004C02197CE
:10010000FE010E948418C136D107C9F70E94AC0EC7
:100110000C94961A0C940000FC01928D838D981714
:1001200081F0838DDF01A80FB11DA80FB11D5E9670
:100130008C915E975F969C91238D2F5F2F73238FF9
:1001400008958FEF9FEF0895FC01928D838D98178E
:1001500041F0838DE80FF11DE80FF11D868D978D1D
:1001600008958FEF9FEF0895FC01928D238D892FC5
:1001700090E0805C9F4F821B91098F7399270895AF
:10018000FC01258D820F911D820F911DDC01A2566D
:10019000BF4F2D913C91858D90E001968F739927EB
:1001A000858FA289B3898C9130FF02C0816001C024
:1001B0008E7F8C93A689B7892C93A089B1898C9165
:1001C00080648C93948D858D981306C00288F38982
:1001D000E02D80818F7D80830895CF93DF93EC01A4
:1001E000888D8823C9F0EA89FB89808185FD05C057
:1001F000A889B9898C9186FD0FC00FB607FCF5CF91
:10020000808185FFF2CFA889B9898C9185FFEDCFD8
:10021000CE010E94C000E7CFDF91CF91089580E02A
:1002200090E0892B29F00E94E10C81110C940000D0
:100230000895EF92FF920F931F93CF93DF93EC01FA
:1002400081E0888F9C8D8D8D981305C0E889F98990
:10025000808185FD2AC0F62E0C8D10E00F5F1F4FA8
:100260000F731127E02E8D8DE8120CC00FB607FC1E
:10027000FACFE889F989808185FFF5CFCE010E9408
:10028000C000F1CF2C8DCE01820F911D820F911DE8
:10029000FC01E256FF4F6F2D70E0718360830C8F7D
:1002A000EA89FB89808180620CC0EA89FB898081B0
:1002B0008E7F8083EE89FF896083E889F989808158
:1002C0008064808381E090E0DF91CF911F910F9156
:1002D000FF90EF900895833081F028F4813099F0F9
:1002E0008230A1F008958730A9F08830B9F08430C9
:1002F000D1F4809180008F7D03C0809180008F7742
:1003000080938000089584B58F7702C084B58F7D77
:1003100084BD08958091B0008F7703C08091B000B4
:100320008F7D8093B00008953FB7F8948091640565
:1003300090916505A0916605B091670526B5A89BCB
:1003400005C02F3F19F00196A11DB11D3FBFBA2F67
:10035000A92F982F8827820F911DA11DB11DBC01C7
:10036000CD0142E0660F771F881F991F4A95D1F78C
:100370000895089585ED8093BC008091BC0084FDB4
:10038000FCCF10926A05089540911805262F30E0A1
:10039000240F311D21323105DCF420916A0524300F
:1003A000C9F4FC0180E090E0861758F430911805FC
:1003B0002191DC01A850BB4FA30FB11D2C930196D6
:1003C000F3CF80911805680F6093180580E00895B9
:1003D00081E0089582E00895E0917505F091760539
:1003E000309729F010926C0510926B0509940895CE
:1003F000CF93DF93AC01E0917305F09174053097D2
:10040000F1F090916E0580916D059817C0F090E025
:10041000292F30E02617370754F4D901A852BB4FD3
:10042000EA01C20FD31F88818C939F5FF1CF109296
:100430006E0560936D05CB01DF91CF910994DF913B
:10044000CF9108950895E0916E0580916D05E817AC
:1004500030F4F0E0E852FB4F808190E008958FEF98
:100460009FEF089590916E0580916D05981750F457
:10047000E92FF0E0E852FB4F208130E09F5F90933E
:100480006E0502C02FEF3FEFC901089580916D0501
:1004900090E020916E05821B91090895CF93DF9320
:1004A00000D0CDB7DEB7CB01642F49835A830E94B9
:1004B000C4014981842F5A81952F0F900F90DF91AD
:1004C000CF910895CF93DF931F92CDB7DEB76983A5
:1004D00061E0CE0101960E94C40181E090E00F909E
:1004E000DF91CF9108958EBD00000DB407FEFDCFC2
:1004F0008EB508950E947302E3E2F0E03197F1F7C0
:100500000895F89489B18C708093AE048091AE0404
:100510008C3021F48091AD04811109C08091AE042A
:10052000883019F481E08093AC0478940895809128
:10053000930590919405892BB1F181E591E00E949A
:100540008B0D6091050170910601809107019091DA
:10055000080120E030E040E05FE30E944417609330
:100560000501709306018093070190930801609143
:10057000050170910601809107019091080120E02A
:1005800030E044E352E40E945818181664F480E006
:1005900090E0A4E3B2E48093050190930601A09358
:1005A0000701B09308011092AD041092AC04BDCFC6
:1005B000F89489B18C708093AE048091AE048C3035
:1005C00021F48091AC04811109C08091AE04843083
:1005D00019F481E08093AD04789408958091930597
:1005E00090919405892BB1F18BE591E00E948B0DE0
:1005F00060910501709106018091070190910801B9
:1006000020E030E040E05FE30E9443176093050183
:100610007093060180930701909308016091050192
:1006200070910601809107019091080120E030E06F
:1006300040E251E40E94D21587FF0CC080E090E0B8
:10064000A0E2B1E48093050190930601A093070115
:10065000B09308011092AD041092AC04BDCFCF92BC
:10066000DF92EF92FF920F931F93CF93DF93C0908F
:100670009B05D0909C05E0909D05F0909E0520E0A4
:1006800030E0A901C701B6010E94581820E030E00F
:1006900040E05FE387FD05C0C701B6010E94441733
:1006A00004C0C701B6010E9443170E942218EB0143
:1006B00060910501709106018091070190910801F8
:1006C00020E030E0A9010E94581887FD0FC060911A
:1006D000050170910601809107019091080120E0C9
:1006E00030E040E05FE30E9444170EC060910501D6
:1006F00070910601809107019091080120E030E09F
:1007000040E05FE30E9443170E9422188B01CE0154
:100710000E94990DC8010E94990D809193059091B6
:1007200094050E94990D8091910590919205DF9119
:10073000CF911F910F91FF90EF90DF90CF900C948D
:10074000990D1F920F920FB60F9211242F933F9382
:100750004F935F936F937F938F939F93AF93BF93C9
:10076000EF93FF938AEB95E00E94C000FF91EF9119
:10077000BF91AF919F918F917F916F915F914F91B9
:100780003F912F910F900FBE0F901F9018951F92C1
:100790000F920FB60F9211242F933F938F939F9335
:1007A000AF93BF93EF93FF93E091CA05F091CB0510
:1007B0008081A091CC05B091CD05E091D005F0915C
:1007C000D10582FD1EC08C9130812091D4052F5F10
:1007D0002F739091D5052917B1F0E091D40582705F
:1007E00090E09695982F882797958795F0E0EE0FE3
:1007F000FF1FE852FA4F832B918380832093D40507
:1008000002C08C918081FF91EF91BF91AF919F9138
:100810008F913F912F910F900FBE0F901F901895C1
:10082000CF93DF93282F30E0F901E458FF4F8491F4
:10083000F901E656FF4FD491F901E255FF4FC491FB
:10084000CC2391F081110E946B01EC2FF0E0EE0FB0
:10085000FF1FEE58FF4FA591B491EC91ED2381E07D
:1008600090E021F480E002C080E090E0DF91CF9141
:1008700008951F93CF93DF93282F30E0F901E458B8
:10088000FF4F8491F901E656FF4FD491F901E255EB
:10089000FF4FC491CC23C9F0162F81110E946B0128
:1008A000EC2FF0E0EE0FFF1FE859FF4FA591B49138
:1008B0008FB7F894111105C09C91ED2FE095E923B5
:1008C00002C0EC91ED2BEC938FBFDF91CF911F9184
:1008D00008950F931F93CF93DF93039709F09AC066
:1008E00088ED96E00E9432028C0188ED96E00E942D
:1008F0003202EC0188ED96E00E943202909392055C
:1009000080939105C230D10548F5D0939405C093EA
:10091000930585E691E00E949E0D6091930570918C
:100920009405072E000C880B990B0E94A00D8AE7F6
:1009300091E00E94380D8091930590919405892B48
:1009400009F068C0C7E2D1E08881229660E00E9489
:10095000390481E0C133D807B9F75CC0239709F0A7
:1009600059C0B801110F880B990B0E94D9156093DB
:1009700005017093060180930701909308018DE7AC
:1009800091E00E949E0D6091050170910601809199
:1009900007019091080140E00E94D80D8AE791E09C
:1009A0000E94380D60910501709106018091070148
:1009B0009091080120E030E044E352E40E9458188E
:1009C000181664F480E090E0A4E3B2E4809305019B
:1009D00090930601A0930701B0930801609105016F
:1009E00070910601809107019091080120E030E0AC
:1009F00040E251E40E94D21587FF0CC080E090E0F5
:100A0000A0E2B1E48093050190930601A093070151
:100A1000B0930801DF91CF911F910F910895CF936B
:100A2000DF9390E0FC01E656FF4F2491FC01E25574
:100A3000FF4F8491882361F190E0880F991FFC019A
:100A4000E057FF4FC591D491FC01E859FF4FA591A4
:100A5000B491611109C09FB7F894888120958223D1
:100A60008883EC912E230BC0623061F49FB7F89419
:100A70003881822F809583238883EC912E2B2C93B1
:100A80009FBF06C08FB7F894E8812E2B28838FBFB5
:100A9000DF91CF9108958F929F92AF92BF92CF92A4
:100AA000DF92EF92FF926B017C010E9494014B0157
:100AB0005C01C114D104E104F104F1F00E9494013D
:100AC000DC01CB0188199909AA09BB09883E93402A
:100AD000A105B10570F321E0C21AD108E108F108BF
:100AE00088EE880E83E0981EA11CB11CC114D104AD
:100AF000E104F10419F7DDCFFF90EF90DF90CF9084
:100B0000BF90AF909F908F9008952FB7F894609109
:100B100060057091610580916205909163052FBF1A
:100B200008951F920F920FB60F9211242F933F93A7
:100B30008F939F93AF93BF938091600590916105D0
:100B4000A0916205B091630530915F0523E0230F0A
:100B50002D3720F40196A11DB11D05C026E8230FF5
:100B60000296A11DB11D20935F05809360059093AF
:100B70006105A0936205B09363058091640590912F
:100B80006505A0916605B09167050196A11DB11D8F
:100B90008093640590936505A0936605B0936705FF
:100BA000BF91AF919F918F913F912F910F900FBE69
:100BB0000F901F9018951F920F920FB60F9211244D
:100BC0002F933F934F935F936F937F938F939F9355
:100BD000AF93BF93EF93FF93E0910201F091030174
:100BE0000995FF91EF91BF91AF919F918F917F9167
:100BF0006F915F914F913F912F910F900FBE0F908A
:100C00001F9018951F920F920FB60F9211242F93D9
:100C10003F934F935F936F937F938F939F93AF9384
:100C2000BF93EF93FF93E0910001F09101010995CB
:100C3000FF91EF91BF91AF919F918F917F916F91B4
:100C40005F914F913F912F910F900FBE0F901F908A
:100C500018951F920F920FB60F9211242F933F9366
:100C60004F935F936F937F938F939F93AF93BF93B4
:100C7000EF93FF938091B900887F803609F49CC080
:100C800068F5883209F45BC090F4803109F454C0EF
:100C900038F4882309F4F6C0883009F44DC0F6C052
:100CA000883109F44CC0803209F45DC0EFC0803453
:100CB00009F468C048F4803309F455C0883309F05A
:100CC000E5C080933B05D8C0803509F44FC0883516
:100CD00009F45DC0883409F0D9C0D6C0883909F458
:100CE000C7C0A8F4883709F467C038F4883609F417
:100CF00063C0803709F460C0C9C0883809F4B8C03F
:100D0000803909F45FC0803809F0C0C05BC0803B07
:100D100009F486C038F4803A09F466C0883A09F4C8
:100D20007FC0B4C0803C09F4A7C0883C09F4A4C0CB
:100D3000883B09F48AC0AAC080915E0510C09091DA
:100D40005D0580915C05981770F5E0915D0581E087
:100D50008E0F80935D05F0E0E45CFA4F8081809314
:100D6000BB0085EC86C080933B058EC0E0915D059D
:100D700081E08E0F80935D058091BB00F0E0E45C24
:100D8000FA4F808390915D0580915C056EC0E09183
:100D90005D0581E08E0F80935D058091BB00F0E0E2
:100DA000E45CFA4F80838091690581116DC081E018
:100DB0008093680584EA61C083E080936A0510929D
:100DC0003A05CFCF80913A05803208F051C0E091CA
:100DD0003A0581E08E0F80933A058091BB00F0E0E8
:100DE000E65EFA4F8083BDCF85EC8093BC00109205
:100DF0006A0580913A05803230F4E0913A05F0E0DE
:100E0000E65EFA4F108260913A0570E0E0916F055E
:100E1000F09170058AE195E0099510923A0536C087
:100E200084E080936A051092190510921805E091EC
:100E30007105F0917205099580911805811105C021
:100E400081E0809318051092F804E091190581E083
:100E50008E0F80931905F0E0E850FB4F808180935E
:100E6000BB009091190580911805981708F479CF67
:100E700085E88093BC000AC085EC8093BC0010928A
:100E80006A0504C010923B050E94BA01FF91EF91E0
:100E9000BF91AF919F918F917F916F915F914F9192
:100EA0003F912F910F900FBE0F901F9018950C94AB
:100EB000FE160C94F6162F923F924F925F926F920D
:100EC0007F928F929F92AF92BF92CF92DF92EF92DA
:100ED000FF920F931F93CF93DF93CDB7DEB7649745
:100EE0000FB6F894DEBF0FBECDBF80E090E0A0E269
:100EF000B1EC8093090190930A01A0930B01B09388
:100F00000C0180930D0190930E01A0930F01B093FB
:100F100010018093110190931201A0931301B093DB
:100F200014018093150190931601A0931701B093BB
:100F300018018093190190931A01A0931B01B0939B
:100F40001C0160E08FE00E9439048091C7040E9478
:100F50007A0248ECE42E44E0F42E8E010F5F1F4F1E
:100F60006E0181E1C80ED11CF70181917F010E94C1
:100F70007A02F80181938F01EC15FD05A9F78091A4
:100F80009305909194050E947A02898B8091930534
:100F9000909194050E947A028A8B8091930590919A
:100FA00094050E947A028B8B809193059091940511
:100FB0000E947A028C8B61E08FE00E94390461E02C
:100FC00070E080E090E00E944B05FE01349680E0E6
:100FD00090E0DF0113972C912093C30411962C917C
:100FE0002093C40411962C912093C5042081209352
:100FF000C6044091C3045091C4046091C50470912B
:10100000C604DC01AA0FBB1FAA0FBB1FA75FBE4F00
:101010004D935D936D937C93139701963496853031
:101020009105B9F68091930590919405892B09F467
:101030008AC127E2A22E21E0B22EE12CF12C670119
:10104000CC0CDD1CCC0CDD1CC601875F9E4F4C0117
:10105000FC01608171818281938120900501309033
:101060000601409007015090080120E030E040E286
:1010700051E40E9438160E9422183B0120E030E023
:1010800040E05FE3C201B1010E94441720E030E07C
:1010900040E251E40E9438160E9422188701000F96
:1010A000111F66167706D4F4F40160817181828184
:1010B000938120E030E04CE652E40E94581887FF0C
:1010C0000DC0F401608171818281938120E030E064
:1010D00040E251EC0E94D215181644F0F5019080C0
:1010E000892D0E941004892B09F053C0C601875F27
:1010F0009E4F6C01FC0160817181828193814090DF
:10110000050150900601609007017090080120E0F1
:1011100030E040E251E40E9438160E9422184B0150
:1011200020E030E040E05FE3C301B2010E944317DA
:1011300020E030E040E251E40E9438160E9422187C
:10114000681579050CF4EAC0F6016081718182812D
:10115000938120E030E040E251EC0E9458181816CC
:101160000CF0DCC0F5019080892D0E941004892BC1
:1011700009F0D4C0F601608171818281938120E001
:1011800030E040E351EC0E94581818160CF0C6C02D
:1011900057C007541B4FF801208131812F5F3F4F0B
:1011A0003183208380819181059709F0CCC060E074
:1011B000892D0E943904F8011182108280919F05C7
:1011C0008111C1C08FE891E00E949E0DB7016F5F51
:1011D0007F4F072E000C880B990B0E94A00D85E90C
:1011E00091E00E949E0D8091910590919205F601EB
:1011F000E75FFE4F892B51F4608171818281938179
:1012000041E00E94D80D8DE991E015C060817181A7
:101210008281938126E636E646EE5FE30E94381629
:1012200020E030E040E052E40E94441741E00E9498
:10123000D80D89EA91E00E949E0D89E794E03EC0B6
:1012400001551B4FF801208131812F5F3F4F3183C2
:10125000208380819181059709F075C061E0892D17
:101260000E943904F8011182108280919F0581113A
:101270006AC08FE891E00E949E0DB7016F5F7F4FBB
:10128000072E000C880B990B0E94A00D85E991E0B8
:101290000E949E0D8091910590919205F601892BF7
:1012A00039F5608171818281938141E00E94D80D7E
:1012B0008DE991E00E949E0D87E694E064960FB65A
:1012C000F894DEBF0FBECDBFDF91CF911F910F917C
:1012D000FF90EF90DF90CF90BF90AF909F908F9056
:1012E0007F906F905F904F903F902F900C948B0D5C
:1012F000608171818281938126E636E646EE5FE366
:101300000E94381620E030E040E052E40E9444178A
:1013100041E00E94D80D89EA91E0CCCFF801E75472
:10132000FB4F11821082F801E155FB4F11821082B0
:10133000FFEFEF1AFF0A82E0A80EB11C95E0E91654
:10134000F10409F07CCE64960FB6F894DEBF0FBEB0
:10135000CDBFDF91CF911F910F91FF90EF90DF9064
:10136000CF90BF90AF909F908F907F906F905F9045
:101370004F903F902F900895CF92DF92EF92FF927F
:101380000F931F93CF93DF930E94850560938B0586
:1013900070938C0580938D0590938E0510920401B7
:1013A00060919705709198058091990590919A05A3
:1013B00020910501309106014091070150910801EB
:1013C0000E94D215882329F080919F05882309F473
:1013D0000BC18091930590919405209195053091D2
:1013E00096052817390799F080919F0581110FC044
:1013F00080EC91E00E949E0D809193059091940560
:10140000892B09F405C188E694E00E948B0D809138
:10141000050190910601A0910701B0910801809308
:10142000970590939805A0939905B0939A0580919C
:101430009305909194059093960580939505C0909F
:101440000501D0900601E0900701F090080180911D
:101450009105909192059093900580938F05892B2B
:1014600059F520E030E040E251E4C701B6010E94A6
:10147000B0170E942218C62FCB0199272AE0289F77
:10148000B001299F700D1124072E000C880B990BB9
:101490000E94D9159B01AC01C701B6010E944317F8
:1014A0006B017C010E942218062FCB019927BC01F9
:1014B000990F880B990B49C026E636E646EE5FE3A6
:1014C000C701B6010E94381620E030E040E052E447
:1014D0000E9444176B017C012DEC3CEC47EC52E47C
:1014E0000E945818181644F48DECC82E8CECD82E97
:1014F00087ECE82E82E4F82E20E030E040E251E470
:10150000C701B6010E94B0170E942218C62F772784
:101510002AE0269FC001279F900D1124BC01990F3E
:10152000880B990B0E94D9159B01AC01C701B6012C
:101530000E9443176B017C010E942218062FAB0109
:101540005527BA01550F880B990B0E94D9159B019D
:10155000AC01C701B6010E94431720E030E040E231
:1015600051E40E9438160E942218162F60E08AE08B
:101570000E94390461E070E080E090E00E944B0539
:101580008C2F0E947302C3E2D0E0CE010197F1F7E5
:10159000802F0E947302CE010197F1F7812F0E94E4
:1015A0007302CE010197F1F7809193059091940514
:1015B0000E947302CE010197F1F78DE00E94730241
:1015C0002197F1F761E08AE00E94390461E070E060
:1015D00080E090E0DF91CF911F910F91FF90EF900D
:1015E000DF90CF900C944B0585EB91E00E949E0D0F
:1015F00060910501709106018091070190910801A9
:1016000041E00E94D80D8AE791E00E94380DE1CEBA
:101610008AE794E0FACECF93DF9383ED91E00E94C6
:101620008B0D8091930590919405892B19F088E694
:1016300094E002C08AE794E00E949E0D87E192E068
:101640000E949E0D8091910590919205892B71F4D5
:101650006091050170910601809107019091080148
:1016600041E00E94D80DC0E0D0E01CC060910501AF
:1016700070910601809107019091080126E636E6F7
:1016800046EE5FE30E94381620E030E040E052E48E
:101690000E944417E5CF41E00E94D80D2196C53045
:1016A000D10519F187E192E00E949E0D20919105EC
:1016B00030919205CE01880F991F880F991FFC0168
:1016C000E75FFE4F6081718182819381232B19F343
:1016D00026E636E646EE5FE30E94381620E030E06C
:1016E00040E052E40E944417D6CF8AE791E00E947E
:1016F000380D85E00E941004892B19F08AEF91E0E3
:1017000002C089E092E00E949E0D86E00E941004D3
:10171000892B19F085E092E002C084E192E00E94FA
:101720009E0D87E00E941004892B19F085E092E05D
:1017300002C084E192E00E949E0D88E00E941004A5
:10174000892B19F085E092E002C084E192E00E94CA
:101750009E0D89E00E941004892B19F085E092E02B
:1017600002C084E192E00E948B0D0E948505609387
:10177000A0057093A1058093A2059093A305DF9126
:10178000CF91089580918705309188052091890532
:1017900090918A0530938405209385059093860562
:1017A000E7ECF4E0A3E8B5E0808311968C91119703
:1017B000818312968C911297828313968C91139742
:1017C000838380917F0530918005209181059091E0
:1017D0008205309384052093850590938605848344
:1017E00011968C911197858312968C91129786830E
:1017F00013968C91139787838091770530917805A4
:101800002091790590917A05309384052093850580
:1018100090938605808711968C91119781871296F7
:101820008C911297828713968C911397838780915E
:101830007B0530917C0520917D0590917E058093FC
:1018400083053093840520938505909386058487CE
:1018500011968C911197858712968C911297868795
:1018600013968C9187878091930590919405808B36
:1018700010920401089589E192E00E949E0D60910A
:101880008705709188058091890590918A050E944D
:10189000CA0D86E292E00E949E0D60917F057091D4
:1018A000800580918105909182050E94CA0D8EE38A
:1018B00092E00E949E0D60917B0570917C05809165
:1018C0007D0590917E050E94CA0D8FE492E00E94F2
:1018D0009E0D6091770570917805809179059091C2
:1018E0007A050C94CA0DCF93DF9300D000D000D0BE
:1018F000CDB7DEB71A8219821C821B821E821D821E
:1019000040E050E068E172E0CE0101960E94ED0CEB
:10191000809191059091920542E050E0892B19F059
:101920006AE572E002C06DE572E0CE0101960E94A8
:10193000ED0C80E692E00E949E0D4D815E816981F2
:101940007A818AEB95E00E94B60C8AE791E00E94CA
:10195000380D89819A810E941F1926960FB6F89436
:10196000DEBF0FBECDBFDF91CF910895CF92DF9242
:10197000EF92FF920F931F93CF93DF936C017A0145
:101980008B01C0E0D0E0CE15DF0589F0D8016D9164
:101990008D01D601ED91FC910190F081E02DC60101
:1019A0000995892B11F47E0102C02196ECCFC70165
:1019B000DF91CF911F910F91FF90EF90DF90CF902B
:1019C00008958AEB95E00E94B40021E0892B09F488
:1019D00020E0822F08950E94811AEF92FF920F93C8
:1019E0001F93CF93DF93EC017B018A01888199815A
:1019F000009729F02A813B8124173507F8F4B801B4
:101A00006F5F7F4F0E94B719009759F099838883C1
:101A10001B830A832C813D81232B81F4FC011082DE
:101A20000DC088819981009711F00E941F191982B9
:101A300018821D821C821B821A8207C01D830C83A0
:101A4000B701888199810E948F1ACE01DF91CF91D1
:101A50001F910F91FF90EF900895E091BA05F091DA
:101A6000BB050190F081E02D682F8AEB95E0099489
:101A7000009769F0FC0101900020E9F73197AF0170
:101A8000481B590BBC018AEB95E00C94B60C80E026
:101A900090E008958F929F92AF92BF920F931F9301
:101AA000CF93DF93CDB7DEB7A1970FB6F894DEBF23
:101AB0000FBECDBF19A2423008F44AE08E010F5D7F
:101AC0001F4F842E912CA12CB12CA50194010E94B2
:101AD0006218E62FB901CA0101501109EA3014F465
:101AE000E05D01C0E95CD801EC93232B242B252B6E
:101AF00061F7C8010E94380DA1960FB6F894DEBFB9
:101B00000FBECDBFDF91CF911F910F91BF90AF90CE
:101B10009F908F900895CF93DF930E94380DEC0132
:101B20008AE791E00E94380D8C0F9D1FDF91CF91C5
:101B30000895682F88ED96E00C9462020C94380D9D
:101B4000CF92DF92EF92FF92CF93DF9397FF19C06E
:101B50006B017C018DE20E942D0DEC016627772739
:101B6000CB016C197D098E099F094AE00E944A0D3C
:101B70008C0F9D1FDF91CF91FF90EF90DF90CF9062
:101B800008954AE0DF91CF91FF90EF90DF90CF90E2
:101B90000C944A0DCF93DF930E94A00DEC018AE7CD
:101BA00091E00E94380D8C0F9D1FDF91CF91089519
:101BB0004F925F926F927F928F929F92AF92BF925D
:101BC000CF92DF92EF92FF926B017C01B42E9B01CA
:101BD000AC010E945D18882319F08FE994E027C0BA
:101BE00026013701E89477F82FEF3FEF4FE75FE7E3
:101BF000C301B2010E945D1881110DC02FEF3FEFAC
:101C00004FE75FE7C301B2010E94D21518161CF41A
:101C100083EA94E00CC02FEF3FEF4FE75FE4C7018A
:101C2000B6010E945818181684F487EA94E0FF90D1
:101C3000EF90DF90CF90BF90AF909F908F907F906C
:101C40006F905F904F900C94380D2FEF3FEF4FE760
:101C50005FECC701B6010E94D21587FDE6CF20E0F8
:101C600030E0A901C701B6010E94D21587FF09C063
:101C70008DE20E942D0D4C01F7FAF094F7F8F094E4
:101C800002C0812C912CA12C60E070E080E09FE3E9
:101C9000AB1441F020E030E040E251E40E94B01784
:101CA000A394F6CF9B01AC01C701B6010E94441773
:101CB0002B013C010E9429186B017C010E94D71561
:101CC0009B01AC01C301B2010E9443172B013C01EF
:101CD0004AE0C701B6010E944A0D7C01E80CF91CDC
:101CE000BB2029F08EE20E942D0DE80EF91EDB2CA0
:101CF000DD2021F120E030E040E251E4C301B201F7
:101D00000E9438162B013C010E9429184B01A12C7E
:101D1000B12C4AE0C501B4010E944A0DE80EF91E3B
:101D2000C501B4010E94D7159B01AC01C301B201EA
:101D30000E9443172B013C01DA94DACFC701FF90D0
:101D4000EF90DF90CF90BF90AF909F908F907F905B
:101D50006F905F904F900895CF93DF93CDB7DEB72C
:101D6000789484B5826084BD84B5816084BD85B576
:101D7000826085BD85B5816085BD80916E00816082
:101D800080936E0010928100809181008260809328
:101D9000810080918100816080938100809180002A
:101DA0008160809380008091B10084608093B10055
:101DB0008091B00081608093B00080917A0084604F
:101DC00080937A0080917A00826080937A0080917B
:101DD0007A00816080937A0080917A008068809395
:101DE0007A001092C100E091CA05F091CB0582E023
:101DF0008083E091C605F091C7051082E091C80587
:101E0000F091C9058FEC80831092D205E091CE0548
:101E1000F091CF0586E08083E091CC05F091CD056F
:101E2000808180618083E091CC05F091CD05808137
:101E300088608083E091CC05F091CD058081806839
:101E40008083E091CC05F091CD0580818F7D8083EA
:101E50001092D305E091CC05F091CD0580818B7F68
:101E600080838DE692E00E948B0D8DE992E00E94C6
:101E70008B0D84EB92E00E948B0D8AEC92E00E9425
:101E80008B0D87EE92E00E948B0D89E093E00E941B
:101E90008B0D8DE293E00E948B0D60ED77E080E08A
:101EA00090E00E944B0560E080E10E940F0562E037
:101EB0008EE00E940F0561E081E10E940F0561E064
:101EC00085E00E940F0561E086E00E940F0561E059
:101ED00087E00E940F0561E088E00E940F0561E045
:101EE00089E00E940F0562E082E00E940F0562E037
:101EF00083E00E940F0588ED92E0909301018093AA
:101F0000000180916900836080936900E89A81E80C
:101F100092E09093030180930201809169008C60AC
:101F200080936900E99A61E08AE00E940F0561E010
:101F30008AE00E94390461E08FE00E940F0561E0B1
:101F40008FE00E9439041FB7F8948091A405811195
:101F500027C0E8EBF0E08491E4EAF0E09491E82F08
:101F6000F0E0EE0FFF1FE057FF4FA591B491EC9109
:101F7000E92321F461E08AE00E94390461E08AE00B
:101F80000E940F058CB580618CBD8CB580648CBDC2
:101F900061E08DE00E940F0561E08BE00E940F057B
:101FA0008091A4058F5F8093A4051FBF8CB58C7FA3
:101FB00081608CBD8DB581608DBD80E090E00E9418
:101FC0005907082F81E090E00E945907182F602FD1
:101FD00070E080E090E00E94D9156B017C01612FD8
:101FE00070E080E090E00E94D9152DEC3CEC4CECC8
:101FF0005DE30E9438169B01AC01C701B6010E9447
:102000004417609305017093060180930701909334
:10201000080182E090E00E9459078093830583E0E5
:1020200090E00E9459078093840584E090E00E942C
:1020300059078093850585E090E00E9459078093B9
:1020400085058091830590918405A0918505B091C7
:1020500086058093870590938805A0938905B093A2
:102060008A0586E090E00E9459078093830587E007
:1020700090E00E9459078093840588E090E00E94D8
:1020800059078093850589E090E00E945907809365
:1020900085058091830590918405A0918505B09177
:1020A000860580937F0590938005A0938105B0936A
:1020B00082058AE090E00E945907809383058BE0B7
:1020C00090E00E945907809384058CE090E00E9484
:1020D0005907809385058DE090E00E945907809311
:1020E00085058091830590918405A0918505B09127
:1020F000860580937B0590937C05A0937D05B09326
:102100007E058EE090E00E945907809383058FE062
:1021100090E00E9459078093840580E190E00E943E
:1021200059078093850581E190E00E9459078093CB
:1021300085058091830590918405A0918505B091D6
:1021400086058093770590937805A0937905B093E1
:102150007A056091050170910601809107019091C7
:10216000080120E030E044E352E40E9458181816B9
:1021700064F480E090E0A4E3B2E4809305019093DE
:102180000601A0930701B0930801609105017091C9
:102190000601809107019091080120E030E040E2C3
:1021A00051E40E94D21587FF0CC080E090E0A0E2CD
:1021B000B1E48093050190930601A0930701B093C9
:1021C000080182E190E00E94590790E09093940505
:1021D0008093930583E190E00E94590790E09093EB
:1021E0009205809391058EE393E00E948B0D0E94EF
:1021F0003B0C0E94730C0E94C20B0E94BC0911E0B0
:10220000109304010E945B070E940B0B86E68093EB
:10221000BA008CEE91E0909372058093710588EF7F
:1022200091E09093700580936F0510926E05109267
:102230006D0510926C0510926B0510926A05109353
:1022400069051092680561E082E10E94390461E04D
:1022500083E10E9439048091B9008E7F8093B90098
:102260008091B9008D7F8093B90088E48093B80095
:1022700085E48093BC0089E694E090937405809394
:1022800073058FE293E09093760580937505CC24D7
:10229000C394D12CBB24B39442E4A42E62E370E037
:1022A00080E090E00E944B058AEB95E00E94B4002C
:1022B000892B09F48FC00091AD051091AE058AEB12
:1022C00095E00115110509F045C00E948C0081338D
:1022D00039F48AEB92E00E948B0DB0929F057AC090
:1022E000803339F483EA92E00E948B0D10929F05AF
:1022F00071C0823339F480919F0581116BC00E94B7
:102300000B0B68C0833369F48CE593E00E948B0D5E
:102310008FE693E00E948B0DD092AE05C092AD0582
:1023200059C0843319F40E943B0C54C0853309F022
:1023300051C081E090E02091910530919205232BCE
:1023400011F080E090E090939205809391050E94B7
:10235000730C40C00E948C008D3009F0B2C02091F7
:10236000AB053091AC05121613060CF4BAC0A9C027
:10237000033011050CF0F7C00130110531F5C7012C
:102380000E94961560938705709388058093890550
:1023900090938A0589E192E00E949E0D60918705E5
:1023A000709188058091890590918A050E94CA0DD7
:1023B00088E893E00E948B0D8091AD059091AE0569
:1023C00001969093AE058093AD050FB6F8949EBE2E
:1023D0000FBE8DBEF8948EE00E9410042091B905C6
:1023E000892B09F03EC021113FC08091AF0590912B
:1023F000B00501969093B0058093AF058091AF052D
:102400009091B005079780F1209193053091940544
:1024100081E090E0232B11F080E090E09093940510
:10242000809393058091930590919405892B59F0A1
:102430001092B0051092AF05B092B90587E294E012
:102440000E948B0D11C007E211E0F80180810E5F40
:102450001F4F60E00E943904F1E001331F07A9F724
:10246000E7CF21111092B9056091970570919805F9
:102470008091990590919A0520910501309106016E
:1024800040910701509108010E94D2158111B2C0FC
:102490008091930590919405209195053091960532
:1024A0002817390709F0A6C02091910530919205AF
:1024B00080918F05909190052817390709F09AC0EF
:1024C00095C12091AB053091AC05A9014F5F5F4FDD
:1024D0005093AC054093AB05F901EB55FA4F80835F
:1024E00079CF8DB69EB68091AB059091AC050197E2
:1024F000EDB7FEB7E81BF90B0FB6F894FEBF0FBEA1
:10250000EDBF2DB73EB72F5F3F4F79014091AB052F
:102510005091AC0565EA75E0C9010E94861A1092D7
:10252000AC051092AB050230110509F021CFC701AF
:102530000E94961560937F057093800580938105B6
:102540009093820586E292E00E949E0D60917F0545
:102550007091800580918105909182050E94CA0D3D
:1025600082EB93E027CF03301105E1F4C7010E940D
:10257000961560937B0570937C0580937D05909301
:102580007E058EE392E00E949E0D60917B05709126
:102590007C0580917D0590917E050E94CA0D85ED98
:1025A00093E008CF0430110509F00FCFC7010E9456
:1025B00096156093770570937805809379059093CD
:1025C0007A058FE492E00E949E0D609177057091EC
:1025D00078058091790590917A050E94CA0D8BEF5C
:1025E00093E00E948B0D1092AE051092AD050E94F3
:1025F000C20BEBCE0E94BC090E9485050091B50577
:102600001091B6052091B7053091B8056017710794
:102610008207930740F41092B5051092B605109208
:10262000B7051092B8050E9485050091B505109177
:10263000B6052091B7053091B805DC01CB01801BB0
:10264000910BA20BB30B893E9340A105B10508F491
:1026500050C00E945B07A0927C0080917A00806449
:1026600080937A0080917A0086FDFCCF00917800FB
:102670008091790010E0182B033311050CF0D2C1C2
:1026800081E10E941004892B09F0FDC18091B305FE
:102690009091B40501969093B4058093B305809111
:1026A000B3059091B4050397D1F461E081E10E94F4
:1026B00039041092B4051092B30580919F058111E1
:1026C0000EC083E494E00E949E0DB801110F880BA8
:1026D000990B0E94A00D89E594E00E948B0D0E9449
:1026E00085056093B5057093B6058093B705909303
:1026F000B80500E010E0412C512C3201812C912CC6
:10270000C401880F991F880F991FFC01E75FFE4FD6
:102710007F01608171818281938120E030E04CE60D
:1027200052E40E94D21587FF0EC0F70160817181CB
:102730008281938120E030E040E151EC0E94581802
:1027400018160CF4A9C1FFEF8F1A9F0A25E0821614
:102750009104B1F601151105A1F0B801110F880B14
:10276000990B0E94D9159B01AC01C301B2010E94D3
:10277000B01760939B0570939C0580939D05909383
:102780009E050E9485050091A0051091A10520914C
:10279000A2053091A305601771078207930740F4E3
:1027A0001092A0051092A1051092A2051092A30507
:1027B00080919F058823B1F00E9485050091A005B6
:1027C0001091A1052091A2053091A305DC01CB0158
:1027D000801B910BA20BB30B893E9340A105B10561
:1027E00008F068C178940E940F0158CD0E948505B9
:1027F00000918B0510918C0520918D0530918E05EF
:10280000601771078207930740F410928B051092AE
:102810008C0510928D0510928E050E948505009101
:102820008B0510918C0520918D0530918E05DC0172
:10283000CB01801B910BA20BB30B81319742A105F9
:10284000B10508F4D9CE809104018111D5CE6091F3
:1028500005017091060180910701909108010E9485
:10286000221880E090E00E945707409005015090A8
:102870000601609007017090080160910501709158
:10288000060180910701909108010E942218072EED
:10289000000C880B990B0E94D9159B01AC01C30158
:1028A000B2010E94431720E030E040E251E40E9470
:1028B00038160E94221881E090E00E94570760912C
:1028C00093057091940582E190E00E945707609112
:1028D000910583E190E00E94570780918705309130
:1028E00088052091890590918A05682F809383053A
:1028F00030938405209385059093860582E090E0CF
:102900000E9457076091840583E090E00E9457077A
:102910006091850584E090E00E94570760918605EC
:1029200085E090E00E94570780917F0530918005F7
:102930002091810590918205682F809383053093C3
:102940008405209385059093860586E090E00E949B
:1029500057076091840587E090E00E9457076091D7
:10296000850588E090E00E9457076091860589E020
:1029700090E00E94570780917B0530917C05209163
:102980007D0590917E05682F8093830530938405A3
:1029900020938505909386058AE090E00E94570772
:1029A000609184058BE090E00E9457076091850557
:1029B0008CE090E00E945707609186058DE090E0E2
:1029C0000E9457078091770530917805209179050D
:1029D00090917A05682F8093830530938405209326
:1029E0008505909386058EE090E00E9457076091E0
:1029F00084058FE090E00E9457076091850580E193
:102A000090E00E9457076091860581E190E00E9466
:102A100057070E94C20BB09204018EE794E00E9417
:102A20008B0DEACD0C33110574F181E10E94100485
:102A3000892B49F18091B1059091B205019690934F
:102A4000B2058093B1058091B1059091B2050397CD
:102A500009F045CE60E081E10E9439041092B20590
:102A60001092B10580919F05811139CE83E494E0E5
:102A70000E949E0DB801110F880B990B0E94A00DAA
:102A80008BE694E02ACE1092B4051092B305109212
:102A9000B2051092B10523CEF70120813181428128
:102AA0005381C301B2010E9444172B013C010F5F07
:102AB0001F4F49CE0E940B0B95CEEAEBF5E0138237
:102AC000128288EE93E0A0E0B0E084839583A68331
:102AD000B78325E331E03183208325EC30E035876F
:102AE000248724EC30E03787268720EC30E0318BD8
:102AF000208B21EC30E0338B228B22EC30E0358BC5
:102B0000248B26EC30E0378B268B128E138E148E9E
:102B1000158EE8EDF6E01382128284839583A683F6
:102B2000B78385E491E09183808308951F93FC012E
:102B300099278827BC01E89411911032E9F31930E4
:102B400010F01E30C8F31B3251F01D3249F4689466
:102B500006C00E94BD15610F711D811D911D11914F
:102B600010531A30B0F33EF49095809570956195AE
:102B70007F4F8F4F9F4F1F910895592F482F372F09
:102B8000262F660F771F881F991F660F771F881FD4
:102B9000991F620F731F841F951F660F771F881F71
:102BA000991F08950E94141608F481E00895E8948E
:102BB00009C097FB3EF490958095709561957F4F85
:102BC0008F4F9F4F9923A9F0F92F96E9BB27939533
:102BD000F695879577956795B795F111F8CFFAF443
:102BE000BB0F11F460FF1BC06F5F7F4F8F4F9F4F74
:102BF00016C0882311F096E911C0772321F09EE8D2
:102C0000872F762F05C0662371F096E8862F70E037
:102C100060E02AF09A95660F771F881FDAF7880F11
:102C20009695879597F90895990F0008550FAA0B67
:102C3000E0E8FEEF16161706E807F907C0F01216CF
:102C40001306E407F50798F0621B730B840B950BD2
:102C500039F40A2661F0232B242B252B21F4089527
:102C60000A2609F4A140A6958FEF811D811D0895C4
:102C70000E944B160C94BC160E94AE1638F00E94AF
:102C8000B51620F0952311F00C94A5160C94AB16F4
:102C900011240C94F0160E94CD1670F3959FC1F389
:102CA000950F50E0551F629FF001729FBB27F00DFA
:102CB000B11D639FAA27F00DB11DAA1F649F66274F
:102CC000B00DA11D661F829F2227B00DA11D621F9E
:102CD000739FB00DA11D621F839FA00D611D221F58
:102CE000749F3327A00D611D231F849F600D211D3C
:102CF000822F762F6A2F11249F5750409AF0F1F0BF
:102D000088234AF0EE0FFF1FBB1F661F771F881F27
:102D100091505040A9F79E3F510580F00C94A516A4
:102D20000C94F0165F3FE4F3983ED4F386957795C4
:102D30006795B795F795E7959F5FC1F7FE2B880FCD
:102D4000911D9695879597F9089597F99F6780E863
:102D500070E060E008959FEF80EC089500240A94ED
:102D60001616170618060906089500240A94121666
:102D70001306140605060895092E0394000C11F499
:102D8000882352F0BB0F40F4BF2B11F460FF04C046
:102D90006F5F7F4F8F4F9F4F089557FD9058440F9F
:102DA000551F59F05F3F71F04795880F97FB991FAA
:102DB00061F09F3F79F08795089512161306140667
:102DC000551FF2CF4695F1DF08C0161617061806F4
:102DD000991FF1CF86957105610508940895E894CF
:102DE000BB2766277727CB0197F90895F999FECF7E
:102DF00092BD81BDF89A992780B50895262FF9993B
:102E0000FECF1FBA92BD81BD20BD0FB6F894FA9ACD
:102E1000F99A0FBE019608952F923F924F925F92BA
:102E20006F927F928F929F92AF92BF92CF92DF92DA
:102E3000EF92FF920F931F93CF93DF93CDB7DEB73F
:102E4000CA1BDB0B0FB6F894DEBF0FBECDBF0994D3
:102E50002A88398848885F846E847D848C849B842A
:102E6000AA84B984C884DF80EE80FD800C811B8138
:102E7000AA81B981CE0FD11D0FB6F894DEBF0FBE67
:102E8000CDBFED0108955058BB27AA270E945B17BC
:102E90000C94BC160E94AE1638F00E94B51620F0B5
:102EA00039F49F3F19F426F40C94AB160EF4E09518
:102EB000E7FB0C94A516E92F0E94CD1658F3BA171C
:102EC000620773078407950720F079F4A6F50C9440
:102ED000EF160EF4E0950B2EBA2FA02D0B01B901C1
:102EE00090010C01CA01A0011124FF27591B99F080
:102EF000593F50F4503E68F11A16F040A22F232F8C
:102F0000342F4427585FF3CF469537952795A795DB
:102F1000F0405395C9F77EF41F16BA0B620B730B82
:102F2000840BBAF09150A1F0FF0FBB1F661F771FF3
:102F3000881FC2F70EC0BA0F621F731F841F48F4A8
:102F4000879577956795B795F7959E3F08F0B0CF31
:102F50009395880F08F09927EE0F97958795089518
:102F60000E94C4170C94BC160E94B51658F00E941B
:102F7000AE1640F029F45F3F29F00C94A5165111CC
:102F80000C94F0160C94AB160E94CD1668F399239E
:102F9000B1F3552391F3951B550BBB27AA27621755
:102FA0007307840738F09F5F5F4F220F331F441F62
:102FB000AA1FA9F335D00E2E3AF0E0E832D0915096
:102FC0005040E695001CCAF72BD0FE2F29D0660F83
:102FD000771F881FBB1F261737074807AB07B0E8C6
:102FE00009F0BB0B802DBF01FF2793585F4F3AF0CC
:102FF0009E3F510578F00C94A5160C94F0165F3F97
:10300000E4F3983ED4F3869577956795B795F79551
:103010009F5FC9F7880F911D9695879597F9089539
:10302000E1E0660F771F881FBB1F621773078407D5
:10303000BA0720F0621B730B840BBA0BEE1F88F7E4
:10304000E09508950E9429186894B1110C94F01627
:1030500008950E94D51688F09F5798F0B92F9927A8
:10306000B751B0F0E1F0660F771F881F991F1AF073
:10307000BA95C9F714C0B13091F00E94EF16B1E0D3
:1030800008950C94EF16672F782F8827B85F39F0D2
:10309000B93FCCF3869577956795B395D9F73EF40C
:1030A00090958095709561957F4F8F4F9F4F0895B4
:1030B0000E94141608F48FEF08950E941416880BCE
:1030C000990B0895A1E21A2EAA1BBB1BFD010DC08E
:1030D000AA1FBB1FEE1FFF1FA217B307E407F507C8
:1030E00020F0A21BB30BE40BF50B661F771F881FA4
:1030F000991F1A9469F760957095809590959B013A
:10310000AC01BD01CF010895EE0FFF1F0590F491B2
:10311000E02D0994CF93DF938230910510F482E083
:1031200090E0E091E606F091E70620E030E0C0E0B4
:10313000D0E0309711F14081518148175907C0F014
:103140004817590761F482819381209719F09B8376
:103150008A832BC09093E7068093E60626C021154C
:10316000310519F04217530718F49A01BE01DF0127
:10317000EF010280F381E02DDCCF2115310509F14B
:10318000281B390B2430310590F412968D919C91B7
:1031900013976115710521F0FB019383828304C0AD
:1031A0009093E7068093E606FD01329644C0FD0148
:1031B000E20FF31F81939193225031092D933C9399
:1031C0003AC02091E4063091E506232B41F420918A
:1031D0001F01309120013093E5062093E4062091F1
:1031E0001D0130911E012115310541F42DB73EB767
:1031F0004091210150912201241B350BE091E406FE
:10320000F091E506E217F307A0F42E1B3F0B2817F9
:10321000390778F0AC014E5F5F4F2417350748F04F
:103220004E0F5F1F5093E5064093E4068193919300
:1032300002C0E0E0F0E0CF01DF91CF9108950F935D
:103240001F93CF93DF93009709F48CC0FC01329752
:10325000138212820091E6061091E706011511050E
:1032600081F420813181820F931F2091E4063091F7
:10327000E5062817390779F5F093E506E093E406AB
:1032800071C0D80140E050E0AE17BF0750F412966D
:103290002D913C911397AD012115310509F1D9010B
:1032A000F3CF9D01DA013383228360817181860F20
:1032B000971F8217930769F4EC0128813981260F43
:1032C000371F2E5F3F4F318320838A819B819383F9
:1032D0008283452B29F4F093E706E093E60642C08B
:1032E0001396FC93EE931297ED01499159919E012B
:1032F000240F351FE217F30771F480819181840F49
:10330000951F029611969C938E93828193811396BA
:103310009C938E931297E0E0F0E0D80112968D9185
:103320009C911397009719F0F8018C01F6CF8D91BD
:103330009C9198012E5F3F4F820F931F2091E406CE
:103340003091E5062817390769F4309729F410926F
:10335000E7061092E60602C0138212821093E50679
:103360000093E406DF91CF911F910F910895A0E0A3
:10337000B0E0EDEBF9E10C941017EC01009721F4AB
:10338000CB010E948A18B8C0FC01E60FF71F9C0110
:1033900022503109E217F30708F4ACC0D9010D91AE
:1033A0001C91119706171707B0F00530110508F4A6
:1033B0009FC0C80104978617970708F499C0025068
:1033C0001109061B170B019311936D937C93CF0189
:1033D0000E941F198DC05B01A01AB10A4C01800E1A
:1033E000911EA091E606B091E70640E050E0E12C86
:1033F000F12C109709F44AC0A815B905D1F56D90C4
:103400007C901197630182E0C80ED11CCA14DB04C2
:1034100080F1A3014A195B096A0182E0C80ED11C40
:103420001296BC9012971396AC91B5E0CB16D104CE
:1034300040F0B282A38351834083D9016D937C9382
:103440000AC00E5F1F4FC301800F911FF9019183C6
:103450008083EB2DFA2FE114F10431F0D70113969C
:10346000FC93EE93129744C0F093E706E093E606D0
:103470003FC08D919C9111974817590708F4AC01F2
:103480007D0112960D90BC91A02DB3CF8091E406E2
:103490009091E50688159905E1F446175707C8F499
:1034A00080911D0190911E01009741F48DB79EB748
:1034B0004091210150912201841B950BE817F907D7
:1034C000C8F4F093E506E093E406F90171836083A4
:1034D0000FC0CB010E948A187C01009759F0A80107
:1034E000BE010E94861ACE010E941F19C70104C0A6
:1034F000CE0102C080E090E0CDB7DEB7EEE00C94E4
:103500002C1781E090E0F8940C94961AFB01DC01F2
:1035100002C001900D9241505040D8F70895FB0130
:10352000DC0101900D920020E1F70895F894FFCF9F
:10353000B901B90101000020410000204100002034
:10354000410000204100002041000020410000E82F
:103550000680000F000A00050006000700080009A9
:1035600000000000001901B60CB4008C00A400EDAE
:10357000000000000062024E0246023202230222D4
:1035800002456E636F646572202B00456E636F6445
:103590006572202D00436F6E74726F6C6C657220C3
:1035A000636F6D6D616E643A20000D0A00436F6EAB
:1035B00074726F6C6C65722074656D703A20005A7D
:1035C0006F6E6520002054656D703A2000274320FF
:1035D0005374617475733A200027462053746174E4
:1035E00075733A20004E65772074656D703A20003F
:1035F0004E657720646576696365207374617465D0
:103600003A20005057520954454D50095A6F6E6583
:1036100031095A6F6E6532095A6F6E6533095A6FF8
:103620006E6534095A6F6E6535005A4F4E455F52CC
:10363000454C4159094F4E09005A4F4E455F52457E
:103640004C4159094F464609004E54435F425F437F
:103650006F6566663D004E54435F4E6F6D696E61E7
:103660006C5F526573697374616E63653D00536589
:103670007269616C5F5265736973746F723D004E5D
:103680006F6D696E616C5F543D00274600274300F3
:1036900054656D7020756E6974733A20002A2A2A69
:1036A0002A2863293230313820566C6164696D698B
:1036B000722050616B686F6D6F762067613340795F
:1036C000616E6465782E72752A2A2A2A00223022B9
:1036D000202D204465627567206F757470757420A5
:1036E0004F464600223122202D2044656275672016
:1036F0006F7574707574204F4E00223222202D2079
:1037000053686F77206465766963652073746174AC
:1037100065206F6E636500223322202D204E5443B6
:103720002073656E736F727320636F6E7374616E56
:10373000747320736574757000223422202D204428
:103740006973706C6179204E54432073656E736F9A
:10375000727320636F6E7374616E7473002235220E
:10376000202D20546F67676C6520435C46005265CE
:1037700073746F7265642073657474696E67732007
:1037800066726F6D20454550524F4D0053657475FC
:1037900070206D6F646520656E74657265640045A8
:1037A0006E746572204E54435F425F434F454646F8
:1037B0002076616C75653A00456E746572204E54D2
:1037C000435F4E6F6D696E616C5F526573697374B0
:1037D000616E63652076616C756520284F686D2980
:1037E0003A00456E7465722053657269616C5F5270
:1037F00065736973746F722076616C756520284FEC
:10380000686D293A00456E746572204E6F6D696E61
:10381000616C5F54656D7065726174757265207658
:10382000616C756520282743293A005365747570CB
:103830002076616C75657320656E74657265642CA5
:1038400020657869742066726F6D20736574757079
:10385000206D6F64652E0050757368204275747416
:103860006F6E206576656E74207472696767657225
:103870006564004C696768742053656E736F7220CD
:1038800056616C7565203D20002E20427574746F62
:103890006E204C69676874204F4E002E204275746C
:1038A000746F6E204C69676874204F4646004375FC
:1038B0007272656E742073657474696E67732073B9
:1038C0006176656420746F20454550524F4D006EFF
:0C38D000616E00696E66006F7666000095
:00000001FF
