:100000000C948E000C94AB000C94AB000C94AB00E1
:100010000C94AB000C94AB000C94AB000C94AB00B4
:100020000C94AB000C94AB000C94AB000C94AB00A4
:100030000C94AB000C94AB000C94AB000C94AB0094
:100040000C9467010C94B1010C94AB000C94AB00C0
:100050000C94AB000C94AB000C94AB000C94AB0074
:100060000C94AB000C94AB0008000000BE92244935
:10007000123EABAAAA2ABECDCCCC4C3E00000080DA
:10008000BEABAAAAAA3E00000000BF000000803F4D
:100090000000000000084178D3BB4387D1133D190D
:1000A0000E3CC3BD4282AD2B3E68EC8276BED98F3A
:1000B000E1A93E4C80EFFFBE01C4FF7F3F0000007E
:1000C000000000000000240027002A0000000000BB
:1000D000250028002B000000000023002600290036
:1000E00004040404040404040202020202020303DE
:1000F00003030303010204081020408001020408E6
:100100001020010204081020000000080002010075
:1001100000030407000000000000000011241FBEBF
:10012000CFEFD8E0DEBFCDBF11E0A0E0B1E0EAE65E
:10013000FCE002C005900D92AE31B107D9F721E085
:10014000AEE1B1E001C01D92A334B207E1F70E9415
:10015000DA010C9433060C940000833081F028F40B
:10016000813099F08230A1F008958730A9F088306D
:10017000B9F08430D1F4809180008F7D03C08091EC
:1001800080008F7780938000089584B58F7702C0B8
:1001900084B58F7D84BD08958091B0008F7703C0B2
:1001A0008091B0008F7D8093B00008951F93CF930E
:1001B000DF93282F30E0F901E85FFE4F8491F901C9
:1001C000EC50FF4FD491F901E052FF4FC491CC2382
:1001D000C9F0162F81110E94AD00EC2FF0E0EE0F58
:1001E000FF1FE453FF4FA591B4918FB7F8941111FD
:1001F00005C09C91ED2FE095E92302C0EC91ED2B19
:10020000EC938FBFDF91CF911F910895CF93DF9330
:1002100090E0FC01EC50FF4F2491FC01E052FF4FB5
:100220008491882361F190E0880F991FFC01EE53BF
:10023000FF4FC591D491FC01E453FF4FA591B491B8
:10024000611109C09FB7F894888120958223888323
:10025000EC912E230BC0623061F49FB7F894388183
:10026000822F809583238883EC912E2B2C939FBF24
:1002700006C08FB7F894E8812E2B28838FBFDF91BB
:10028000CF9108953FB7F894809123019091240174
:10029000A0912501B091260126B5A89B05C02F3F4E
:1002A00019F00196A11DB11D3FBFBA2FA92F982F9C
:1002B0008827820F911DA11DB11DBC01CD0142E017
:1002C000660F771F881F991F4A95D1F708951F92CF
:1002D0000F920FB60F9211242F933F938F939F93FA
:1002E000AF93BF9380911F0190912001A0912101B4
:1002F000B091220130911E0123E0230F2D3720F40D
:100300000196A11DB11D05C026E8230F0296A11D6F
:10031000B11D20931E0180931F0190932001A09393
:100320002101B09322018091230190912401A09199
:100330002501B09126010196A11DB11D80932301D5
:1003400090932401A0932501B0932601BF91AF9112
:100350009F918F913F912F910F900FBE0F901F9003
:1003600018951F920F920FB60F9211242F933F935F
:100370008F939F93EF93FF938EB580932801809185
:100380004101909142019C012F5F3F4F3093420108
:1003900020934101FC01E75DFE4F80818EBDFF91FE
:1003A000EF919F918F913F912F910F900FBE0F90E2
:1003B0001F901895789484B5826084BD84B581605F
:1003C00084BD85B5826085BD85B5816085BD809120
:1003D0006E00816080936E00109281008091810098
:1003E0008260809381008091810081608093810090
:1003F000809180008160809380008091B100846052
:100400008093B1008091B00081608093B0008091B2
:100410007A00846080937A0080917A008260809371
:100420007A0080917A00816080937A0080917A00CE
:10043000806880937A001092C100C4E1D1E0888185
:10044000229660E00E94060121E0CE31D207B9F782
:1004500000E011E0CAE0D1E0E880229661E08E2D54
:100460000E940601F801F0800E5F1F4F61E08F2DA2
:100470000E94060161E08E2D0E94D60060E08F2D63
:100480000E94D600F1E0C431DF0731F761E08CE073
:100490000E9406018CB580648CBD109227018CB53A
:1004A00080688CBD72E1272E71E0372EE0E08E2E41
:1004B000E0E09E2EF1018491EEEFF0E0D491EAEEBF
:1004C000F0E0C491CC23C9F081110E94AD00EC2F63
:1004D000F0E0EE0FFF1FEA52FF4FA591B4918C910F
:1004E000D82359F0809141019091420118161906C4
:1004F00024F410924201109241013AE0E32E31E0DF
:10050000F32E40E0C42E41E0D42E54E1A52E51E05C
:10051000B52E00E010E0F5018081F2E0AF0EB11CD5
:100520008E3008F08E508770806480937C008091BC
:100530007A00806480937A0080917A00282F20745A
:10054000422E86FDF9CF609178008091790070E0AD
:10055000782B072E000C880B990B0E9490049B01AE
:10056000AC0160E070EC8FE794E40E941C0420E092
:1005700030E040E85FE30E94AA039B01AC0160E029
:1005800070E68AE696E40E941C0420E030E64AE623
:1005900056E40E941C040E944D0520E030E84CE522
:1005A00055E40E941C042FE03FEC4BE55BE30E9406
:1005B000AB039B01AC0160E070E080E89FE30E9428
:1005C0001C0423E333E948E853E40E94AA03C62F3E
:1005D000672E782ED92F20E030E040E251EC0E94C7
:1005E0001704181694F420E030E040E752E46C2F32
:1005F000762D872D9D2F0E94400587FD0BC0C0E002
:10060000612C20E7722ED2E405C0C0E0612C90E29C
:10061000792ED1EC8C2F962DA72DBD2F80933D01E7
:1006200090933E01A0933F01B0934001F801E75D34
:10063000FE4FC08380913E01818380913F01828380
:1006400080914001838380912801882309F43EC072
:1006500020E030E04CE652E46C2F762D872D9D2F64
:100660000E94170418168CF05524539420E030E0B3
:1006700040E151EC6C2F762D872D9D2F0E94400577
:1006800087FD512C61E0652501C061E0F7018081A3
:100690000E94D60020E030E04CE652E46C2F762D2C
:1006A000872D9D2F0E941704181674F0442443943C
:1006B00020E030E040E151EC6C2F762D872D9D2F0E
:1006C0000E94400587FD412C642D06C060E0F701C3
:1006D00080810E94D60060E0F60180810E94D600F1
:1006E000F2E0CF0ED11C22E0E20EF11C0C5F1F4F96
:1006F0000431110509F00FCF0E9442012B013C018A
:1007000084EFC82EDD24D394E12CF12C0E94420109
:10071000DC01CB0184199509A609B709883E9340ED
:10072000A105B10558F081E0C81AD108E108F10827
:1007300098EE490E93E0591E611C711CC114D1043E
:10074000E104F10419F78114910409F4B3CE0E9475
:100750000000B0CE5058BB27AA270E94C2030C94B9
:1007600006050E94F80438F00E94FF0420F039F4D6
:100770009F3F19F426F40C94F5040EF4E095E7FB82
:100780000C94EF04E92F0E94170558F3BA1762077B
:1007900073078407950720F079F4A6F50C943905C2
:1007A0000EF4E0950B2EBA2FA02D0B01B90190018C
:1007B0000C01CA01A0011124FF27591B99F0593FD0
:1007C00050F4503E68F11A16F040A22F232F342F18
:1007D0004427585FF3CF469537952795A795F04066
:1007E0005395C9F77EF41F16BA0B620B730B840B7B
:1007F000BAF09150A1F0FF0FBB1F661F771F881F33
:10080000C2F70EC0BA0F621F731F841F48F487958A
:1008100077956795B795F7959E3F08F0B0CF93957C
:10082000880F08F09927EE0F9795879508950E94F5
:10083000CB0408F481E008950E9430040C9406056E
:100840000E94FF0458F00E94F80440F029F45F3F32
:1008500029F00C94EF0451110C943A050C94F50412
:100860000E94170568F39923B1F3552391F3951B63
:10087000550BBB27AA2762177307840738F09F5FC1
:100880005F4F220F331F441FAA1FA9F335D00E2E2E
:100890003AF0E0E832D091505040E695001CCAF79B
:1008A0002BD0FE2F29D0660F771F881FBB1F26175E
:1008B00037074807AB07B0E809F0BB0B802DBF0135
:1008C000FF2793585F4F3AF09E3F510578F00C9404
:1008D000EF040C943A055F3FE4F3983ED4F3869519
:1008E00077956795B795F7959F5FC9F7880F911D25
:1008F0009695879597F90895E1E0660F771F881F11
:10090000BB1F621773078407BA0720F0621B730BC3
:10091000840BBA0BEE1F88F7E0950895E89409C0A0
:1009200097FB3EF490958095709561957F4F8F4F22
:100930009F4F9923A9F0F92F96E9BB279395F69538
:10094000879577956795B795F111F8CFFAF4BB0FB6
:1009500011F460FF1BC06F5F7F4F8F4F9F4F16C01A
:10096000882311F096E911C0772321F09EE8872FA4
:10097000762F05C0662371F096E8862F70E060E060
:100980002AF09A95660F771F881FDAF7880F9695D9
:10099000879597F90895990F0008550FAA0BE0E87D
:1009A000FEEF16161706E807F907C0F01216130631
:1009B000E407F50798F0621B730B840B950B39F471
:1009C0000A2661F0232B242B252B21F408950A26D7
:1009D00009F4A140A6958FEF811D811D089597F917
:1009E0009F6780E870E060E008959FEF80EC0895D5
:1009F00000240A94161617061806090608950024FE
:100A00000A9412161306140605060895092E039477
:100A1000000C11F4882352F0BB0F40F4BF2B11F4EB
:100A200060FF04C06F5F7F4F8F4F9F4F089557FD4A
:100A30009058440F551F59F05F3F71F04795880F4C
:100A400097FB991F61F09F3F79F0879508951216E3
:100A500013061406551FF2CF4695F1DF08C016168F
:100A600017061806991FF1CF869571056105089440
:100A70000895E894BB2766277727CB0197F9089557
:100A80000E94CB0408F48FEF089516F00C94FE0535
:100A90000C94F50468940C94EF040E941F05A8F3CD
:100AA0009923C1F3AEF3DF93CF931F930F93FF927C
:100AB000C92FDD2788232AF02197660F771F881F0B
:100AC000DAF720E030E040E85FEB9FE3883920F080
:100AD000803E38F021968F770E94AB03E8E6F0E085
:100AE00004C00E94AB03E5E9F0E00E940C068B0114
:100AF000BE01EC01FB2E6F5771097595771F880BAE
:100B0000990B0E94900428E132E741E35FE30E94E1
:100B1000A405AF2D9801AE01FF900F911F91CF91C9
:100B2000DF910E94C2030C9406050E94F80438F07D
:100B30000E94FF0420F0952311F00C94EF040C9414
:100B4000F50411240C943A050E94170570F3959F43
:100B5000C1F3950F50E0551F629FF001729FBB27B4
:100B6000F00DB11D639FAA27F00DB11DAA1F649F50
:100B70006627B00DA11D661F829F2227B00DA11D03
:100B8000621F739FB00DA11D621F839FA00D611D89
:100B9000221F749F3327A00D611D231F849F600DAA
:100BA000211D822F762F6A2F11249F5750409AF0D3
:100BB000F1F088234AF0EE0FFF1FBB1F661F771F5F
:100BC000881F91505040A9F79E3F510580F00C942A
:100BD000EF040C943A055F3FE4F3983ED4F3869516
:100BE00077956795B795F795E7959F5FC1F7FE2BCA
:100BF000880F911D9695879597F908959F3F31F03D
:100C0000915020F4879577956795B795880F911D3A
:100C10009695879597F90895DF93CF931F930F9338
:100C2000FF92EF92DF927B018C01689406C0DA2E6E
:100C3000EF010E94A405FE01E894A591259135914C
:100C400045915591A6F3EF010E94C203FE01970161
:100C5000A801DA9469F7DF90EF90FF900F911F9150
:0A0C6000CF91DF910895F894FFCFC3
:100C6A00040003000200010000000900050006005C
:0E0C7A00070008001200110010000F000E000D
:00000001FF
