:100000000C948E000C94AB000C94AB000C94AB00E1
:100010000C94AB000C94AB000C94AB000C94AB00B4
:100020000C94AB000C94AB000C94AB000C94AB00A4
:100030000C94AB000C94AB000C94AB000C94AB0094
:100040000C948B010C94D5010C94AB000C94AB0078
:100050000C94AB000C94AB000C94AB000C94AB0074
:100060000C94AB000C94AB0008000000BE92244935
:10007000123EABAAAA2ABECDCCCC4C3E00000080DA
:10008000BEABAAAAAA3E00000000BF000000803F4D
:100090000000000000084178D3BB4387D1133D190D
:1000A0000E3CC3BD4282AD2B3E68EC8276BED98F3A
:1000B000E1A93E4C80EFFFBE01C4FF7F3F0000007E
:1000C000000000000000240027002A0000000000BB
:1000D000250028002B000000000023002600290036
:1000E00004040404040404040202020202020303DE
:1000F00003030303010204081020408001020408E6
:100100001020010204081020000000080002010075
:1001100000030407000000000000000011241FBEBF
:10012000CFEFD8E0DEBFCDBF11E0A0E0B1E0EAEE56
:10013000FEE002C005900D92AE31B107D9F721E083
:10014000AEE1B1E001C01D92AE36B207E1F70E9408
:100150000D020C9473070C940000833081F028F496
:10016000813099F08230A1F008958730A9F088306D
:10017000B9F08430D1F4809180008F7D03C08091EC
:1001800080008F7780938000089584B58F7702C0B8
:1001900084B58F7D84BD08958091B0008F7703C0B2
:1001A0008091B0008F7D8093B0000895CF93DF934E
:1001B000E2E1F1E08491EEEFF0E0D491EAEEF0E0DC
:1001C000C491CC2391F081110E94AD00EC2FF0E09E
:1001D000EE0FFF1FEA52FF4FA591B491EC91ED2372
:1001E00081E090E021F480E002C080E090E0DF91C7
:1001F000CF9108951F93CF93DF93282F30E0F9011B
:10020000E85FFE4F8491F901EC50FF4FD491F90162
:10021000E052FF4FC491CC23C9F0162F81110E94E8
:10022000AD00EC2FF0E0EE0FFF1FE453FF4FA59160
:10023000B4918FB7F894111105C09C91ED2FE09502
:10024000E92302C0EC91ED2BEC938FBFDF91CF91AE
:100250001F910895CF93DF9390E0FC01EC50FF4F86
:100260002491FC01E052FF4F8491882361F190E0DA
:10027000880F991FFC01EE53FF4FC591D491FC01EB
:10028000E453FF4FA591B491611109C09FB7F89451
:100290008881209582238883EC912E230BC06230C5
:1002A00061F49FB7F8943881822F809583238883E7
:1002B000EC912E2B2C939FBF06C08FB7F894E8814A
:1002C0002E2B28838FBFDF91CF9108953FB7F894ED
:1002D0008091230190912401A0912501B0912601E4
:1002E00026B5A89B05C02F3F19F00196A11DB11D91
:1002F0003FBFBA2FA92F982F8827820F911DA11DCC
:10030000B11DBC01CD0143E0660F771F881F991F07
:100310004A95D1F708951F920F920FB60F921124AC
:100320002F933F938F939F93AF93BF9380911F0120
:1003300090912001A0912101B091220130911E01E4
:1003400026E0230F2D3720F40296A11DB11D05C014
:1003500029E8230F0396A11DB11D20931E01809350
:100360001F0190932001A0932101B093220180915D
:10037000230190912401A0912501B09126010196BD
:10038000A11DB11D8093230190932401A093250109
:10039000B0932601BF91AF919F918F913F912F9183
:1003A0000F900FBE0F901F9018951F920F920FB6CF
:1003B0000F9211242F934F935F938F939F93EF93FB
:1003C000FF932EB580912B0190912C01AC014F5FD2
:1003D0005F4F50932C0140932B01FC01E35DFE4FD6
:1003E00080818EBD80916C0190916D01AC014F5F59
:1003F0005F4F50936D0140936C01FC01E95AFE4F31
:100400002083FF91EF919F918F915F914F912F9159
:100410000F900FBE0F901F901895CF93DF9300D0D1
:1004200000D01F92CDB7DEB7789484B5826084BDCA
:1004300084B5816084BD85B5826085BD85B58160E8
:1004400085BD80916E00816080936E001092810066
:100450008091810082608093810080918100816021
:1004600080938100809180008160809380008091E2
:10047000B10084608093B1008091B000816080936E
:10048000B00080917A00846080937A0080917A0035
:10049000826080937A0080917A008E7F80937A00C8
:1004A00080917A00806880937A001092C10000E009
:1004B00011E0F80180810E5F1F4F60E00E942A0169
:1004C000F1E00A301F07A9F70AE011E0B4E1CB2EF2
:1004D000B1E0DB2EF601E080F2E0CF0ED11C61E04E
:1004E0008E2D0E942A01F801F0800E5F1F4F61E0FF
:1004F0008F2D0E942A0161E08E2D0E94FA0060E09B
:100500008F2D0E94FA00FEE1CF16F1E0DF0611F711
:1005100061E08CE00E942A018CB580648CBD8CB5B2
:1005200080688CBD33243394A0E08A2EA0E09A2EFC
:10053000F89480916C0190916D01459709F08AC003
:100540008091570180935301809158018093540109
:10055000809159018093550180915A0180935601F1
:100560008091530190915401A0915501B091560191
:1005700080934F0190935001A0935101B093520189
:1005800080915B018093530180915C0180935401C1
:1005900080915D018093550180915E0180935601A9
:1005A0008091530190915401A0915501B091560151
:1005B00080934B0190934C01A0934D01B0934E0159
:1005C00080915F0180935301809160018093540179
:1005D0008091610180935501809162018093560161
:1005E0008091530190915401A0915501B091560111
:1005F0008093470190934801A0934901B0934A0129
:100600008091630180935301809164018093540130
:100610008091650180935501809166018093560118
:100620008091530190915401A0915501B0915601D0
:100630008093430190934401A0934501B0934601F8
:100640009091680181E0911101C080E080934201A6
:100650003092410180914F0190915001A091510140
:10066000B0915201892B8A2B8B2B09F445C174E17F
:10067000E72E71E0F72EEAE0CE2EE1E0DE2EF0E08C
:10068000AF2EF1E0BF2E00E010E0F5018081F2E036
:10069000AF0EB11C8E3008F08E508770806480934E
:1006A0007C0080917A00806480937A0080917A0047
:1006B000282F20742D8386FDF9CF609178008091DA
:1006C000790070E0782B072E000C880B990B0E94A4
:1006D000D0059B01AC0160E070EC8FE794E40E94D0
:1006E0005C0520E030E040E85FE30E94EA049B0103
:1006F000AC0160914301709144018091450190915A
:10070000460129833A834B835C830E94D00529816B
:100710003A814B815C810E945C052B013C01609118
:100720004B0170914C0180914D0190914E010E94BE
:10073000D0059B01AC01C301B2010E945C050E947F
:100740008D062B013C0160914F0170915001809109
:100750005101909152010E94D0059B01AC01C3014F
:10076000B2010E945C052B013C0160914701709130
:1007700048018091490190914A010E94D00523E3EC
:1007800033E948E853E40E94EB049B01AC0160E0CC
:1007900070E080E89FE30E945C059B01AC01C3010F
:1007A000B2010E94EB049B01AC0160E070E080E8C4
:1007B0009FE30E945C0523E333E948E853E40E9489
:1007C000EA04762E472E582E692E20E030E040E2D3
:1007D00051EC0E94570518169CF420E030E040E7E9
:1007E00052E4672D742D852D962D0E94800687FD7D
:1007F0000DC0712C412C50E7552E62E4662E06C0C8
:10080000712C412C30E2532E41EC642E872D942D17
:10081000A52DB62D8093270190932801A09329013F
:10082000B0932A01F801E35DFE4F708280912801A8
:10083000818380912901828380912A018383209082
:100840004201222009F43CC020E030E04CE652E4B2
:10085000672D742D852D962D0E94570518167CF056
:100860002224239420E030E040E151EC672D742DE8
:10087000852D962D0E94800687FD212C2324622D34
:10088000F70180810E94FA0020E030E04CE652E45B
:10089000672D742D852D962D0E945705181674F01E
:1008A000F1E0FD8320E030E040E151EC672D742D54
:1008B000852D962D0E94800687FD1D826D8106C0C4
:1008C00060E0F70180810E94FA0060E0F60180811B
:1008D0000E94FA00F2E0CF0ED11C22E0E20EF11CE1
:1008E0000C5F1F4F0431110509F0CFCE78940E94A0
:1008F000D600892B49F52FC09AE0E92E91E0F92E18
:1009000024E1C22E21E0D22E00E010E0F601808129
:10091000F2E0CF0ED11C61E00E94FA00F701808165
:10092000F2E0EF0EF11C60E00E94FA00F801E35DD6
:10093000FE4F2EEF20832183228323830C5F1F4FE2
:100940000431110519F7D2CF80912B0190912C0120
:1009500018161906ACF10E94D600892B21F080915F
:100960004101811132C00E9466012B013C018AE0E5
:10097000C82ED12CE12CF12C0E946601DC01CB01A8
:1009800084199509A609B709883E9340A105B105C8
:1009900058F081E0C81AD108E108F10898EE490E34
:1009A00093E0591E611C711CC114D104E104F104CF
:1009B00019F78114910409F4BBCD0E940000B8CD51
:1009C00010922C0110922B01C6CF10926D01109243
:1009D0006C01C9CF5058BB27AA270E9402050C946E
:1009E00046060E94380638F00E943F0620F039F48F
:1009F0009F3F19F426F40C9435060EF4E095E7FBBE
:100A00000C942F06E92F0E94570658F3BA17620775
:100A100073078407950720F079F4A6F50C947906FE
:100A20000EF4E0950B2EBA2FA02D0B01B901900109
:100A30000C01CA01A0011124FF27591B99F0593F4D
:100A400050F4503E68F11A16F040A22F232F342F95
:100A50004427585FF3CF469537952795A795F040E3
:100A60005395C9F77EF41F16BA0B620B730B840BF8
:100A7000BAF09150A1F0FF0FBB1F661F771F881FB0
:100A8000C2F70EC0BA0F621F731F841F48F4879508
:100A900077956795B795F7959E3F08F0B0CF9395FA
:100AA000880F08F09927EE0F9795879508950E9473
:100AB0000B0608F481E008950E9470050C94460628
:100AC0000E943F0658F00E94380640F029F45F3F2C
:100AD00029F00C942F0651110C947A060C943506CB
:100AE0000E94570668F39923B1F3552391F3951BA0
:100AF000550BBB27AA2762177307840738F09F5F3F
:100B00005F4F220F331F441FAA1FA9F335D00E2EAB
:100B10003AF0E0E832D091505040E695001CCAF718
:100B20002BD0FE2F29D0660F771F881FBB1F2617DB
:100B300037074807AB07B0E809F0BB0B802DBF01B2
:100B4000FF2793585F4F3AF09E3F510578F00C9481
:100B50002F060C947A065F3FE4F3983ED4F3869513
:100B600077956795B795F7959F5FC9F7880F911DA2
:100B70009695879597F90895E1E0660F771F881F8E
:100B8000BB1F621773078407BA0720F0621B730B41
:100B9000840BBA0BEE1F88F7E0950895E89409C01E
:100BA00097FB3EF490958095709561957F4F8F4FA0
:100BB0009F4F9923A9F0F92F96E9BB279395F695B6
:100BC000879577956795B795F111F8CFFAF4BB0F34
:100BD00011F460FF1BC06F5F7F4F8F4F9F4F16C098
:100BE000882311F096E911C0772321F09EE8872F22
:100BF000762F05C0662371F096E8862F70E060E0DE
:100C00002AF09A95660F771F881FDAF7880F969556
:100C1000879597F90895990F0008550FAA0BE0E8FA
:100C2000FEEF16161706E807F907C0F012161306AE
:100C3000E407F50798F0621B730B840B950B39F4EE
:100C40000A2661F0232B242B252B21F408950A2654
:100C500009F4A140A6958FEF811D811D089597F994
:100C60009F6780E870E060E008959FEF80EC089552
:100C700000240A941616170618060906089500247B
:100C80000A9412161306140605060895092E0394F5
:100C9000000C11F4882352F0BB0F40F4BF2B11F469
:100CA00060FF04C06F5F7F4F8F4F9F4F089557FDC8
:100CB0009058440F551F59F05F3F71F04795880FCA
:100CC00097FB991F61F09F3F79F087950895121661
:100CD00013061406551FF2CF4695F1DF08C016160D
:100CE00017061806991FF1CF8695710561050894BE
:100CF0000895E894BB2766277727CB0197F90895D5
:100D00000E940B0608F48FEF089516F00C943E072E
:100D10000C94350668940C942F060E945F06A8F385
:100D20009923C1F3AEF3DF93CF931F930F93FF92F9
:100D3000C92FDD2788232AF02197660F771F881F88
:100D4000DAF720E030E040E85FEB9FE3883920F0FD
:100D5000803E38F021968F770E94EB04E8E6F0E0C1
:100D600004C00E94EB04E5E9F0E00E944C078B010F
:100D7000BE01EC01FB2E6F5771097595771F880B2B
:100D8000990B0E94D00528E132E741E35FE30E941E
:100D9000E406AF2D9801AE01FF900F911F91CF9106
:100DA000DF910E9402050C9446060E94380638F036
:100DB0000E943F0620F0952311F00C942F060C940E
:100DC000350611240C947A060E94570670F3959FFD
:100DD000C1F3950F50E0551F629FF001729FBB2732
:100DE000F00DB11D639FAA27F00DB11DAA1F649FCE
:100DF0006627B00DA11D661F829F2227B00DA11D81
:100E0000621F739FB00DA11D621F839FA00D611D06
:100E1000221F749F3327A00D611D231F849F600D27
:100E2000211D822F762F6A2F11249F5750409AF050
:100E3000F1F088234AF0EE0FFF1FBB1F661F771FDC
:100E4000881F91505040A9F79E3F510580F00C94A7
:100E50002F060C947A065F3FE4F3983ED4F3869510
:100E600077956795B795F795E7959F5FC1F7FE2B47
:100E7000880F911D9695879597F908959F3F31F0BA
:100E8000915020F4879577956795B795880F911DB8
:100E90009695879597F90895DF93CF931F930F93B6
:100EA000FF92EF92DF927B018C01689406C0DA2EEC
:100EB000EF010E94E406FE01E894A5912591359189
:100EC00045915591A6F3EF010E940205FE0197019D
:100ED000A801DA9469F7DF90EF90FF900F911F91CE
:0A0EE000CF91DF910895F894FFCF41
:100EEA001200110010000F000E000400030002009F
:0E0EFA000100000009000500060007000800C6
:00000001FF
