:100000000C9489000C94A6000C94A6000C94A600F5
:100010000C94A6000C94A6000C94A6000C94A600C8
:100020000C94A6000C94A6000C94A6000C94A600B8
:100030000C94A6000C94A6000C94A6000C94A600A8
:100040000C9455010C949F010C94A6000C94A600EE
:100050000C94A6000C94A6000C94A6000C94A60088
:100060000C94A6000C94A60008000000BE9224493F
:10007000123EABAAAA2ABECDCCCC4C3E00000080DA
:10008000BEABAAAAAA3E00000000BF000000803F4D
:100090000000000000084178D3BB4387D1133D190D
:1000A0000E3CC3BD4282AD2B3E68EC8276BED98F3A
:1000B000E1A93E4C80EFFFBE01C4FF7F3F0000007E
:1000C000000000000000240027002A0000000000BB
:1000D000250028002B000404040404040404020284
:1000E00002020202030303030303010204081020B7
:1000F00040800102040810200102040810200000C2
:1001000000080002010000030407000000000000D6
:10011000000011241FBECFEFD8E0DEBFCDBF11E03D
:10012000A0E0B1E0E0E5FEE002C005900D92AE3146
:10013000B107D9F721E0AEE1B1E001C01D92AE36C2
:10014000B207E1F70E94D7010C9426070C94000037
:1001500090E0FC01E250FF4F3491FC01E651FF4F6B
:100160002491FC01EA52FF4FE491EE2309F43BC0D5
:10017000332339F1333091F038F43130A9F0323093
:1001800001F584B58F7D12C0373091F03830A1F081
:100190003430B9F4809180008F7D03C0809180005D
:1001A0008F77809380000DC084B58F7784BD09C0A0
:1001B0008091B0008F7703C08091B0008F7D8093D5
:1001C000B000F0E0EE0FFF1FE453FF4FA591B49194
:1001D0008FB7F894EC91611103C020952E2301C0D4
:1001E0002E2B2C938FBF0895CF93DF9390E0FC01CB
:1001F000E651FF4F2491FC01EA52FF4F849188237E
:1002000061F190E0880F991FFC01EE53FF4FC591FB
:10021000D491FC01E453FF4FA591B491611109C041
:100220009FB7F8948881209582238883EC912E23B0
:100230000BC0623061F49FB7F8943881822F8095AB
:1002400083238883EC912E2B2C939FBF06C08FB7FE
:10025000F894E8812E2B28838FBFDF91CF910895EA
:100260003FB7F8948091230190912401A09125013A
:10027000B091260126B5A89B05C02F3F19F0019625
:10028000A11DB11D3FBFBA2FA92F982F8827820F1C
:10029000911DA11DB11DBC01CD0143E0660F771F6B
:1002A000881F991F4A95D1F708951F920F920FB694
:1002B0000F9211242F933F938F939F93AF93BF93EC
:1002C00080911F0190912001A0912101B091220104
:1002D00030911E0126E0230F2D3720F40296A11D38
:1002E000B11D05C029E8230F0396A11DB11D209360
:1002F0001E0180931F0190932001A0932101B093D0
:1003000022018091230190912401A0912501B091B7
:1003100026010196A11DB11D809323019093240114
:10032000A0932501B0932601BF91AF919F918F912A
:100330003F912F910F900FBE0F901F9018951F9215
:100340000F920FB60F9211242F934F935F938F93B9
:100350009F93EF93FF932EB580916A0190916B016B
:10036000AC014F5F5F4F50936B0140936A01FC01FA
:10037000E45DFE4F80818EBD80916C0190916D0196
:10038000AC014F5F5F4F50936D0140936C01FC01D6
:10039000EB5AFE4F2083FF91EF919F918F915F91D8
:1003A0004F912F910F900FBE0F901F901895CF93E4
:1003B000DF9300D000D01F92CDB7DEB7789484B51C
:1003C000826084BD84B5816084BD85B5826085BD51
:1003D00085B5816085BD80916E00816080936E00DF
:1003E00010928100809181008260809381008091D1
:1003F0008100816080938100809180008160809382
:1004000080008091B10084608093B1008091B00041
:1004100081608093B00080917A00846080937A003C
:1004200080917A00826080937A0080917A008E7F3A
:1004300080937A0080917A00806880937A0010928D
:10044000C10000E011E0F80180810E5F1F4F60E005
:100450000E94F400F1E00A301F07A9F70AE011E05A
:10046000B4E1CB2EB1E0DB2EF601E080F2E0CF0E5E
:10047000D11C61E08E2D0E94F400F801F0800E5F27
:100480001F4F61E08F2D0E94F40061E08E2D0E94CD
:10049000A80060E08F2D0E94A800FEE1CF16F1E0D9
:1004A000DF0611F761E08CE00E94F4008CB58064F7
:1004B0008CBD109227018CB580688CBD3324339499
:1004C000A0E08A2EA0E09A2E80916C0190916D019F
:1004D000459709F08CC010926B0110926A0110923E
:1004E0006D0110926C0180915501809351018091B2
:1004F000560180935201809157018093530180915E
:100500005801809354018091510190915201A09122
:100510005301B091540180934D0190934E01A093EB
:100520004F01B09350018091590180935101809106
:100530005A018093520180915B0180935301809115
:100540005C01809354018091510190915201A091DE
:100550005301B09154018093490190934A01A093B3
:100560004B01B0934C0180915D01809351018091CA
:100570005E018093520180915F01809353018091CD
:100580006001809354018091510190915201A0919A
:100590005301B09154018093450190934601A0937B
:1005A0004701B0934801809161018093510180918E
:1005B0006201809352018091630180935301809185
:1005C0006401809354018091510190915201A09156
:1005D0005301B09154018093410190934201A09343
:1005E0004301B09344018091650180934001809163
:1005F0004D0190914E01A0914F01B0915001892B76
:100600008A2B8B2B09F44CC174E1E72E71E0F72E95
:10061000EAE0CE2EE1E0DE2EF0E0AF2EF1E0BF2EDC
:1006200000E010E0F5018081F2E0AF0EB11C8E30E9
:1006300008F08E508770806480937C0080917A00EF
:10064000806480937A0080917A00282F20742D8313
:1006500086FDF9CF609178008091790070E0782B69
:10066000072E000C880B990B0E9483059B01AC019F
:1006700060E070EC8FE794E40E940F0520E030E02A
:1006800040E85FE30E949D049B01AC016091410141
:1006900070914201809143019091440129833A83F2
:1006A0004B835C830E94830529813A814B815C8165
:1006B0000E940F052B013C016091490170914A0194
:1006C00080914B0190914C010E9483059B01AC01EC
:1006D000C301B2010E940F050E9440062B013C019C
:1006E00060914D0170914E0180914F0190915001A8
:1006F0000E9483059B01AC01C301B2010E940F055A
:100700002B013C01609145017091460180914701A8
:10071000909148010E94830523E333E948E853E4BC
:100720000E949E049B01AC0160E070E080E89FE3C2
:100730000E940F059B01AC01C301B2010E949E04FF
:100740009B01AC0160E070E080E89FE30E940F0530
:1007500023E333E948E853E40E949D04762E472EB4
:10076000582E692E20E030E040E251EC0E940A054C
:1007700018169CF420E030E040E752E4672D742D19
:10078000852D962D0E94330687FD0DC0712C412CBE
:1007900050E7552E62E4662E06C0712C412C30E2E3
:1007A000532E41EC642E872D942DA52DB62D8093CC
:1007B000280190932901A0932A01B0932B01F801FD
:1007C000E45DFE4F708280912901818380912A012E
:1007D000828380912B01838380914001882309F4D7
:1007E0003EC020E030E04CE652E4672D742D852DAC
:1007F000962D0E940A0518168CF02224239420E0DE
:1008000030E040E151EC672D742D852D962D0E942E
:10081000330687FD212C622D632501C061E0F701BD
:1008200080810E94A80020E030E04CE652E4672D71
:10083000742D852D962D0E940A05181674F0F1E08E
:10084000FD8320E030E040E151EC672D742D852DD3
:10085000962D0E94330687FD1D826D8106C060E0E3
:10086000F70180810E94A80060E0F60180810E946B
:10087000A800F2E0CF0ED11C22E0E20EF11C0C5FCA
:100880001F4F0431110509F0CDCE0E9430012B011C
:100890003C0124EFC22EDD24D394E12CF12C2DC099
:1008A0008AE0E82E81E0F82E94E1C92E91E0D92E5D
:1008B00000E010E0F6018081F2E0CF0ED11C61E093
:1008C0000E94A800F7018081F2E0EF0EF11C60E0C9
:1008D0000E94A800F801E45DFE4F2FEF20832183E2
:1008E000228323830C5F1F4F0431110519F7CDCFED
:1008F000C114D104E104F104C9F00E943001DC010B
:10090000CB0184199509A609B709883E9340A10532
:10091000B10570F381E0C81AD108E108F10898EE3A
:10092000490E93E0591E611C711CE2CF81149104A1
:1009300009F4CACD0E940000C7CD5058BB27AA2792
:100940000E94B5040C94F9050E94EB0538F00E9452
:10095000F20520F039F49F3F19F426F40C94E805D1
:100960000EF4E095E7FB0C94E205E92F0E940A06DD
:1009700058F3BA17620773078407950720F079F4D4
:10098000A6F50C942C060EF4E0950B2EBA2FA02D94
:100990000B01B90190010C01CA01A0011124FF272C
:1009A000591B99F0593F50F4503E68F11A16F04027
:1009B000A22F232F342F4427585FF3CF4695379526
:1009C0002795A795F0405395C9F77EF41F16BA0BEB
:1009D000620B730B840BBAF09150A1F0FF0FBB1F99
:1009E000661F771F881FC2F70EC0BA0F621F731FE2
:1009F000841F48F4879577956795B795F7959E3F3F
:100A000008F0B0CF9395880F08F09927EE0F9795CF
:100A1000879508950E94BE0508F481E008950E941C
:100A200023050C94F9050E94F20558F00E94EB058D
:100A300040F029F45F3F29F00C94E20551110C9429
:100A40002D060C94E8050E940A0668F39923B1F379
:100A5000552391F3951B550BBB27AA2762177307E4
:100A6000840738F09F5F5F4F220F331F441FAA1F78
:100A7000A9F335D00E2E3AF0E0E832D09150504034
:100A8000E695001CCAF72BD0FE2F29D0660F771FE2
:100A9000881FBB1F261737074807AB07B0E809F0C8
:100AA000BB0B802DBF01FF2793585F4F3AF09E3F4D
:100AB000510578F00C94E2050C942D065F3FE4F3A9
:100AC000983ED4F3869577956795B795F7959F5F90
:100AD000C9F7880F911D9695879597F90895E1E0DC
:100AE000660F771F881FBB1F621773078407BA073B
:100AF00020F0621B730B840BBA0BEE1F88F7E09596
:100B00000895E89409C097FB3EF490958095709500
:100B100061957F4F8F4F9F4F9923A9F0F92F96E949
:100B2000BB279395F695879577956795B795F111BE
:100B3000F8CFFAF4BB0F11F460FF1BC06F5F7F4F5B
:100B40008F4F9F4F16C0882311F096E911C077236D
:100B500021F09EE8872F762F05C0662371F096E876
:100B6000862F70E060E02AF09A95660F771F881F45
:100B7000DAF7880F9695879597F90895990F0008E9
:100B8000550FAA0BE0E8FEEF16161706E807F9075F
:100B9000C0F012161306E407F50798F0621B730BFA
:100BA000840B950B39F40A2661F0232B242B252B7B
:100BB00021F408950A2609F4A140A6958FEF811D1E
:100BC000811D089597F99F6780E870E060E00895BF
:100BD0009FEF80EC089500240A9416161706180655
:100BE0000906089500240A94121613061406050631
:100BF0000895092E0394000C11F4882352F0BB0FC2
:100C000040F4BF2B11F460FF04C06F5F7F4F8F4F24
:100C10009F4F089557FD9058440F551F59F05F3F5F
:100C200071F04795880F97FB991F61F09F3F79F00E
:100C300087950895121613061406551FF2CF469590
:100C4000F1DF08C0161617061806991FF1CF869512
:100C50007105610508940895E894BB2766277727F6
:100C6000CB0197F908950E94BE0508F48FEF08950F
:100C700016F00C94F1060C94E80568940C94E205C7
:100C80000E941206A8F39923C1F3AEF3DF93CF932A
:100C90001F930F93FF92C92FDD2788232AF02197F6
:100CA000660F771F881FDAF720E030E040E85FEB3F
:100CB0009FE3883920F0803E38F021968F770E949C
:100CC0009E04E8E6F0E004C00E949E04E5E9F0E03E
:100CD0000E94FF068B01BE01EC01FB2E6F577109CC
:100CE0007595771F880B990B0E94830528E132E7E1
:100CF00041E35FE30E949706AF2D9801AE01FF909C
:100D00000F911F91CF91DF910E94B5040C94F905CA
:100D10000E94EB0538F00E94F20520F0952311F0B7
:100D20000C94E2050C94E80511240C942D060E9405
:100D30000A0670F3959FC1F3950F50E0551F629F0F
:100D4000F001729FBB27F00DB11D639FAA27F00D24
:100D5000B11DAA1F649F6627B00DA11D661F829F4B
:100D60002227B00DA11D621F739FB00DA11D621F30
:100D7000839FA00D611D221F749F3327A00D611D4D
:100D8000231F849F600D211D822F762F6A2F11242F
:100D90009F5750409AF0F1F088234AF0EE0FFF1F62
:100DA000BB1F661F771F881F91505040A9F79E3FB9
:100DB000510580F00C94E2050C942D065F3FE4F39E
:100DC000983ED4F3869577956795B795F795E7950F
:100DD0009F5FC1F7FE2B880F911D9695879597F918
:100DE00008959F3F31F0915020F48795779567954E
:100DF000B795880F911D9695879597F90895DF937C
:100E0000CF931F930F93FF92EF92DF927B018C01A0
:100E1000689406C0DA2EEF010E949706FE01E8945E
:100E2000A5912591359145915591A6F3EF010E9429
:100E3000B504FE019701A801DA9469F7DF90EF90FD
:100E4000FF900F911F91CF91DF910895F894FFCFFC
:100E50001200110010000F000E0004000300020039
:0E0E6000010000000900050006000700080060
:00000001FF
